:020000041000EA
:1000000000B5324B212058609868022188439860DF
:10001000D860186158612E4B002199600221596106
:100020000121F02299502B49196001219960352056
:1000300000F044F80222904214D00621196600F024
:1000400034F8196E01211966002018661A6600F04E
:100050002CF8196E196E196E052000F02FF8012189
:100060000842F9D1002199601B49196000215960AB
:100070001A491B48016001219960EB211966A021F2
:10008000196600F012F800219960164914480160C1
:100090000121996001BC002800D000471248134993
:1000A000086003C880F30888084703B5996A0420EC
:1000B0000142FBD001200142F8D103BD02B5186610
:1000C0001866FFF7F2FF186E186E02BD00000240BE
:1000D000000000180000070000035F00212200005C
:1000E000F4000018222000A00001001008ED00E03C
:1000F00000000000000000000000000074B24E7A12
:1001000000200420F7010010C3010010C5010010F9
:10011000C1010010C1010010C1010010C101001097
:10012000C1010010C1010010C1010010C701001081
:10013000C1010010C1010010C9010010CB01001065
:10014000CD010010CD010010CD010010CD01001037
:10015000CD010010CD010010CD010010CD01001027
:10016000CD010010CD010010CD010010CD01001017
:10017000CD010010CD010010CD010010CD01001007
:10018000CD010010CD010010CD010010CD010010F7
:10019000CD010010CD010010CD010010CD010010E7
:1001A000CD010010CD010010CD010010CD010010D7
:1001B000CD010010CD010010CD010010CD010010C7
:1001C00000BE00BE00BE00BE00BE00BE00F04BF888
:1001D000103800BEF2EB8871B8040110DC04011085
:1001E0003402001090A31AE700202149086006C8D5
:1001F00081F3088810471F48006800282FD10DA4FC
:100200000ECC002902D000F012F8F9E71A491B4A77
:10021000002000E001C19142FCD1194988471949E9
:1002200088471949884700BEFDE701C901C29A42C3
:10023000FBD37047DC040110C0000020B80D002083
:10024000D41101100000042000000420D41101107A
:1002500000100420001004200000000070470B482C
:1002600004F088FF0047EFF30580C0B2704700003C
:1002700008ED00E0000000D0B80D0020841200203E
:10028000C132001065250010E533001057560000FC
:1002900006005250ABB3605368FA0010060052508B
:1002A000861C030278FA0010060052505422A29DC8
:1002B0007CFA001005005250DE65F468D41101107C
:1002C000F8B5C04610B5064C2378002B07D1054B76
:1002D000002B02D0044800E000BF0123237010BDB2
:1002E000E010002000000000D8EE0010044B10B514
:1002F000002B03D00349044800E000BF10BDC046F6
:1003000000000000E4100020D8EE0010F0B54E46CA
:100310004546DE46574604008846E0B5436A8F00EE
:10032000DB5985B0180003932369984743465E0064
:100330002368B94645469E4246D2751C82468B4686
:1003400000979D423BD2E368626A0193B3009946ED
:10035000D05822699047636A22694B4402905868DA
:100360000F00904702000B0002983900019FB84728
:10037000002824D0002D24D0AB0099464A46636A59
:10038000E66898582369984702000B005046594682
:10039000B047002815D04A46636A00999A586E0003
:1003A0005A50636A5858A3694146984723689E4249
:1003B0000AD24A46A846751C00929D42C3D3350016
:1003C000D8E7009F4546B9464A46636A0398290024
:1003D0009850A369984705B0F0BCBB46B246A94601
:1003E000A046F0BD10B504000120994201D801D00B
:1003F000002010BD9442FCD8FAE7C04600207047A8
:100400008B688068C01A434258417047401A434283
:1004100058417047416800687047C04641690069AB
:100420007047C046C0687047006A7047C160704737
:10043000016270477047C04670B5D02480251920EE
:100440002406AD0402F09CF86562FA206561400064
:1004500002F0A4FBFA20A561400002F09FFBF4E744
:100460007047C046F0B5DE46574645464E46040046
:10047000E0B5436A8F00DB5983B01800019323690C
:100480000E009847B84683468A467508012E10D854
:100490001CE04246636AD9599950636A3100985802
:1004A000A36998472E006B08012D10D91D00B300D9
:1004B0009846E368AF009946636AD859236998471C
:1004C0005A465346C8470028E3D147463500636A79
:1004D00001982900D851A369984703B0F0BCBB46E6
:1004E000B246A946A046F0BDF0B54E464546DE46AA
:1004F0005746E0B51D0013000400160091B02B43D1
:1005000000D1C4E0002D00DAA9E00292FA22002313
:10051000300029009200039504F0ACFE80460F00E5
:10052000002D00DCC8E00490059100233000290074
:100530007E4A04F09FFE82468946002D00DCC8E01A
:10054000534606934B463000079329000023784A10
:1005500004F090FE80460F00002D00DC9DE0089026
:100560000991E82330002900724A04F083FE824694
:100570008946E82D00DCB6E053460A934B4630002E
:100580000B9329006C4B6D4A04F074FE6A4B834652
:1005900001919D4200DCB0E05B460C93019B300072
:1005A0000D932900664B674A04F064FE644B804655
:1005B0000F009D4200DCACE00623072599460E9013
:1005C0000F91AB1E9A46022303269B460125FA2271
:1005D000404639000023920004F04CFE20005A49A6
:1005E0001F00904604F04EFD002F0BDC07D003DC0B
:1005F0005FD14346092B5CD95E46023403E0434693
:10060000632BF6D903344B46002B20DD5346DF0025
:1006100002AB9C464D4B554699466744FA223868D2
:1006200079680023920004F025FE2000494604F07A
:1006300029FD04342B00083F013D002BEEDC53461E
:10064000DB435546DB171D400135AD007619300000
:1006500011B0F0BCBB46B246A946A046F0BD02228E
:100660003B4905F0A7FC02AA082394465B42634479
:100670001B68042698461300043B1F6803239B460F
:10068000053B9A4601330225994601349FE7022231
:10069000304905F08FFC0126D9E7002D03D12E4B00
:1006A0009E4200D95BE702234F46D0469946032578
:1006B00087E72E000134A6E7002D04D1FA239B0022
:1006C0009E4200D32FE700232F00B0469946012514
:1006D00077E7002D03D1214B9E4200D930E701235B
:1006E000022599466DE7E82D03D11D4B9E4200D9A6
:1006F00042E703230425994663E79D4203D1194B42
:100700009E4200D948E704234F46D0469946052526
:1007100057E79D4203D1144B9E4200D94CE7052375
:10072000D84699460625019F4BE7C04640420F0038
:1007300000CA9A3B0010A5D47E8D03000080C6A499
:10074000B3B6E00D000064A7DCEE0010E4EE00108C
:10075000D8EE00106CFA0010FFC99A3B3F420F0020
:10076000FF0FA5D4FF7FC6A4FFFF63A7F0B54746E0
:10077000CE4680B51F00274B80461E680C00150032
:1007800083B0022E00DA02260A9B9E4204DA03B0EE
:10079000C0BCB946B046F0BD200006F06DFD0600B5
:1007A000280006F069FD2023994630188144213045
:1007B00005F0CAFB184B06001B68002B10DB4946EE
:1007C000164A0195009404F071FC154B1B68002B30
:1007D0000DD0390030009847300005F0D9FBD6E73E
:1007E000230049460F4A009504F060FCEDE74346BC
:1007F000002B07D00C4B3A001B683100D86808F07A
:10080000FBFFE9E7084B3A001B683100986808F0E5
:10081000F3FFE1E7C8020020A8020020F4EE001078
:1008200058120020ECEE0010800300200FB4F0B549
:1008300085B00AAD40CD3000039506F01DFD0700E0
:10084000213005F081FB154B04001B682037002B7D
:100850001DDB134A390000920196124A04F026FC6F
:10086000114B1B68002B0AD029002000984720005C
:1008700005F08EFB05B0F0BC08BC04B018470B4B6C
:100880002A001B682100986808F0B6FFEFE73900DE
:10089000034B074A009604F009FCE1E7A802002098
:1008A000D4F20010F4EE0010581200208003002053
:1008B000ECEE00100FB4F0B585B00AAD40CD3000BD
:1008C000039506F0D9FC0700283005F03DFB154BD9
:1008D00004001B682737002B1DDB134A39000092E8
:1008E0000196124A04F0E2FB114B1B68002B0AD060
:1008F000290020009847200005F04AFB05B0F0BC15
:1009000008BC04B018470B4B2A001B682100D868AC
:1009100008F072FFEFE73900034B074A009604F036
:10092000C5FBE1E7A802002008EF0010F4EE00107C
:100930005812002080030020ECEE0010F0B5DE46D7
:1009400057464E464546E0B5826A87B083460591D4
:10095000002A78D0002300279A46019304E0019BE7
:100960000133019393425AD25946019BC96A9B00B5
:100970000393CB581B78002BF1D05B46596B039B3C
:10098000C95802915946096BC9580029E7DD00236F
:10099000994604E001239C46E144894538DA4B46F8
:1009A000029A9B00D658002EF4D07268002AF1DD1E
:1009B000B046002456460FE0002F03D03823FB5CDE
:1009C000002B5BD03823EB5C002B43D04346002741
:1009D0005A680134944211DA41460968A3005D580F
:1009E000002DF6D0BD42F4D00136012EE4D16B6A61
:1009F0009B45E1D101342F009442EDDB5B46039A25
:100A00001B6BB246995801239C46E1448945C6DBDD
:100A10005B469A6A019B013301939342A4D3002F52
:100A200011D07B6C002B69DC65D03B6878689847F7
:100A30005423FB5C002B03D138000599FFF77EFFA0
:100A400048230022FA5407B0F0BCBB46B246A94680
:100A5000A046F0BD01233822AB54474B1F68002F3E
:100A600046D039687B6899421ED2786A4B1C3B603D
:100A70008B001D503800FFF7F5FCA7E73822013343
:100A8000BB543D4B1B689A46002B9BD00ACB994226
:100A90001AD25346586A52464B1C13608B001F50A3
:100AA0005046FFF7DFFC8DE7BB68786A9A468A44B8
:100AB0005346990006F0AAF9002800D186E753466C
:100AC000396878627B60D1E7524692680B009446A1
:100AD00052466344506A9900049306F097F900283F
:100AE00000D16FE75246049B116850625360D2E711
:100AF00043465A686DE73B6C002B96D01F4C200094
:100B000001F036FD002833D1226863681C4908686B
:100B10004968801859411B4B1A685B6812184B4191
:100B20001948416804688B421DDD140019000260F9
:100B300043603D6C7E6C154B1A685B6852197341BB
:100B4000994204DC00D070E7944200D86DE7FB6C5A
:100B5000002B00D174E7786898475423FB5C002B86
:100B600000D169E76CE78B42E3D1A242E1D9DCE72F
:100B70000748FFF79FFEC7E75C120020A002002095
:100B8000B80D0020C00D0020C80D0020D00D0020A1
:100B900010EF00100FB4F0B585B00AAD40CD3000B5
:100BA000039506F069FB07002A3005F0CDF9154BD7
:100BB00004001B682937002B1DDB134A3900009203
:100BC0000196124A04F072FA114B1B68002B0AD0EE
:100BD000290020009847200005F0DAF905B0F0BCA4
:100BE00008BC04B018470B4B2A001B682100D868CA
:100BF00008F002FEEFE73900034B074A009604F0C5
:100C000055FAE1E7A802002034EF0010F4EE0010DE
:100C10005812002080030020ECEE00100FB40021D9
:100C200000B585B006AB04CB0120009103490393C6
:100C3000FFF79CFD012002F0D5FBC04640EF0010FD
:100C4000F0B54F464646D6460400C0B58946161E46
:100C50003EDB002832D134E0626AB3009D58002D9B
:100C60002FD0E36828009A46236998472369804675
:100C700048460F00984702000B0040463900D04715
:100C800000281ED123692800984723690700484699
:100C900088469847874207D1884505D149462800AC
:100CA000E369984700280DD17600320049462000BC
:100CB000FFF7C6FF051E05D1013609D42368B342EC
:100CC000CAD800252800E0BCBA46B146A846F0BD07
:100CD0000148FFF7A3FFC04650EF001070B5041E97
:100CE00006D0C368002B27D0013BC360002B02D085
:100CF0000025280070BD00680025002807D0134A91
:100D00001368013B136005F043F925600135237C2E
:100D1000002BEED080210E4A890013688B4210DA36
:100D20000C4901330868136060610C600A4A0225AF
:100D30001368013B1360DCE701000848FFF72AFF56
:100D4000D6E7200005F024F9F0E7C0466411002042
:100D500094110020901100206811002090EF0010E5
:100D6000F0B54E465746DE464546E0B589B01F0011
:100D7000129B040016009946002F00DAEAE0002CCE
:100D800000D17BE14B46002B03D04A46DB680133A0
:100D9000D360237A002B00D189E0BD4B98461A68B6
:100DA0005B6802920393A269E36904920593B94BCD
:100DB00018689B46002800D100E10368012B00D190
:100DC000FCE0426A013B556803609B009B5801218F
:100DD0005360FFF79BFA002D00D1EFE00023AB61D9
:100DE0004B462B612423AC60E35C002B64D1029A58
:100DF000039B92197B411F004346160018685968EF
:100E0000B94200DDF3E000D1EEE0E369002B00DA47
:100E100079E0237A002B10D1A36A9A46002B0CD0DC
:100E20001A685B68049805998018594102920393E7
:100E3000069007918F4200DC07E143461868596825
:100E4000B94200DDC3E000D1BEE0934A2E606F607E
:100E50005368BB4200DA88E000D182E08F4BA56284
:100E60001C68002C16D021686368994200D2CDE03E
:100E7000A368606ACE18B10005F0C8FF002809D049
:100E8000216860624B1C23608B0066601D5020004F
:100E9000FFF7E8FA824B1868421C00D5B4E01A60EC
:100EA00009B0F0BCBB46B246A946A046F0BD2269D7
:100EB0006369B6185F4170E77A4B18009A4601F0F3
:100EC00057FB002800D0D5E0534618685968764B88
:100ED0001A685B6880185941744B1A685B6812186D
:100EE0004B4173498C46086849688B4200DC9BE0A3
:100EF000614610000A604B601900E36936184F41E3
:100F0000002B00DB85E7654B012229002E606F6016
:100F10001868FFF795FE002800D18EE78369002B43
:100F200000D12FE1022218009B6911000132002B31
:100F3000F9D1594B5A681C68BA4208DC00D11DE14E
:100F40009B68974214DC00D19DE08B4210D38561F1
:100F50000020A5E73B005748FFF71CFE00260027AE
:100F60000DE71368B34200D378E74846FFF7B6FEB3
:100F7000002300222A606B600023AB60EB602B61D2
:100F80002B75AB615B461C68002C15D0216863682B
:100F9000994250D3A368606ACE18B10005F036FFBD
:100FA000002809D0216860624B1C23608B006660BA
:100FB0001D502000FFF756FA002071E72021012084
:100FC00004F0D4FF050009E7B04200D83DE7020075
:100FD0000B0000900191921BBB413748FFF76AFC60
:100FE00043461E685F6830E7B04200D80DE7020054
:100FF0000B0000900191921BBB412F48FFF7CAFDE7
:1010000043461E685F6800E7012248E7606A4B1CA0
:1010100023608B001D502000FFF724FA204B186836
:10102000421C00D43BE7EFE78B4200D065E78242E9
:1010300000D862E75CE7606A4B1C23608B001D50A0
:101040002000FFF70FFA00202AE78F4202D18642E4
:1010500000D9F2E62C21615C012900D185E002294A
:1010600063D0434618685968029B834228D0069E85
:10107000079FE5E61148FFF71DFC25E74846FFF707
:101080002DFE00200CE7A64200D85EE770E7C046C0
:10109000D00D002060120020D80200202C12002069
:1010A00098020020A0020020B80D0020C00D0020F2
:1010B000C80D0020C4EF00100CF0001010EF00105D
:1010C000039B8B42D3D14D4B012251461868FFF749
:1010D000B7FD00285CD053461E685968484B5A68D3
:1010E0001C688A420ADC00D183E040469B68806825
:1010F000914255DC52D00130984251D853460020DD
:101100009D61CDE6049A059B002B01D1002A2FD1C9
:101110003A4B012251461868FFF792FD002827D16B
:1011200053461A685B6802920393434618685968ED
:10113000029A039B8B420EDC26D0029B984296D1EA
:10114000039B994293D12D4B012251461868FFF71A
:1011500077FD00281CD053461869814501D0FFF760
:10116000BDFD53464A461A6102E7059B002BC9DDC7
:1011700053461B69994500D0F7E6F9E6B44200D81A
:10118000DEE6E4E60121D4E6029B8342D5D9E2E71C
:101190004346069E079F1868596851E6A642AAD999
:1011A000002300222A606B600023AB60EB602B61A0
:1011B0002B75AB615B461C68002C00D1FCE62168F6
:1011C000636899420BD3A368606ACE18B10005F03A
:1011D0001DFE002800D1EFE62168606266604B1CAE
:1011E000626A23608B0020009D50FFF73BF90020CE
:1011F00056E6B44200D878E780E7C0462C120020BB
:10120000D8020020F0B54F46D6464646C0B5414FFD
:10121000386800281FDD00230024002598463E4E34
:1012200003E001350C34854215DA33681B195A681E
:1012300011780129F5D1197A002903D0434613709A
:1012400033681B191B6801351868FFF747FD3868BC
:101250000C348542E9DB314F3C68002C26D0304B02
:101260009946304B9846304B9A4613E0013DF56065
:10127000002D0CD13068002806D02C4A1368013BA1
:10128000136004F085FE3560337C002B29D13C606F
:10129000002C0BD02600F5686469002DE6D13100E2
:1012A0002348FFF777FC3C60002CF3D1214C224A05
:1012B000224B216812681B688A4202DA1100204B17
:1012C0001B68002906DD00208900591804CB107026
:1012D0008B42FBD100232360E0BCBA46B146A8464E
:1012E000F0BD4B4680221B68920093420DDA5246B5
:1012F000126801337261524616604A4613604346D3
:1013000042461B68013B1360C1E7300004F040FE19
:10131000F5E7C0469C110020981100207C110020A8
:101320009411002068110020901100206411002009
:1013300090EF00107411002078110020701100202F
:101340006C11002030B589B0FFF75CFF404C23687A
:10135000002B02D01968012921D13E4D3E4C236853
:10136000002B06DD3D48FFF715FC21683C48FFF7E0
:1013700011FC3C4C2368002B06DD3B48FFF70AFCC0
:1013800021683A48FFF706FC28686968384B1A68F4
:101390005B68121A8B41002B18DA09B030BD354852
:1013A0000139FFF7F7FB2368002B4DD01A68012A9B
:1013B0004AD05B6A274D5B68286869681A685B6871
:1013C000121A8B412C48FFF7E5FBC7E76846FFF789
:1013D0008BF86946294805F081F8294C6368002B91
:1013E00003DCDAD12368002BD7D0264D280001F08A
:1013F000BFF8002824D128686968234B234D1A6858
:101400005B6880185941224B1A685B688018594103
:101410002A686B6899420EDC0BD020686168121A4A
:101420008B416846FFF760F869461A4805F056F8A0
:10143000B3E79042F1D902000B0028606960ECE745
:101440001548FFF737FAD6E700231A685B68FFDE16
:101450002C120020D00200206411002000F10010A6
:1014600034F100106811002054F1001084F10010D4
:10147000D00D002078F00010BCF00010A4F1001096
:10148000C0020020A0020020B80D0020C80D0020DE
:10149000C00D0020D0F1001010EF0010F0B545464F
:1014A000DE4657464E46E0B5B94B85B098461B68B8
:1014B000002B00D1EFE01A68012A00D1EBE05B6A53
:1014C0005B68002B00D1E6E0B24A9246B24A9346EE
:1014D00015E0686A4B1C2B608B001C502800FEF73F
:1014E000C1FF43461B68002B00D1D4E01A68012AD3
:1014F00000D1D0E05B6A5B68002B00D1CBE05246A4
:1015000019681268914200D0C5E052465B68526883
:10151000934200D0BFE043461868002800D134E170
:101520000368012B00D130E1426A013B546803603B
:101530009B009B5801215360FEF7E8FE237D002BA2
:1015400031D0A769002F10D0944B1D68002D0CD00E
:1015500029686B68994200D3D6E0686A4B1C2B60FF
:101560008B001F502800FEF77DFF00230022226021
:1015700063600023A360E36023612375A361884B4C
:101580001D68002DADD029686B689942A1D3AB6866
:10159000686ACE18B10005F039FC0028A1D029688E
:1015A00068626E6096E7A16823694A680393002A1F
:1015B00025DD38230025994602E0013595421EDAE3
:1015C0000868AB001E584B46F35C002BF5D14B4628
:1015D0000120F0545B461F68002FEED039687B680D
:1015E000994248D2786A4B1C3B608B001E503800F1
:1015F000FEF738FFA16801354A689542E0DB3423E5
:101600000122CA540B7A002B06D0CB698A69002BC1
:1016100000DD92E000D18DE0086A2369984209D08C
:10162000002807D001230374C3680133C360FFF7A8
:1016300055FBA168039A0A62002A01D000231374A3
:1016400034230122CA54A669002E8ED0534B1D6844
:10165000002D8AD029686B68994262D3AB68686AAA
:10166000CF18B90005F0D2FB002800D17DE729682A
:1016700068626F6056E0BA680B0094466344786A0B
:101680009900029305F0C2FB0028B3D0029B396891
:1016900078627B60A7E7414E3068002821D003685C
:1016A000012B1ED0426A5568002D1AD04146013BDD
:1016B0000C6803609B009B5801215360FEF726FED7
:1016C000002CE9D021686368994211D2606A4B1CF2
:1016D00023608B001D502000FEF7C4FE30680028F8
:1016E000DDD105B0F0BCBB46B246A946A046F0BD70
:1016F000A368606ACF18B90005F088FB0028CBD03A
:10170000216860626760E2E7AB68686ACE18B10082
:1017100005F07CFB002800D127E7296868626E602D
:101720001CE7686A4B1C2B608B001E502800FEF7DC
:1017300099FE1AE7002A00D16EE750460068194E5C
:10174000029050464568306884467068A84209DCBB
:1017500017D05746BF68B668B94685420CDC08D03A
:10176000B14509D8002000900800FFF7F9FAA168F8
:1017700052E702986045F3D90B48FFF70BFAA168CE
:101780004AE7029FBC45E4D9ECE700231B7DFFDE5E
:101790002C120020D00D00205C12002040120020EE
:1017A00060120020D8020020FCF10010F8B50500FE
:1017B0001B480E0004F066FD1A4804F063FD1A4849
:1017C00004F060FD194804F05DFD194804F05AFD6D
:1017D000184804F057FD184804F054FD174804F069
:1017E00051FD174804F04EFD164804F04BFD164815
:1017F00004F048FD154804F045FD154804F042FD8D
:10180000002D09DD0024134FA3003800F1580134E6
:1018100004F064FEA542F7D10F4804F033FDF8BD93
:1018200060F200107CF2001098F20010D8F2001064
:10183000FCF2001048F3001098F30010ACF3001015
:10184000F8F300100CF4001048F4001058F40010E5
:1018500094F40010A4F4001090F40010F0B5454684
:10186000DE4657464E46E0B50124050089B0012802
:1018700068DDBB4B8A469B4619E043465B78662B86
:101880001DD143469B78002B19D10134AC4200DBBB
:10189000FAE057447F685946380005F0A9FC002853
:1018A00058D10122AF4B1A700134A5424ADD53468C
:1018B000A700DB5998461B7899462D2BDDD0404672
:1018C000A94905F095FC0028DFD04B462D2B4AD1C5
:1018D00043465B786F2B46D143469B78002B42D121
:1018E0000234AC4200DB37E157447B68BF68180024
:1018F000994604F00DFE9D4B019119000090984609
:10190000009A019B0A604B601100194304D14B46B9
:101910001B78302B00D068E13B789946732B4DD172
:101920007B78652B4AD1BB78632B47D1904A002343
:101930000098019904F0A6FA4346013418605960F2
:10194000A542B4DC012009B0F0BCBB46B246A946B2
:10195000A046F0BD3800874905F04AFC002828D190
:10196000804B1870A0E74046834905F041FC0028F1
:10197000B6D04046814905F03BFC0028B0D04B462C
:101980002D2B76D040467E4905F032FC002800D051
:101990008DE00134AC4200DB5CE157447F68704964
:1019A000380005F025FC002878D10122754B1A700B
:1019B0007AE739007448FEF77DFF75E704223800A6
:1019C000724905F087FC00282ED10099019ACB0EB0
:1019D000500118434B0103900293029E039F761A15
:1019E00097413200F10D7E020E4353020493059697
:1019F0000099019A049E059F7618574132003B00DA
:101A0000B10EBE010E43079696010696069E079FED
:101A1000B61A9F410098019932003B0012184B41C1
:101A200041460A604B603FE704223800584905F000
:101A300051FC002802D1FA22920078E704223800F3
:101A4000544905F047FC002800D12DE74B466D2B8B
:101A500059D17B78692B56D1BB786E2B53D1009826
:101A600001990D234C4A04F00DFA43461860596061
:101A70001AE743465B786B2B00D083E743469B789D
:101A8000002B00D185E77DE7D0464448FEF712FFE2
:101A900028004146FFF78AFE002054E73800354908
:101AA00005F0A6FB00283FD1364B1870FCE64B46EC
:101AB0002D2B03D143465B78742B3AD040463849EE
:101AC00005F096FB002838D04B462D2B00D0AEE019
:101AD00043465B78692B00D0A9E043469B78002BF6
:101AE00000D0A4E0631CAB4200DBB9E053460437EE
:101AF00057443A6819682B48FEF798FE3A682A4B13
:101B000002341A60D0E604223800284905F0E2FBCE
:101B1000002857D100980199254B264A04F0B2F9C4
:101B2000434618605960BFE639002348FEF7C2FEFD
:101B3000BAE643469B78002BC0D1631CAB4200DB66
:101B40008BE057447F680234380004F0DBFC002847
:101B500067DD1A4B1860A7E6D046194896E7C046DD
:101B6000C8F400107E120020A8F40010B00200207B
:101B700000CA9A3BD0F40010F8F4001004F50010ED
:101B800088F5001080120020D8F4001048F50010ED
:101B900050F5001058F50010005847F8B0F4001048
:101BA000D8F5001060F60010B802002060F50010B3
:101BB0004603000000A0B830B4F5001080110020EA
:101BC00010F500104B46642B1AD17B78612B17D18E
:101BD000BB78792B14D100980199254B254A04F044
:101BE00051F94346186059605EE64946D04622489E
:101BF000FEF760FE28004146FFF7D8FD0020A2E670
:101C0000042238001D4905F065FB00282BD10098FF
:101C100001991B4B1B4A04F035F943461860596083
:101C200042E619483900FEF745FE012091E740469B
:101C3000164905F0DDFA002800D153E74046144963
:101C400005F0D6FA002800D12EE647461148D046C6
:101C50003900CDE7D046104818E7D0460F4815E7C1
:101C6000D0460F4812E7D04639000E48C0E7C046BC
:101C7000944E000000004F9130F5001068F5001000
:101C80000F260200000029F90CF6001038F60010AB
:101C900084F6001090F6001094F50010E4F50010A2
:101CA00040F6001070F50010002370B5904A28200F
:101CB0001360904A84B0136004F046F9041E18D0F3
:101CC0002C2004F041F96062002800D1FCE00B23D5
:101CD0000122A3600B2322606360874BE360874B84
:101CE0002361874B6361874BA361874BE361874B1C
:101CF0002362874B28201C6004F026F9041E18D0AC
:101D00002C2004F021F96062002800D1EBE00B23C5
:101D10000122A3600B2322606360774BE3607D4B5D
:101D200023617D4B63617D4BA3617D4BE3617D4B03
:101D300023627D4B28201C6004F006F9041E18D095
:101D40002C2004F001F96062002800D1C6E00B23CA
:101D50000122A3600B2322606360744BE3606D4B30
:101D600023616D4B63616D4BA3616D4BE3616D4B03
:101D700023626F4B28201C6004F0E6F8041E18D084
:101D80002C2004F0E1F86062002800D1A1E00B23D0
:101D90000122A3600B2322606360644BE3605D4B10
:101DA00023615D4B63615D4BA3615D4BE3615D4B03
:101DB0002362604B1C6000F0D9FBA021012004F0DD
:101DC000D5F85D4B5D4A0360826500239822C364A9
:101DD000036540608050103A8350020098320266DA
:101DE0000122426667328354554A8362106043621F
:101DF00001220023534C8261C361534A534B026159
:101E00004361200000F0B4FB002856D122686368CB
:101E10004F490868496812184B414E49086849689B
:101E200012184B414C494C680D68A34239DC36D03E
:101E30004A4B4B4E1D605C604A4B4B4A1D605C60D8
:101E40002800002321003560746003F013FA00239A
:101E500000900191444A2800210003F00BFA6846E3
:101E6000029204F0B5FB029A0100404804F036FBF0
:101E70003F4B1A685B68002B0FDB306871681218E3
:101E80004B413C4948680C68984211DC0ED08342B3
:101E900003DC16D0886800280AD104B070BDAA42BD
:101EA000C6D915001C000A604B60C1E79442EED908
:101EB0000A604B6000238B60EFE72F48FEF7FAFCC7
:101EC000A4E7A242E6D9E8E7200004F061F8002484
:101ED0000FE7200004F05CF800246AE7200004F01B
:101EE00057F8002445E7200004F052F8002420E7CA
:101EF0006411002068110020E50300101D0400108B
:101F000029040010310400100D04001035040010E5
:101F10005C12002015040010250400102D04001090
:101F200001040010610400102C120020FD030010B9
:101F3000601200204012002039040010B8F6001092
:101F40008C110020A00200200000FFFFFFFFFF7F98
:101F5000B80D0020C00D0020C80D0020C0020020D8
:101F6000D00D0020D002002000CA9A3BBCF6001021
:101F7000B0020020D802002010EF0010F8B557463C
:101F8000DE464E464546554BE0B518689A4603680E
:101F9000012B00D19EE0524A38259046514A934683
:101FA000514A914614E0002B00D17EE0236860681E
:101FB00098475423E35C002B03D100212000FEF757
:101FC000BDFC00236355534618680368012B46D0B7
:101FD000426A013B546803609B009B580121536097
:101FE000FEF794F902236355636C002BDBDD584642
:101FF00000F0BEFA002861D15A464B46106851687D
:102000001A685B6880185941384B1A685B68121867
:102010004B4137498C4603C98B4237DC01D18242A0
:1020200034D8226C636C002B39DD464677683668FD
:1020300092197B41994202DCB8D19042B6D9E36C47
:10204000002BBED0606898475423E35C002BB4D0CB
:1020500000236355534618680368012BB8D14346E3
:102060001D6859689868234B5A681C689B688A42A7
:102070002EDC2BD0914227DC24D098428041404274
:10208000F0BCBB46B246A946A046F8BD614610006A
:102090000A604B601900226C636C002BC5DC002BBE
:1020A00000D083E7002AC0D180E7236C002B00D149
:1020B0007CE7584600F05CFA00289DD00E48FEF7F9
:1020C000F9FB99E7A542D8D90020D9E7AC42D1D98C
:1020D0000120D5E7024B9846C1E7C0465C120020BC
:1020E000D00D0020A0020020B80D0020C00D00205F
:1020F000C80D0020D802002010EF0010F0B5DE4619
:1021000057464E464546E0B5904B83B01B68002BC2
:1021100000D1D4E01A68012A00D1D0E05B6A5B6884
:10212000002B00D1CBE01C685D68894B1A68A24285
:1021300000D178E00023874E72683068AA420EDC36
:1021400000D1D8E0A446290004001500B768A942D0
:1021500005DC00D1E5E09F4201D364460D007E4BD3
:102160001B78002B00D17BE0794B5A6818689542A8
:1021700060DC01D184425DD8844200D0E3E0954226
:1021800000D0E0E00400150099680131996073689F
:102190003268AB423ADC00D1BFE09D4204DC00D1A2
:1021A000C3E0B3688B4231D86C4B1A689946002A59
:1021B0002CDD38239846373B9B46694B00249A46D2
:1021C000684F02E00134944220DA3968A3005D5878
:1021D000002DF7D04346EB5C002BF3D14346594624
:1021E000E95453461E68002EECD03168736899425A
:1021F00026D2706A4B1C33608B001D503000FEF7F6
:1022000031F94B461A6801349442DEDBFEF7FAFFDF
:10221000FFF744F9FFF7B2FE03B0F0BCBB46B2468D
:10222000A946A046F0BD5A68AA4200D082E79B6842
:10223000013380E7002200211C605D609A60A6E700
:10224000B2680B0094466344706A9900019304F0ED
:10225000DDFD0028D5D0019B316870627360C9E74D
:10226000414F380000F084F9002862D1386879685D
:102270003E4B3F4F1A685B68801859413D4B1A68C6
:102280005B6812184B41386879688B4237DD100063
:1022900019003A607B6022002B00121A8B4110005B
:1022A000191E05DC002B00D05EE7092A00D85BE789
:1022B00000F062F903000120002BADD154E72E4B52
:1022C0001B78002B20D1224A224E11685368926855
:1022D0003468756801329D4206DC31D0B768AB4284
:1022E00016DC2AD0BA4213D217000C001D00316050
:1022F0007360B2600CE0A04200D823E72FE78B4266
:10230000C9D18242C7D9C2E7124EB768346875682E
:1023100001235B429C46194919E7A24200D83CE7D9
:1023200074E7A44500D816E719E7944200D838E7C7
:102330003AE71348FEF7BEFA98E7A142D2D9E7E799
:102340008C42CBD9D0E70F48FEF768FC2C12002056
:10235000D00D0020D80200207E120020881100201D
:102360005C12002084110020A0020020B80D002083
:10237000C80D0020C00D002080120020FFFFFF7F4D
:1023800010EF001020F20010F0B54546DE4657462B
:102390004E46E0B5654B0D001968654B040083B0EF
:1023A0001868FFF75BFA002800D1BCE02900200084
:1023B000FFF754FA002800D1B5E05E4804F09AF81F
:1023C000002800D09AE05C49022004F0E7FEFFF705
:1023D0006BFC0022594C5A49A26001320A705949DB
:1023E000594B096809CB002520606360002908DD8E
:1023F000564B1D68002D03D03823E95C002955D0C9
:1024000029CC53494A680C689A423ADC61D093421D
:1024100005DC934200D175E08B68AB4231D84D4B5F
:102420001A689946002A2CDD38239846373B9B468C
:10243000494B00249A46494F02E00134944220DA85
:102440003968A3005D58002DF7D04346EB5C002BA4
:10245000F3D143465946E95453461E68002EECD04A
:1024600031687368994239D2706A4B1C33608B00B3
:102470001D503000FDF7F6FF4B461A6801349442B8
:10248000DEDBFFF77BFD002807D1002003B0F0BCA6
:10249000BB46B246A946A046F0BDFFF72FFE002876
:1024A000F3D0FFF72BFE0028F7D1EEE7EA542A4BD2
:1024B0001E68002EA4D031687368994226D2706AD3
:1024C0004B1C33608B001D503000FDF7CBFF29CC37
:1024D00097E78442D5D893429BDDA0E7B2680B0012
:1024E00094466344706A9900019304F08FFC0028BD
:1024F000C2D0019B316870627360B6E71848FEF77E
:1025000049FB60E7A04200D886E788E7B368706AB5
:10251000CF18B90004F07AFC002800D170E73168C8
:1025200070627760CCE701204042AFE720120020C4
:102530001C12002045130010E5330010D00D0020C0
:102540007C120020AC020020D00200208C11002060
:10255000D8020020881100205C1200208411002085
:10256000F8F6001010B5FFF70FFF10BD7047C0461A
:10257000012040427047C046012040427047C0469B
:102580000123D0228340120693629361094A83009B
:102590009446402263441968C0004A40C02111405B
:1025A0008022520113431960034B9C46052360446B
:1025B0004360704704C001400040014070B5EFF334
:1025C000108C72B60D4D2B68002BFCD0BFF35F8FC3
:1025D0000724CB08C618C05C01230C40A3401C0094
:1025E0000440034207D103433370BFF35F8F2C6075
:1025F0008CF3108870BD100000F010FF2C0100D08B
:10260000024B18688007C00F7047C04600C00640E4
:102610000021044B044ABFF35F8F02C39342FAD1F7
:102620007047C046000100D0800100D0044A1078F5
:10263000431CDBB2172B00D9102313707047C04620
:10264000E802002083680B4810B584466144624468
:10265000090112019A18591854684B6801209C42CC
:1026600001D802D00020C0B210BD12680B689A4297
:10267000F9D8F7E7FFFFFF0F0A4B1968EFF3108057
:1026800072B60A68002AFCD0BFF35F8F1B68BFF3E5
:102690005F8F00221A6080F3108840BF0020002165
:1026A0007047C04668120020F8B557464E4645466A
:1026B000DE46E0B599460CAB1C780DAB1B780600E6
:1026C00090469A460768002C11D1BC7B002C42D062
:1026D00065003B682D19033D59194B78BB73002BDE
:1026E00000D1FB7300238B704B700B7004E065000E
:1026F0003B682D19033D5919B2682A4B944642464E
:10270000E3181B0163441A604A465A600A9A9A60A9
:102710000B9ADA6000238B704B700B707B7B9B46AF
:10272000002B2BD022005946B8687B6898473A683E
:10273000002816D05B4658465B005B445519033BA6
:10274000A870D118D35C002B00D06B705B460C7066
:102750007B73A34513D0F0BCBB46B246A946A04646
:10276000F8BD5B465B005B44033BD3189C7051197A
:10277000525D002A00D05A705B460B707C73424653
:102780004B46307D00F018FB051E06D05346002B4B
:1027900003D12100306800F055FD0E9B002BDAD0EC
:1027A0001D70D8E7FFFFFF0FF0B5DE464E465746D7
:1027B00045460023E0B58DB00A936B4B8200D35899
:1027C0000B90994600239B464B46079300F06AFA0C
:1027D000079C06000F006268EFF3108572B613685D
:1027E000002BFCD022000794BFF35F8F2468637B2B
:1027F0009946002B67D092685C4B90464B441B0176
:10280000984443461A685B6810001900801BB94160
:1028100000295FDD0B9800F0CFFA002300269846D0
:1028200000279A46079C6368BFF35F8F5A461A6079
:1028300085F310885346002B08D10028C6D10DB06F
:10284000F0BCBB46B246A946A046F0BD0A9B414635
:1028500018024B461843D047089009916268EFF37D
:10286000108572B61368002BFCD00794BFF35F8FFE
:102870000899099A002A48DB114303D0079B1B697A
:10288000002B5DD1079B1B68D97B002907D04A002C
:10289000521819688C4649466244033A51704A46B8
:1028A000DA734B46079A013BD168CA5C0132CA54BD
:1028B0005B46079A13615368BFF35F8F5A461A60ED
:1028C00085F3108882E700230026984600279A4661
:1028D0000020A7E7002901D100289BD1002120007A
:1028E00000F032FC43461E685F689B68079A9A4670
:1028F0004346DB689846D3684B44013B1B780A93F8
:102900001B020343136100208CE72369002BB9D01D
:1029100033003C005B1A94411A002300A74219D8E7
:102920009F421BD0594604910121039149460291CF
:1029300041460191514607980091FFF7B5FEB7E770
:1029400000F0B0F9089A099B06000F0092197B412C
:102950009942E5D901225242D317E3E79642E1D9E1
:1029600001225242D317DDE744120020FFFFFF0F80
:10297000F8B557464E464546DE46E0B5404D8146E1
:102980008A466A68EFF3108872B61368002BFCD091
:10299000BFF35F8F2E68B47B002C39D0670033689B
:1029A0003F19033FDB195A78B273002A00D1F27342
:1029B000A968344A8C464946A21812016244116043
:1029C00051465160304991600021D1609970597031
:1029D0001970737B9B46002B35D022001900B0681C
:1029E000736898473268002820D05B4658465B00E1
:1029F0005B44D719033BB870D118D35C002B00D0CF
:102A00007B705B460C7073735C451DD0002626E01E
:102A10006B68BFF35F8F1C6088F310880120404211
:102A2000F0BCBB46B246A946A046F8BD5B465B007B
:102A30005B44033BD3189C70D119D25D002A00D0AF
:102A40005A705B460B7074734A465346287D00F0FB
:102A5000B3F9061EDAD02100286800F0F3FBEB681A
:102A60001B19013B19786B68BFF35F8F00221A6056
:102A700088F310880020002ED2D108022043CFE72F
:102A8000EC020020FFFFFF0F7926001010B5124C5A
:102A90006368002B04D00A21104800F01BFA10BD17
:102AA00023000F4A1021206800F06CFA032000F088
:102AB000EDF8032000F0F0F903200A4900F036F9A0
:102AC000FFF7B4FD084B9C46032360442375074B76
:102AD00080006060DC60DEE7EC020020681200200D
:102AE00045260010A92700104000003444120020A1
:102AF000F0B504000D0006267642F717C6463619D3
:102B00006F4100B58F4213D810D000F0CBF83200DF
:102B10003B00121A8B41002B14DC002B37D029000C
:102B2000200000F0F3F880BCB846F0BD8642ECD936
:102B30000026002700F0B6F832003B00121A8B4145
:102B4000002BEADD30003900FFF712FF0028E6DB3A
:102B500000239846BC460F4A0F4F7B6A9C4504D819
:102B6000B96A8E42DBD99C45D9D11168EFF3108048
:102B700072B60B68002BFCD0BFF35F8F1368BFF3F6
:102B80005F8F4146196080F3108820BFE5E7002A77
:102B9000C5D0D7E7681200200040054070B5060098
:102BA00000F080F8FA2204000D000023300000211C
:102BB000920003F067F9001969418D4205D802D0EF
:102BC000FFF796FF70BD8442FAD901204042C11739
:102BD000F6E7C046F0B5D6464F464646C0B5EFF3D9
:102BE00005833F22134018001038EFF3108C72B6A3
:102BF000204D2A68002AFCD0BFF35F8F012211000C
:102C000081401D4C884661631C4917000E788A4636
:102C10003100C1400F400A4209D1BFF35F8F2F60DE
:102C20008CF31088E0BCBA46B146A846F0BD144902
:102C30008200646A51588C420FD3124BD2584346DB
:102C40009E4353461E70BFF35F8F00232B608CF3AF
:102C50001088002AE6D09047E4E70B4A9B00904694
:102C600043441A681A60BFF35F8F00232B608CF314
:102C70001088D7E7280100D00040054081120020CD
:102C80006C120020A4110020D03F054010B50100B7
:102C9000024A0348FFF792FC10BDC04678F70010C7
:102CA0007D120020034B596A0A00986A596A8A42C9
:102CB000FAD170470040054070B504000D00124A7B
:102CC000536A1900966A536A8B42FAD13000190090
:102CD00024184D41AB4211D80ED02B000A494A6A44
:102CE0009A42FCD307D1084A02E0516A994202D1C4
:102CF000916AA142F9D370BDA642EED90123012405
:102D00006442E5175B42E9E700400540064A536A22
:102D10009942FCD807D1044B02E05A6A914202D191
:102D20009A6A8242F9D370470040054070B50400AA
:102D30000D00EFF3108672B61A4A1368002BFCD010
:102D4000BFF35F8F002D1BD0200000F0F5FC16496B
:102D500081420AD0200000F0F7FC0121200000F0A1
:102D6000D9FC0123A340114A1360114BA400E55084
:102D7000BFF35F8F00220B4B1A6086F3108870BD83
:102D80000B4BA200D5500122A2400A4920000B782B
:102D900093430B70044900F001FD0021200000F076
:102DA000B9FCE5E7280100D0D52B001038600540BC
:102DB000A411002081120020F0B54F46D6464646A9
:102DC000C0B507002F4C616A0D00A66A616AA9426E
:102DD000FAD18B4208D805D00120E0BCBA46B146F2
:102DE000A846F0BDB242F7D9EFF3108A72B6264872
:102DF00001680029FCD0BFF35F8F0125BD40234946
:102E0000204C8846097889462943C9B28C464146F8
:102E100060460870391D1E48890065630A51B90073
:102E20000B50216A0020294219D0616A0800A66A65
:102E3000616A8142FAD18B4219D801D1B24216D8C7
:102E4000CC451DD00F4B1F201D625D630123074041
:102E5000BB40104A1E38136043464A461A70BFF3FF
:102E60005F8F0022084B1A608AF31088B5E70020B4
:102E7000BFF35F8F0022044B1A608AF31088ACE71F
:102E80000120ECE700400540280100D0811200201D
:102E90006C12002080E200E0EFF3108C72B60A4959
:102EA0000B68002BFCD0BFF35F8F01238340074AE0
:102EB0000748136202789A430270BFF35F8F0023C2
:102EC0000B608CF310887047280100D0004005404B
:102ED00081120020024B9C466144890001607047CA
:102EE0004000003410B50400FFF7A0FB01002000F3
:102EF000FFF7F0FFFF232371BFF35F8F10BDC046C4
:102F000010B50400FFF792FB01002000FFF7E2FF7D
:102F1000FF23A380BFF35F8F10BDC04670B50500CF
:102F200014001600002915D00C00002A12D0806869
:102F30006B689847296800280ED073009B196200BF
:102F4000033B1219CB18033A9C7088188A5C002A3C
:102F500015D10670200070BD63001B197200033B81
:102F60009219CB18033A9E7088188A5C002A02D105
:102F700004703400EEE75A7004703400EAE75A70C7
:102F80000670E7E730B583600023CCB243730133AA
:102F9000047342608373C4730D000068012C06D96A
:102FA000421C0133DBB2137003329C42F9D1FF2182
:102FB00029404B005918002340180338437030BD96
:102FC000F8B5CE46474606000C0080B5002907D06C
:102FD0004D0003686D18033D5A195778002F04D12E
:102FE0002000C0BCB946B046F8BD7900C919033904
:102FF0008846434459788946002159705170736856
:103000003A002100806898473368002814D042466F
:103010009A18947059195B5D002B00D053700F7093
:10302000270049463000FFF7CBFF3900020030008F
:10303000FFF774FF0400D3E7424641465D19AF70C5
:103040009A185B5C002B00D06B701470E9E7C046E7
:10305000F0B557464546DE464E46E0B50D006B00DE
:1030600001685B19DF1E0400C85D83B00192CA19B4
:1030700000284CD043001B18033BCB185E78B446A5
:10308000002E16D1019E002E3ED0E67B002E04D0ED
:1030900073009B19CB18033B5D70E57300282FD19B
:1030A0000023537003B0F0BCBB46B246A946A0460D
:1030B000F0BD72006244033A89184A7890460022B3
:1030C0004A7091465A70010032002000FFF726FF37
:1030D00043468246002B07D05B0021684344033BF4
:1030E000CB185A78002A16D1424651462000FFF7E5
:1030F00015FF2168019BCA19002BC6D10028CFD02B
:1031000043001B18033BCB1800219970C8E7019BB3
:10311000002BBAD1C4E7500080180338091848784A
:10312000834648464870587041462000FFF7F6FE37
:10313000594680462000FFF743FF41460200200029
:10314000FFF7ECFE8046CFE7F0B557464546DE4632
:103150004E46E0B583B00191457B04006B000068EA
:103160005B19DF1EC15DC21900294ED04B005B18F0
:10317000033BC3185E78B446002E18D1019E002E82
:1031800040D0E67B002E04D073009B19C318033B8C
:103190005D70E573002931D10023280053706173FD
:1031A00003B0F0BCBB46B246A946A046F0BD7200D3
:1031B0006244033A80184278904600224270914659
:1031C0005A7020003200FFF7A9FE43468246002BCA
:1031D00007D05B0021684344033BCB185A78002A90
:1031E00017D1424651462000FFF798FE019B01008F
:1031F0002068C219002BC4D10029CDD04B005B1828
:10320000033BC31800209870C6E7019B002BB8D180
:10321000C2E75000801803380918487883464846AA
:103220004870587041462000FFF778FE59468046A6
:103230002000FFF7C5FE414602002000FFF76EFEAA
:103240008046CEE770B5040000292CD0437B8B422A
:103250002ED0056848004018033828188278002AC4
:1032600021D053009B18033BEA5CEE188A4202D13E
:103270001BE0002A08D053009B18033BEB185A7838
:103280008A42F6D142785A7000230122837043703B
:103290002000FFF7DDFE617B02002000FFF73EFE0D
:1032A0006073012000E0002070BD43783370EBE7CD
:1032B00001221900FFF7CCFE60730120F4E7C0463D
:1032C0002C4B2D4A70B51A602C4A2D4B2D491A6093
:1032D00014008B689C43FBD12B4D2C4EB54208D279
:1032E000013E761BB60808CD984723000134B3424F
:1032F000F9D100F0B1F8264A214B1A60214A9368AF
:10330000DB43DB01DD09002BF9D14022214B224CAC
:10331000224E9A675A671A67DA66B44208D223685F
:103320002000002B20D00834FFF7EAFDB442F6D38A
:103330001B4E1C4CC022A168300002F03BFEA66070
:10334000FFF766F900F05EFBFFF7A0FB164C174E87
:10335000B44208D2013E361BB60808CC98472B0071
:1033600001359E42F9D170BD0834FFF7BBFDB44270
:10337000D5D3DDE700E00040BFCDFBFEFE7F3C0083
:1033800000F0004000C00040A00D0020B00D002063
:10339000FFFFFF0100F00140980D0020A00D00206C
:1033A0000000002000ED00E0B00D0020B80D00206E
:1033B000094A03001068002805D00849C3188B4249
:1033C00007D81360704706480449C31810608B4241
:1033D000F7D901204042F5E7341200200000042014
:1033E0008412002000BEFDE710B50C0082B0190069
:1033F000002A09D0064B01920093020023000548E1
:1034000001F078FE00BEFDE7034B1A00F3E7C0466B
:103410009CF70010ACF70010D4F200100FB400B508
:10342000084883B002F02EFF049B002B07D005A9AB
:103430001800019101F07EFE034802F023FF00BE58
:10344000FDE7C046DCF7001090F4001010B501480D
:10345000FFF7E4FFECF7001030B50C2083B000F06C
:1034600037FBFFF7CDF800280ED0944B944A1A6032
:103470005A609A60DA601A615A619A61DA611A6276
:10348000904A5A6203B030BD8F4CA06700F028FB11
:1034900001228E4B1A60636C012BFCD103228C4BF2
:1034A0001A60894A936B012BFCD102240121894ABD
:1034B00089480533009400F0B7FA0523874A0121B3
:1034C0008748009400F0B0FA864B5A68FF2A02D869
:1034D000802252005A608022784C7D4B2169120173
:1034E000804D1A60002905D0606901F09DFE013011
:1034F0000138FDD1E0217B4B02201A681140802267
:1035000052012A43116019684840032101401160AB
:1035100004219A681142FCD08022802192012A4322
:1035200009011160802252005A606F4B23616F4B7A
:103530005968FF2900D85A600321644A6B4B116017
:1035400002399A681142FCD0E0201A6810408022AB
:1035500052011A43106018684840032101400220BC
:10356000116062498A681042FCD0802292011343A4
:10357000802212011A6080225D4B52004A60636112
:103580005C4B5968FF2900D85A6080225A4BE16988
:103590001201584D1A60002905D0606901F044FEFF
:1035A00001300138FDD1E02252490B681A408023D6
:1035B0005B012B431A60802380229B012B43120165
:1035C0001A6080223E4B52004A60E3614B4B5968BF
:1035D000FF2900D85A608022494B216A1201474DC9
:1035E0001A60002905D0606901F01EFE0130013823
:1035F000FDD1E02241490B681A4080235B012B4337
:103600001A60802380229B012B4312011A608023C1
:1036100080225B004B602A4BD2022362394B5968EF
:10362000914200D25A608022374B616A1201354DB7
:103630001A60002905D0606901F0F6FD01300138FB
:10364000FDD1E0222F490B681A4080235B012B43F8
:103650001A60802380229B012B4312011A60802371
:10366000DB024B60174B6362284B5A68FF2A02D873
:10367000802252005A608022254BA1691201234DFD
:103680001A60002905D0606901F0CEFD01300138D3
:10369000FDD1E0221D490B681A4080235B012B43BA
:1036A0001A60802380229B012B4312011A60802321
:1036B0005B004B600E4BA361E4E6C046B4110020F2
:1036C000006CDC021BB70000008000403CB00040F2
:1036D00030B00040002F68590080024000389C1C28
:1036E00000C0024030800040001BB7003C8000401A
:1036F000405973075480004054B00040608000403F
:1037000060B000406C8000406CB0004048800040D9
:1037100048B0004001238340002904D0034A1360CD
:10372000034A13607047034A1360FBE780E200E03E
:1037300000E100E080E100E0024B10309B68800077
:10374000C058704700ED00E070B50D00EFF3108633
:1037500072B60F4A1368002BFCD0BFF35F8F0D4B7E
:1037600010309B6884001B590B4A934203D09D4242
:1037700001D0FFF76BFE074B9B681D51BFF35F8FB6
:10378000BFF35F8F0022024B1A6086F3108870BD72
:10379000240100D000ED00E0CD010010F0B5DE46C0
:1037A00057464E464546E0B50C0083B0EFF3108A0D
:1037B00072B65A4A1368002BFCD0BFF35F8F1022F9
:1037C000914681444A46564B96009B689D59554BFD
:1037D00098469D4205D0A54216D0534FEB1B2F2B88
:1037E00014D94F4B9B689D51BFF35F8FBFF35F8F21
:1037F00000224A4B1A608AF3108803B0F0BCBB4623
:10380000B246A946A046F0BD1D00EAE70123834069
:103810009B465A46454B1B681A4000925A46444BF9
:103820001A60BFF35F8FFCF71EFD0190002803D0E4
:10383000814501D0FFF70AFE01232A009A431300B5
:103840003C49DB1B5B415943090D93689C4208D1FD
:103850005AE043001B189B00FB189868A04211D047
:103860001A00062010560028F3DA009B002B05D022
:103870005A46314B1A602D4B1A60B2E75A462C4B10
:103880001A60AEE706201856002821DB4200111806
:1038900089007C188846A1689960E179D971062170
:1038A0006156997100291FDBA488F91A6405241553
:1038B00044440919E0240905490D24022143998053
:1038C00012181E4B9200BF181A781870BA71CCE704
:1038D000019800280BD1FF30907119489080174A49
:1038E000107811709871C0E7BD210902E7E7154A09
:1038F0001549D21A083A5002400D014399801349E4
:1039000052080A43DA80B0E7062010561300002858
:10391000BCDA019A002AEAD14546E0E7240100D04A
:1039200000ED00E0CD0100101403002000E100E0F4
:1039300080E100E0AAAA000080E200E07F120020FF
:1039400000BDFFFF4E03002000F0FFFF00F8FFFF67
:10395000F8B5012504000543FCF785FCEFF3108C56
:1039600072B6214A1368002BFCD0BFF35F8F1F4E45
:103970002100B7681E4A1F4B891A49414B431B0D52
:1039800059B28300F858A8421CD00623D3568B4264
:103990001CD01223D3568B4222D01E23D3568B42E7
:1039A00020D02A23D35603208B4210D0124B1A78F2
:1039B0001970A271BFF35F8F00220B4B1A608CF35A
:1039C0001088F8BDB2680D48D050EFE700204300E2
:1039D0001B189B00D218FF239371094B9380E5E7D6
:1039E0000120F4E70220F2E7240100D000ED00E01E
:1039F00014030020AAAA00007F120020CD010010AD
:103A000000BDFFFF054B064A1360064A1360536072
:103A10009360D360136153619361704780808080AD
:103A200000E400E004E400E0F0B5C646040000B5A0
:103A30000C2090461F000E0001F0F6FB4101091A10
:103A40008D01691AC90009188901404601F0ECFB93
:103A5000069B3F041A0323681743002B22DB184BF5
:103A6000184DE21853425A4180235B019C461203D1
:103A7000154B62441A60154B1A601100AB689943EC
:103A8000FBD1C022231D92011A4321232660A0608E
:103A900013602368002BFCDA0823E760136080BC06
:103AA000B846F0BD3F2322681340B342D7D1A36884
:103AB0001B051B0D8342D2D1E368002FCFD1EEE767
:103AC0000040FDBF00C0004000E0004000F00040AA
:103AD0008023024A9B000343D36270470080054065
:103AE000AA23064A1B0113602F230549D360054B07
:103AF00019605368002BFCDA7047C0460040024052
:103B000000B0FA00006002409A4200D28854704728
:103B10007047C046F8B557464E464546DE46E0B5C6
:103B200099460A9B07009A460D9B884693461500C6
:103B30000B9E9B0710D10C9B9E420DD29D1B140027
:103B40000E005D4422004B46013431002020B8476E
:103B5000A542F7D1B0460B9E002E27D044467519DA
:103B60005346AA1B013E985D21004B46B847002EE4
:103B7000F6D123002C0098460D9B9B070FD55B4682
:103B8000E51A0C9BAB420AD94646984622004B46A2
:103B9000310020200135B8470134A845F6D820006F
:103BA000F0BCBB46B246A946A046F8BD2C00E3E7F0
:103BB000F0B54F464646D646C0B584B098460EABE3
:103BC0001B78129F994694460D9C109B119EBA0734
:103BD00025D4002E4BD19C4200D3BFE001223A40B5
:103BE00092461F2C00D9B8E00C9A551E302201E0F5
:103BF000202C03D001342A55A342F9D85246002A7A
:103C00000DD0A6420BD9202C44D00C9A551E302240
:103C100001E0202C3ED001342A55B442F9D1FA06F5
:103C20004DD57A053FD4002C39D10F9B102B00D1F4
:103C300079E00F9B022B00D18AE030230C9A0124FB
:103C400013704B46002B3FD02D230C9A1355013493
:103C50000C9B624600930397434602960194FFF73C
:103C600059FF04B0E0BCBA46B146A846F0BD0122F7
:103C700015003D40AA463A422FD04A46002A02D1BA
:103C80000C323A4200D0013E9C42BAD21F2CABD932
:103C9000202E27D92024FA06DAD57A0503D4A342A8
:103CA0002DD0A6422BD00F9B102B32D0022B20D030
:103CB000202CCDD030220C9B1B191A700134202CE3
:103CC000C6D04B46002BBFD17B070DD43B07BFD5D9
:103CD00020230C9A13550134BAE79C429FD21F2C23
:103CE00000D881E720249AE72B230C9A135501343E
:103CF000AEE7202CACD00C9B1B1901343AE0631EBC
:103D0000012C92D00F9A102A2AD0022A2FD01C0000
:103D1000D0E7BB060ED4202C9AD00C9B1A19013484
:103D200078231370C4E7BB060DD478230C9A0124C2
:103D30001370BFE7202C00D18AE758220C9B1B1977
:103D40001A700134B4E758230C9A01241370B1E7B8
:103D50000C9A603301241370ACE7202400265EE740
:103D6000023CBA06E9D40C9A12191C00D8E70C9A46
:103D70009246534462221A709AE7C04610B5002852
:103D800000D110BD02F02EFAFBE7C0460B0010B5C3
:103D9000002802D049681B68984710BDF0B5DE4680
:103DA00057464E464546E0B59BB09B46249B894608
:103DB0009846259B0B900C924046424619009A4625
:103DC00001F00BFD002800D0D8E00122404651460A
:103DD000774B524201F0FCFC002800D0CEE00122DB
:103DE00040465146734B524201F0DCFC002800D0A3
:103DF000C4E0002200234046514601F0D3FC0028D5
:103E000000D0B9E1424653460A9209938023289A8A
:103E1000DB001A400E92289A1A4201D106232693FB
:103E20000A9A099B1600134300D0C7E0289B00257F
:103E300000261B0500D49BE100230D93269A0D9BC1
:103E40009A4200DC9FE1D01A431E26938023289AD1
:103E5000DB001A430023002728920D93279B0024A0
:103E6000BB4200D9DC1B0223289A1A400E92289AE2
:103E7000134203D07B427B415B421C400D9B002BD5
:103E800007D00A9809992A00330001F022FC0A9011
:103E90000991002200234046514601F083FC00288E
:103EA00005D0802000068446099961440991289A2A
:103EB000414B0B9D13400493269B0A9A0293099B46
:103EC00003940092019349465B4628000C9A00F047
:103ED0008BF90400002F62D0289B220098061F2334
:103EE000C0179843631C984649465B466530A8470F
:103EF0000D9B0025DA179C18DB0F9A465440013FB2
:103F000001E0202D13D00AAA94461F232000634409
:103F10000A2101355E1901F087F930313170200036
:103F20000A2101F081F926000400092EE9D80523B1
:103F30000693002304930A330393534605970B9F7C
:103F4000029312AB009342465B4649463800019506
:103F5000FFF72EFE0E9B0400002B20D00C9BC51AF1
:103F6000279BAB421BD91E0022005B4649462020FE
:103F70000135B8470134AE42F6D810E0289B4246DE
:103F80000493279B49460393269B0B980293534621
:103F9000009201935B460C9A00F026F90400200081
:103FA0001BB0F0BCBB46B246A946A046F0BDC04619
:103FB000FFFFEF7FFFFFEFFFFFF7FFFF734B099F4F
:103FC0009C467800400D604401F01AFC704A714B29
:103FD00001F09DFB704A714B01F072FB3B03704A8C
:103FE0001B0B1A4304000D00300011006D4B002222
:103FF00001F05DFB6C4A6D4B01F089FB02000B0088
:104000002000290001F05CFB01F012FC0D9001F092
:10401000F7FB674A674B04000D0001F078FB0022B4
:10402000654B01F04DFB01F003FC644A0600644B54
:104030002000290001F06BFB040030000D000F96FA
:1040400001F0DEFB5F4A604B01F061FB02000B00F8
:104050002000290001F02BFB02000B0006000F00DE
:1040600001F055FB320004000D003B003000390028
:1040700001F026FB002210901191544B20002900E2
:1040800001F027FB0022524B01F01AFB02000B004B
:104090002000290001F01DFB00224E4B01F010FB17
:1040A00002000B002000290001F013FB0D0080210D
:1040B000040032003B000020C90501F0F8FA0200BC
:1040C0000B002000290001F0FBFA02000B00109801
:1040D000119901F0FEFA0022314B01F0F1FA3E4B4A
:1040E0000F9C9C4664440022230501F010FB050050
:1040F0000E0002000B000A98099901F053FB0028FA
:104100000AD00D9B2800013B31000D930022304B5B
:1041100001F0DFFA05000E00C6270D992B00633170
:104120008F42BF4128997F420437090500D495E6A4
:10413000334300D182E6099C284A2100284B0A9883
:1041400001F03EFB002808D000222100254B0A98F0
:1041500001F028FB002800D070E6269B002B00D140
:104160007CE60E9B5A1E9341269AD31A269375E637
:10417000002304270D9371E643460A9380231B0610
:104180005344099342E6002326935FE601FCFFFFB8
:10419000FB799F501344D33FB3C8608B288AC63F36
:1041A0000000F03F0000F83F61436F63A787D23FF4
:1041B00071A379094F930A400000E03F1655B5BB43
:1041C000B16B0240EF39FAFE422EE63F00002C4070
:1041D0000000244000001840FF0300002D431CEBAA
:1041E000E2361A3F80842E41F0B54E46DE465746F1
:1041F0004546E0B597B09946209E219F229B834675
:10420000984607910C923B0032003000390001F0D3
:10421000E4FA002800D0A9E1012230003900CA4B9D
:10422000524201F0BFFA002800D0E1E00122300044
:104230003900C64B524201F0CBFA002800D0B7E05B
:10424000002230003900C24B01F0C2FA002800D031
:1042500099E0002230003900BE4B01F0A3FA00289B
:1042600000D090E0002200233000390001F09AFADB
:10427000002800D0B1E000230D93249B5B0501D4FE
:104280000623984608AB9C4617220024302341465B
:10429000624404E0013413550139202C01D009296E
:1042A000F8D888463000390001F0C2FA4346DA00F7
:1042B000A94B05009B181A685B680892099301F0E6
:1042C0009FFA02000B003000390001F0F0F9089A63
:1042D000099B01F01CFA0A900B9101F0CDFA82467D
:1042E00001F08AFA02000B000A980B9901F0DFF93D
:1042F00000229A4B0A900B9101F06AFA002800D133
:10430000C0E001239C46E244504601F075FA0200E9
:104310000B000898099901F04BFA002802D00023FD
:104320009A4601354346002B6AD008AB17269C46B7
:1043300008956644554614E001235B4243440A2134
:1043400028009A4600F070FF013430313719397077
:1043500028000A2100F068FF092D00D8D0E0D046DF
:104360000500202CE8D10EAB98460323249A134075
:10437000012B00D196E02023249A01930392239AE3
:10438000434602921EE0249B58460493239B0096CA
:104390000197039343460C9A029307994B46FFF704
:1043A000FDFC17B0F0BCBB46B246A946A046F0BD26
:1043B000249B5B070ED40322694B2499019203913D
:1043C00023990291009358464B460C9A0799FFF7A0
:1043D000A1FBE6E70422634BEFE73B00320000203D
:1043E000002101F064F9012306000F000D9344E75A
:1043F000249B0393239B0293042301935A4BE1E7ED
:10440000280001F0FDF902000B003000390001F036
:104410004EF9524B002206000F0001F0C3F90EAB1B
:10442000984600280AD10022300039004B4B01F099
:10443000CFF9002802D1EB0700D50135202C94D00C
:1044400008AA94461723280063440A2101341E1940
:1044500000F0C2FE3031280031700A2100F0BCFEAD
:10446000051EEBD10323249A1340012B1BD0202CD3
:1044700000D180E70D9B002B35D02D224146631CD7
:104480000A5579E700220A980B99344B01F08AF912
:10449000002800D046E75346002B51D101239C460B
:1044A000E2443FE72024239B002BE0D00D9B002B10
:1044B00003D1249A0C33134202D0239B013B239354
:1044C000239BA342D3D908AB9C46172230236244D6
:1044D000202C00D14FE72399013413558C42C6D0CC
:1044E000202CF8D147E7249B5B0724D4249A23008F
:1044F000120700D440E72022414601330A553BE72A
:104500005746089D202C00D12DE72200302140463F
:10451000002F09D00132B154202A00D123E7D34320
:104520001B191B18002BF5D10EAB98462E234146C4
:10453000541C8B5482E72B224146631C0A551BE70F
:10454000DB0700D4EEE6A9E7FFFFEFFFFFFFEF7FF9
:1045500065CDCD4165CDCDC1F0F900100000E03F43
:10456000F8F70010FCF7001008F80010249B0393E4
:10457000239B029303230193004B23E704F80010CD
:10458000F0B5DE464E4657464546E0B59FB01C00A6
:10459000289B91460993C94AC94B8B4608901A60DB
:1045A000002900D118E2002320789A46002800D183
:1045B0001AE226001D005C460AE02A006F1C4B46EA
:1045C000089D2100A8473D0001363078002870D0B2
:1045D0002528F2D110239B46083B9A46043B984677
:1045E000023B00219C46721C107816000300203B01
:1045F000DBB2102B03D8B34F9B00FB589F46030040
:10460000303B092B32D900230A932A2868D0002393
:1046100098462E283ED00300683BDBB2122B1CD8F4
:10462000A94A9B00D3589F46012301321943DBE777
:10463000634601321943D7E7434601321943D3E7B2
:104640005B4601321943CFE7534601321943CBE7AA
:1046500080235B007078194301360300253BDBB2F1
:10466000532BAAD8994A9B00D3589F460027030092
:10467000B800C01901364000C018337830381A002D
:10468000303A0700092AF3D90A9018000023984607
:104690002E28C0D180237078DB0019430300303B03
:1046A000721C092B00D8A1E12A2800D1B2E1160022
:1046B000B1E7A346AA462C00D14503D801235B42AB
:1046C0004B449A464B46524659460020089DA847FF
:1046D00020001FB0F0BCBB46B246A946A046F0BDC4
:1046E000099B40CB0A96002E03DB50780993561C99
:1046F0008DE72838014370420A9009935078561C80
:1047000085E7782800D1DFE1582800D14CE26F28F6
:1047100000D14FE3622801D100F030FC10230A00E1
:104720009A430B92692801D000F0A9FC0A230C934C
:104730004B0500D5D0E10B9A802311009B00194056
:104740008B461A4200D0A1E2802311005B00194081
:104750008A461A4200D0B6E313005B0600D5EDE2AC
:10476000130009991B0601D400F076FC08C91BB29E
:10477000D8171A18424092B209919346DA0F129252
:10478000002B09D1802310220B99DB000B409143B1
:104790000B91002B00D0E4E20B9A6123920600D526
:1047A00041230EA91F228C46DBB262440A3B5F46BE
:1047B0001395A34655460C9CB2460D9316000AE08D
:1047C0003033DBB201357355A74200D2EDE2202D24
:1047D00000D1EAE207002100380000F025FDCBB24D
:1047E0000929EDD90D9A94466344DBB2EAE78023A8
:1047F0009B007078194301362FE77078682800D144
:10480000CDE180230136194327E770786C2800D169
:10481000BFE180235B00194301361EE7462800D123
:104820009BE10722099B0491073393430A9A1900DD
:104830000392424602920CC9089800920193099192
:104840002A004B462100FFF7CFFC01360500BCE6ED
:104850002A006F1C4B46089D21002520A8470136E1
:104860003D00B2E68B0700D4ADE1099B2A009A46D1
:104870006B1C9846534601CB21009A46089F4B4635
:10488000C0B2B8470A9B9C466544012B00D886E21B
:10489000089B4746B04626004C4699463A002300FE
:1048A000013731002020C847AF42F7D1A146534617
:1048B000340046460993013687E6C046814500101C
:1048C0003C12002010F8001054F80010A0F800105E
:1048D000099B04CB9B4643460992002B00D1C6E0BE
:1048E00013789C46002B00D1BDE34346013B099A57
:1048F0000133D0180A9F130001E0834203D05A7895
:104900000133002AF9D1099A0A979B1A0B93802345
:104910000A00DB001A400C92194204D00B9B43455D
:1049200001D943460B9302231A000A400D920B4211
:1049300000D187E16046002800D168E10C9B002B84
:1049400000D10DE1A844C246099B57465B1B98461F
:10495000089BB2462A0026004C46994609E02300EF
:104960003100551CC8474346585D002800D126E158
:104970002A009742F3D1A1463D00340056460D9BD4
:10498000002B00D043E15B46013609931DE6099BED
:104990001A0008CA9246002B48D0212211438B46A8
:1049A0000EA884461F216144099500220F27A446C2
:1049B0000D0002E0202A0CD00B003C001C4020001F
:1049C0003730092C00D807380132A85419090F2BA9
:1049D000F0D86446099D32E0DC4B20780893002330
:1049E0009A46002800D0E4E5002465E64346060028
:1049F0000A9F9800C0180132400080191678030001
:104A000030003038303B0928F3D930009846160082
:104A10000A9700E6099B023604CB9046D2434046F3
:104A2000D2171040804609933078F4E51022080030
:104A3000904311321043834600224905B0D55B46AE
:104A400006930823059343460493102303930023FE
:104A5000029316AB019200932A004B46210008985E
:104A6000FFF7A6F85346050001360993ADE5137824
:104A70009C46002B00D1F7E202235B4237E720235C
:104A800002009A43472A04D180231B0119430223C1
:104A90009843452801D1202319430722099B0491FB
:104AA000073393430A9A19000392424602920CC9B3
:104AB00008980092019309912A004B462100FFF7C4
:104AC0006DF90136050080E510230C930C230A00D4
:104AD0009A430B924B0503D501230B9A9A430B92F1
:104AE000692800D127E6642800D124E60B9A8023A8
:104AF00011009B0019408B461A4200D066E18023CA
:104B000011005B0019408A461A4200D039E21300B6
:104B10005B0600D53CE113001B0600D4A6E2099B0E
:104B200004CB1204120C934609935B46002B00D071
:104B30009AE10B9A1033110099430B91520500D45E
:104B400092E100239A460B9B06930A9B05934346EA
:104B500004930C9B039300230CE12023194360E68C
:104B6000099B0A9A5B1B98464B4691461F00B2462A
:104B70002600089C2A003B003100A047434601352F
:104B8000585D0028F6D14A463400B94656460A9286
:104B9000F5E6C0239B00B078194302365DE5C023DB
:104BA000B0781943023658E50C230A009A431433AF
:104BB0001A43103B0B920C934B058DD496E7A146FC
:104BC00034005646DBE60A9A012A00D853E26B1EEF
:104BD0009F18089BB04626004C4699462A002300A1
:104BE000013531002020C847BD42F7D1A14634002D
:104BF0004646099B3A0001CB210098467D1C4B4656
:104C0000089FC0B2B847434601360993DDE40B9BC9
:104C10000A9AA8469A4200D8B5E694466544ED1A29
:104C2000089B4746B04626004C4699463A0023006A
:104C3000013731002020C847AF42F7D1A1463400E8
:104C40004646A0E60B9A0A99531C914200D814E2FA
:104C50004B199B1A1F00089BB24626004C469946EA
:104C60002A002300013531002020C847BD42F7D17A
:104C70000A9BA14601330B93099B34001B785646CF
:104C80009C466046002800D058E67CE60722099B37
:104C900007339343013294469C4462465F6809920D
:104CA0001A68FB1710931193109811990300534041
:104CB0000E930B007B400F9394460E9A0F9B121A93
:104CC0008B410E920F93FB0F6246129300233A43DF
:104CD0009B463DD00B9A6123920600D541230022CA
:104CE000DBB20EA90A3B8C4692460D9343461F3217
:104CF00062441395159655460E9E0F9FA246904608
:104D00000C9C14930CE03032D2B2434601355A5514
:104D1000BB4500D18AE1202D00D18AE106000F00B9
:104D2000220000233000390000F0C0FAD2B2092A74
:104D3000E9D90D9B9C466244D2B2E6E7FF2309996C
:104D400004C913401A00099117E5C046113B001031
:104D50000B9A1033110099430B915205BAD50023D9
:104D60009A460B9B06930A9B0593434604930C9B20
:104D70000393129B02935346019316AB2A000093B0
:104D800021004B460898FEF713FF013605001CE48E
:104D9000FF22099B02CB11408B460993C5E653467F
:104DA000454609930136FFF710FC56465C46AA4675
:104DB000139DD6E708230C930B910B99642800D020
:104DC00084E60B9B5B0500D586E6B4E40722099BCD
:104DD00007339343013294469C44624609921A6811
:104DE0005B6810009B4613005A46134307D10B9A89
:104DF0001033110099430B91520500D5A1E60B9A8F
:104E00006123920600D541230022DBB20EA90A3BA2
:104E10008C4692460D9343461F3262445F4612957C
:104E2000A34655460400B24690460C9E13930DE0EF
:104E30003032D2B2434601355A550023BB4200D12D
:104E400000E1202D00D100E104000F00320000231A
:104E50002000390000F02AFAD2B2092AE8D90D9BC5
:104E60009C466244D2B2E5E70B9A6123920600D5D4
:104E70004123DBB20EA90A3B1F228C460D9323006F
:104E800062445C461295170055469B46B2460C9EFE
:104E900008E03033DBB201357B55B4420ED3202D10
:104EA0000CD004003100200000F0BEF9CBB209297B
:104EB000EFD90D9A94466344DBB2ECE756465C4664
:104EC000AA46129D3FE6099B1A0008CAD9171392F9
:104ED0005A184A409246DA0F1292002B08D18023CA
:104EE00010220B99DB000B4091430B91002B2BD12F
:104EF0000B9A6123920600D541230EAA1F279446E0
:104F0000DBB20A3B0D9567445D460993A3465446C0
:104F1000B2460C9E08E03033DBB201357B55B4421B
:104F20000ED3202D0CD004003100200000F07CF9BD
:104F3000CBB20929EFD9099A94466344DBB2ECE776
:104F400056465C46AB460D9D0B9B2A0006930A9B7A
:104F500021000593434604930C9B08980393129BEE
:104F6000013602935B46019316AB00934B46FEF766
:104F70001FFE139B05000993FFF727FB02230C93E9
:104F80001AE7099B04CB92461293002A08D180238A
:104F900010220B99DB000B4091430B91002B2BD17E
:104FA0000B9A6123920600D541230EAA1F2794462F
:104FB000DBB20A3B0D9567445D460993A346544610
:104FC000B2460C9E08E03033DBB201357B55B4426B
:104FD0000ED3202D0CD004003100200000F024F965
:104FE000CBB20929EFD9099A94466344DBB2ECE7C6
:104FF00056465C46AB460D9D0B9B2A0006930A9BCA
:1050000021000593434604930C9B089803930023C7
:1050100002935B46019316AB00934B46FEF7C8FD27
:10502000129B050009930136FFF7CFFAB44200D86E
:1050300071E6149B54460E960F97AA469846159E05
:10504000139D8EE6A64200D8FBE6139B5646984673
:10505000AA465C46129D76E508C9D8171A18424040
:105060000991FFF78AFB00230B9350E4099B04CBC3
:105070009346099359E52F00BBE50B9301E6063BE8
:105080000C939AE60EB4012210B585B007AC08CC9B
:1050900001000094524204480394FFF771FA05B0EE
:1050A00010BC08BC03B01847093B00100CB410B585
:1050B00084B006AC08CC0A000094010004480394B4
:1050C000FFF75EFA04B010BC08BC02B01847C04637
:1050D000093B001000B585B00391012102900093B7
:1050E000034813004A4202A9FFF74AFA05B000BD7F
:1050F0008D3D00100FB410B50C4984B006AA08CA43
:105100000C680392002C0BD00092012208485242F6
:1051100002A9A047012004B010BC08BC04B0184785
:10512000180001F0AFF80020F5E7C0463C1200205F
:105130007D3D001010B5094A0300146884B0002CAE
:1051400008D0012200910648524203A9A04701203D
:1051500004B010BD01F096F80020F9E73C120020E1
:105160007D3D001001480421014B184760030020D9
:1051700095510010142310B50100188804331B88C2
:10518000984710BD162310B50100188802331B88FC
:10519000984710BDF8B54746CE4680B50F1E19D0CA
:1051A00014239946043304000025012698464B46F3
:1051B0001888434621681B88984701C4431E9841BC
:1051C000013540420640AF42F1D13000C0BCB94683
:1051D000B046F8BD0126F8E7124A936F9B0815D236
:1051E0009066D166002905D0FFE7FFE7FFE7516F22
:1051F000106F704704B580210906C217514000287E
:1052000000D0C84309F048FE002104BDF0B5146E7B
:10521000556E576F166FFFF7E3FF146655665767B5
:105220001667F0BD000000D0114A936F9B0813D29F
:1052300010665166002905D0FFE7FFE7FFE7516FD1
:10524000106F704704B5002801D00020C04309F05A
:1052500023FE002104BDC046F0B5146E556E576F95
:10526000166FFFF7E5FF1466556657671667F0BDC2
:10527000000000D094464E4A926F9208624601D2D6
:1052800030E0C046F0B54A4EB56F6D08FCD3346EC1
:10529000756E776F366F00F025F89446444A1466B1
:1052A0005566576716676246F0BDC0469446404A49
:1052B000926F9208624601D258E0C046F0B53C4E6B
:1052C000B56F6D08FCD3346E756E776F366F00F076
:1052D0004DF89446364A1466556657671667624617
:1052E000F0BDC046002B24DB11D000293EDA00B50A
:1052F000C943404200D1013100F038F8C94340426F
:1053000000D10131DB43524200D1013300BD002AFC
:10531000EBD1002801D1002905D00020C90FC90711
:1053200001D1C043410800B509F0A6FD00220023C9
:1053300000BD00B500290ADBDB43524200D1013336
:1053400000F014F8C943404200D1013100BDC94307
:10535000404200D10131DB43524200D1013300F021
:1053600005F8DB43524200D1013300BD002923D1AF
:10537000002B18D1002A0CD0BC460D4F38667A6637
:1053800000210023FFE7FFE7FFE77A6F386F6746EA
:105390007047002801D00748010000B509F06CFDF6
:1053A0000022002300BD02000B00002000217047F6
:1053B000000000D0FFFFFFFF002B00D0BFE0130C68
:1053C00028D1002AE7D080B4114F39667A66FFE70A
:1053D000FFE730B4040C7B6F396F1B0423433B663B
:1053E0007A66FFE7FFE7FFE7C04684B27B6F3D6F59
:1053F0001B0423433B667A66FFE7FFE7C0460023B2
:105400002C042D0C7A6F386F00196941B0BC7047BD
:10541000000000D0F0B594460025140E01D1120210
:105420000835140F01D112010435940F01D19200F7
:105430000235D40F01D152000135D40B0134254F70
:105440007C66254C3C660E0C93B2FFE7FFE7FFE756
:105450003C6F6643360C7703BE467343DF0B5B0439
:10546000C01AB941130C7343DB18C91ACE0866433E
:10547000360CB64493B273431F0F1B01C01AB941D7
:10548000130C73431F0B1B05C01AB941860D8F0205
:105490003E436643360C092D24DB520A7243801AC0
:1054A0007703460A6643360C16235B1BDE40DF405B
:1054B000BF1964466643821B7046043506330100FB
:1054C000D940A840C01900D30131A24206D200231E
:1054D000F0BD0000000000D0FFFFFFFF121B0130F5
:1054E000F3D3F1E709277F1BFE406446A2B2724363
:1054F000801A00D20139220C7243130C1204821A52
:1055000099410B007046043513370100F940A8405B
:10551000801900D30131002B02D1A2420AD2F0BD82
:10552000013000D30131121BFAD2013BF8D1A24263
:1055300000D2F0BD013000D30131121BF7E7F0B506
:105540001C0C00D080E00CB400251C0A04D11B0206
:10555000160E3343120208351C0B04D11B01160F23
:105560003343120104359C0B04D19B00960F334347
:1055700092000235DC0B02D192185B4101351C0010
:10558000971864410134464F7C66464C3C660E0CCD
:10559000FFE7FFE7FFE7C0463C6F6643360C770343
:1055A000BE4697B27743C01B00D20139C01B00D260
:1055B00001399FB27743C91BC91B170C77437E047F
:1055C000FF0B801BB941CE086643360C0C2D33DB34
:1055D000B644120B1F053A431B0B97B27743C01B0F
:1055E00000D201399FB27743C91B170C77433E04A1
:1055F0003F0C801BB941860D8F023E43664329272D
:105600007F1BFE400C3D7746AF40BF1930BCA2B2B5
:10561000ABB272437343801A9941220C7243130C4C
:105620001204801A994102000B000137001BA941A6
:10563000F9D2781E0021F0BD0C277F1BFE40774673
:105640007F0BAF40FF19E0E700245D1C07D0144F2B
:105650007D663966FFE7FFE7FFE7FFE73C6F95B23E
:105660009EB265436643401BB141150C1E0C654359
:10567000664336042F0C3E432D04401BB141994232
:1056800004D202000B0020000021F0BD01D19042A5
:10569000F7D3801A994101349942F2D3F6E700001A
:1056A000000000D0FFFFFFFF48404140484018B4D1
:1056B0001B4B5B68FC46019308BD04DF5759001083
:1056C00018B4174B1B68FC46019308BD00DF6159F5
:1056D00000109446134A926F920809D2624618B499
:1056E0000F4BDB68FC46019308BD0CDF195C001012
:1056F0000C4AF0B5146E556E576F166F6246FFF781
:10570000EEFF084A1466556657671667F0BD18B471
:10571000034B9B68FC46019308BD08DFBD5A00108F
:10572000E00E0020000000D0FFB550404240504045
:1057300059404B40594000E0FFB5154F4C00640DF7
:1057400003D0BC4204D10C0314D80020090D090574
:105750005C00640D03D0BC4204D11C030AD80022B3
:105760001B0D1B0501264B4009D44B4003D58B4232
:1057700000D18242FFBD9942FCD19042FFBD0B4354
:10578000DB1803431343F5D0C9434918FFBD00009C
:10579000FF07000000B5FFF7CFFF01D0002000BDDC
:1057A000012000BD00B5FFF7C7FF804100BDC04626
:1057B00000B5FFF7C1FF01D9002000BD012000BDE9
:1057C00000B5FFF7B1FF01D9002000BD012000BDE9
:1057D00000B5FFF7A9FF804100BD012040054A0048
:1057E000121804D85A00121801D80020704701205E
:1057F00070470020704700000021002805D1704745
:10580000C1174840401AFAD0C90713B5064B1B68A8
:1058100098470CBC441CA2401005120B0349091BFD
:1058200009051943114310BD641200201F04000034
:1058300010B54C00620D8023D218DB00D21A5B0534
:105840007E2A10DD9E3A13DACC1709034908194362
:105850005242D140640001341532202A05DAD0408A
:105860000843604310BD002010BD0846604310BDD2
:10587000C80FC018013810BD18B4044B5B6AFC4651
:10588000019308BD24DFC95D00100000E00E002078
:10589000132370B51D78012D15D010DD1C48FFF7BE
:1058A00071FC1C4C01008022200000F083FB022DC3
:1058B00006D01948FFF75EFC184B186070BD154CF8
:1058C000174BA364F5E7164B124C23606360A3608B
:1058D000E36023616361A361E36123626362A362A6
:1058E000E36223636363A363E36323646364A36486
:1058F000E36423656365A365E36523666366A36666
:10590000E36623676367A367E367A364D1E7C046E1
:1059100053440000E00E00204C33000064120020CD
:105920002559001007B5604601880A0A0230DF2AAF
:10593000FAD1C9B2820804D3028840880004104317
:1059400000E00068014A5050039007BDE00E0020BF
:105950000FB403BC0CBCF0B50124E407634000E0C5
:10596000F0B50C0DCF0F661E3605891B640503D3F9
:10597000C943404200D30131640D03D0661CF60ACE
:1059800007D0E41B00207F00791C89078912803C26
:1059900024031D0DDF0F6E1E36059B1B6D0503D303
:1059A000DB43524200D301336D0D03D06E1CF60A67
:1059B00007D0ED1B00227F007B1C9B079B12803DC4
:1059C0002D032F1B661B58D4A446202E46DA203701
:1059D0001400BC401D00BD40F24033412A438018F2
:1059E0005941CB0F05D0C943C04300226442504106
:1059F000514162464D0D28D10D0D07D100281FD011
:105A0000241940414941013A0D0DF9D0640006D3F3
:105A1000013000D30131002C01D140084000013A8F
:105A20000BD4941CE40A04D112051144DB07194479
:105A3000F0BDD907204B194300E0D9070020F0BD85
:105A40000029DDD1002CDBD1F0BD0132C6074008B2
:105A5000CD0728434908002EE1D0D9E73C2E29DAAA
:105A6000203E40371400BC4000D00124F2401443D3
:105A70001A00BB401C43D317ACE7AC46202F08DA12
:105A800020360400B4400D00B540F84039412843A9
:105A9000A5E73C2F0CDA203F40360400B44000D08C
:105AA0000124F84004430800B1400C43C117EAE761
:105AB00010001900002494E70000F07FF0B50C0DF1
:105AC000661E3605891BE60A6405640D02D0651C56
:105AD000ED0A04D0002001210905803C2403A446DE
