:020000041000EA
:1000000000B5324B212058609868022188439860DF
:10001000D860186158612E4B002199600221596106
:100020000121F02299502B49196001219960352056
:1000300000F044F80222904214D00621196600F024
:1000400034F8196E01211966002018661A6600F04E
:100050002CF8196E196E196E052000F02FF8012189
:100060000842F9D1002199601B49196000215960AB
:100070001A491B48016001219960EB211966A021F2
:10008000196600F012F800219960164914480160C1
:100090000121996001BC002800D000471248134993
:1000A000086003C880F30888084703B5996A0420EC
:1000B0000142FBD001200142F8D103BD02B5186610
:1000C0001866FFF7F2FF186E186E02BD00000240BE
:1000D000000000180000070000035F00212200005C
:1000E000F4000018222000A00001001008ED00E03C
:1000F00000000000000000000000000074B24E7A12
:1001000000200420F7010010C3010010C5010010F9
:10011000C1010010C1010010C1010010C101001097
:10012000C1010010C1010010C1010010C701001081
:10013000C1010010C1010010C9010010CB01001065
:10014000CD010010CD010010CD010010CD01001037
:10015000CD010010CD010010CD010010CD01001027
:10016000CD010010CD010010CD010010CD01001017
:10017000CD010010CD010010CD010010CD01001007
:10018000CD010010CD010010CD010010CD010010F7
:10019000CD010010CD010010CD010010CD010010E7
:1001A000CD010010CD010010CD010010CD010010D7
:1001B000CD010010CD010010CD010010CD010010C7
:1001C00000BE00BE00BE00BE00BE00BE00F04BF888
:1001D000103800BEF2EB8871180D0110440D0110AB
:1001E0003402001090A31AE700202149086006C8D5
:1001F00081F3088810471F48006800282FD10DA4FC
:100200000ECC002902D000F012F8F9E71A491B4A77
:10021000002000E001C19142FCD1194988471949E9
:1002200088471949884700BEFDE701C901C29A42C3
:10023000FBD37047440D0110C0000020C80C002003
:100240004C19011000000420000004204C1901107A
:1002500000100420001004200000000070470B482C
:1002600005F034FB0047EFF30580C0B27047000093
:1002700008ED00E0000000D0C80C00208411002030
:1002800091370010B9260010B938001057560000F9
:1002900006005250ABB360534C010110060052509F
:1002A000861C03025C010110060052505422A29DDC
:1002B0006001011005005250DE65F4684C19011010
:1002C000F8B5C046054B0648033310B51B1A062B7C
:1002D00003D9044B002B00D0984710BDC80C002058
:1002E000C80C0020000000000648074910B5091A94
:1002F0008910CB0F5918491003D0044B002B00D0A4
:10030000984710BDC80C0020C80C00200000000059
:1003100010B5074C2378002B09D1FFF7D3FF054B0D
:10032000002B02D0044800E000BF0123237010BD61
:10033000F00D00200000000000F60010094B10B581
:10034000002B03D00849094800E000BF08480368B3
:10035000002B02D1FFF7C8FF10BD064B002BF9D0D0
:100360009847F7E700000000F40D002000F60010A9
:10037000C80C0020000000008B00F0B545469846F0
:1003800057464E46DE46424604008946E0B59A4648
:10039000436A83B09B5801931800236998474B46E2
:1003A00006000F005D08012B12D820E0414652469E
:1003B000636A59589950636A49469858A36998479F
:1003C000A9466B08012D13D91D004B469B009A4688
:1003D000E3689B46AB0098464246636A9858236997
:1003E000984732003B00D8470028DFD1D0464D4621
:1003F00041460198626A5050A36929009847280035
:1004000003B03CBC90469946A246AB46F0BDC04600
:10041000F0B5DE464F4646460500C0B5436A8E003D
:100420009B5984B0180099462B690C0098472B689B
:10043000009001916700A346BB4220D97C1C9C42DE
:1004400029D33C1E3FD06B6AA60098592B69EF68F0
:10045000984702000B0000980199B847002832D055
:100460005B466A6A9B0091596700D1506A6A594697
:10047000D058AB6998472B68A3469F42DED34846C5
:100480006A6A21009051AB69984704B01CBC904641
:100490009946A346F0BDBB00984642466B6AEE689B
:1004A00098582B6998476B6A0290039143445868A7
:1004B0002B69984702000B0002980399B047002867
:1004C000BFD0002CBFD15B465C469E00D7E7C0463C
:1004D00010B504000120994201D801D0002010BDC0
:1004E0009442FCD8FAE7C046002070478B688068C9
:1004F000C01A434258417047401A41424841704730
:10050000416800687047C046416900697047C0464D
:10051000C0687047006A7047C160704701627047E9
:100520007047C04670B5D025802406F007FB2D0625
:100530001920A40402F0F8F86C62FA206C61400003
:1005400002F0B4FCFA20AC61400002F0AFFCF4E72A
:100550007047C046F0B54F464646D646C0B51E0069
:1005600013008EB005001700334300D1A3E0002E26
:1005700047DA02225E4906F0B1F80123022701267C
:1005800099466C4601357F427642FA22F300E31821
:10059000186859689200002305F018FA98465549E2
:1005A0002800924605F03AF94346002B00DC74E03F
:1005B00003239C460335E144002E1BDDFB00E418B9
:1005C0004D4B3E00984620686168FA220023920055
:1005D00005F0FCF9013E2800414605F01FF9731CA7
:1005E0000435083C002BEEDCFB43DB171F40BF004B
:1005F0000437B94448460EB01CBC90469946A24602
:10060000F0BD0092FA2200239200380031000196DA
:1006100005F0DCF90B006C4603435CD0A060E160A0
:100620000023364A3800310005F0D0F90B000343AF
:1006300053D0206161610023314A3800310005F058
:10064000C5F90B0003434AD0A061E161E8232D4ABC
:100650003800310005F0BAF90B00034341D02062A5
:100660006162294B294A3800310005F0AFF90B00CF
:10067000034338D0A062E162254B264A380031009E
:1006800005F0A4F90B0003432FD007272063616313
:1006900000237E1E9946023F77E7002B12D0434687
:1006A000002B03DC12D15346092B0FD902239C46A1
:1006B0000235E14480E70222174906F00FF80123D2
:1006C000994697E75346632BEDD971E701239C4682
:1006D0000135E14470E70127DAE70227D8E703276D
:1006E000D6E70427D4E70527D2E70627D0E7C04698
:1006F000F4F70010F8F7001000F8001040420F0067
:1007000000CA9A3B0010A5D47E8D03000080C6A4C9
:10071000B3B6E00D000064A750010110F0B54746E4
:10072000CE4680B51F00284B83B01B6880460D0065
:100730001600022B2BDB0A9A934204DA03B00CBC9E
:1007400090469946F0BD280007F09AF90400300061
:1007500007F096F92023994620188144213005F0AE
:1007600087FF1A4B04001B68002B1DDB01960095C8
:10077000174A494605F066F8164B1B68002B08D04F
:10078000390020009847200005F096FFD6E70223A5
:10079000D1E74346002B0ED00F4B3A001B682100D7
:1007A000D86809F045F9EEE700962B000B4A494658
:1007B00005F048F8E0E7084B3A001B68210098680C
:1007C00009F036F9DFE7C046C8020020A802002081
:1007D00094F60010400F0020980300208CF60010C3
:1007E0000FB4F0B585B00AAC40CC3000039407F0EC
:1007F00047F90700213005F03BFF154B20371B68F8
:100800000500002B1DDB134A019600923900124AA5
:1008100005F018F8114B1B68002B0AD021002800A6
:100820009847280005F048FF05B0F0BC08BC04B0AC
:1008300018470B4B22001B682900986809F0F8F84C
:10084000EFE70096034B074A390004F0FBFFE1E7AE
:10085000A802002090FC001094F60010400F002029
:10086000980300208CF600100FB4F0B585B00AACE8
:1008700040CC3000039407F003F90700283005F05E
:10088000F7FE154B27371B680500002B1DDB134AAD
:10089000019600923900124A04F0D4FF114B1B68F4
:1008A000002B0AD0210028009847280005F004FFFB
:1008B00005B0F0BC08BC04B018470B4B22001B6805
:1008C0002900D86809F0B4F8EFE70096034B074A0F
:1008D000390004F0B7FFE1E7A802002038F7001064
:1008E00094F60010400F0020980300208CF60010B2
:1008F000F0B5DE4657464E464546E0B5826A87B0BB
:100900000591002A00D1A0E00023994683464F4676
:100910004E46049338339A46049B5946C86A9B0056
:1009200003931900C3581B78002B47D05B46586BC4
:100930000B0041585846006BC358002B3EDD002287
:1009400000910192009A12689046002A2CD05268B9
:10095000002A29DD002511E0002E04D05346F35C67
:10096000002B00D18CE05346E35C002B00D173E0F8
:10097000434600265A680135954211DA4146096816
:10098000AB005C58002CF6D0B442F4D00137012FF4
:10099000E2D1636A9B45DFD1013526009542EDDB4C
:1009A0005B46039A1B6B9B58019A009901320431F4
:1009B000019200919A42C5DB5B469A6A049B01331F
:1009C00004939342A9D3B346002E3ED0736C002B00
:1009D00000DC9BE05C4C200001F076FE002800D09B
:1009E000A2E0226863685949594C08684968801830
:1009F0005941584B1A685B6812184B41616820686E
:100A00008B4200DC7BE010001900226063605C46D2
:100A1000514B656C246C1A685B6812196B419942E2
:100A200000DD88E000D183E05B4658681B6898478A
:100A300054235A46D35C002B03D105995846FFF73F
:100A400057FF002248235946CA5407B03CBC904681
:100A50009946A246AB46F0BD01235246A3543F4BF4
:100A60001E68002E48D031687368994220D2706A9F
:100A70004B1C33608B001C503000FFF77DFC77E788
:100A800052460133B354354B1B689946002B00D1B5
:100A900069E719685B6899421AD24B46586A4A4618
:100AA0004B1C13608B001E504846FFF765FC5AE74D
:100AB000B368706A994689444B46990006F0E0FC99
:100AC000002800D154E74B46706273603168CFE76D
:100AD0004A4692680B0094464A4663449900506A1D
:100AE000029306F0CDFC002800D13CE74A46029B69
:100AF000506253601168D2E743465A683BE78B4225
:100B000000D084E7824200D97DE780E7002B00D047
:100B10008AE7336C002B00D186E70B4C200001F0F4
:100B2000D3FD002800D15CE70D48FFF79DFE58E794
:100B3000904200D878E75B46DB6C002B00D180E761
:100B40005A46506873E7C046A0020020C80C002037
:100B5000D80C0020D00C0020E00C0020700F0020EA
:100B600090F700100FB4F0B585B00AAC40CC30005F
:100B7000039406F085FF07002A3005F079FD154B38
:100B800029371B680500002B1DDB134A01960092D4
:100B90003900124A04F056FE114B1B68002B0AD094
:100BA000210028009847280005F086FD05B0F0BC1C
:100BB00008BC04B018470B4B22001B682900D868FA
:100BC00008F036FFEFE70096034B074A390004F0C0
:100BD00039FEE1E7A802002064FE001094F6001040
:100BE000400F0020980300208CF600100FB4002165
:100BF00000B585B006AB04CB0120009103490393F7
:100C0000FFF78CFD012002F057FEC04640F70010B0
:100C1000F0B54F46D64646460400C0B58946151E77
:100C200042DB00280BD13CE06D002A004946200041
:100C3000FFF7EEFF804600282DD1013534D423681C
:100C4000AB422ED9626AAB009B589846002B28D045
:100C5000E36840469A462369984723690600484658
:100C60000F00984702000B0030003900D0470028E1
:100C700017D12369404698472369060048460F006C
:100C800098478642D0D18F42CED149464046E3694B
:100C900098470028C8D040461CBC90469946A246BA
:100CA000F0BD00239846F6E70148FFF79FFFC046D6
:100CB00050F70010F8B54E46DE46574645465B4BAA
:100CC000E0B51868994600284ADD594B002598463A
:100CD000584B00249A46584B9B4603E001340C3590
:100CE00084423DDA43461B685B195A681178012932
:100CF000F4D1197A002901D0002111701B681E68F7
:100D0000002EEBD0F768002F00D184E0013FF760A0
:100D1000002F1FD13068002806D0484A1368013BD5
:100D2000136005F0C9FC3760337C002B12D0444BB4
:100D3000444A1B68934200DD74E05A46126801334E
:100D400072615A4616603E4A1360534652461B680B
:100D5000013B13604B46186801340C358442C1DBFB
:100D6000394F3C68002C36D0384B9A46344B994664
:100D7000304B984624E0013DE560002D1DD12068F0
:100D8000002806D02D4A1368013B136005F094FC3F
:100D90002560237C002B10D04B462A4A1B689342C7
:100DA00035DC254A0133116814604A4661611360DD
:100DB000434642461B68013B13603E60341E0AD026
:100DC000E5686669002DD6D121005046FFF7CAFEBE
:100DD000341E3E60F4D11E4C1E4A1F4B216812681F
:100DE0001B68914202DD11001C4B1B68002906DDC7
:100DF00000208900591804CB10708B42FBD10023CE
:100E000023603CBC90469946A246AB46F8BD200004
:100E100005F052FCCCE70D483100FFF7A3FE4B462E
:100E200018685BE7300005F047FC8EE79C0E002059
:100E3000980E00206C0E0020900E0020680E0020FE
:100E4000940E0020FF010000800E002058F60010D4
:100E5000780E00207C0E0020740E0020700E002002
:100E600030B589B0FFF726FF424C2368002B1BD01A
:100E70001968012918D001393F48FFF773FE23682C
:100E8000002B00D169E01A68012A00D165E05B6A95
:100E90003A4D5B68286869681A685B68121A8B416A
:100EA0003748FFF75FFE00E0344D364C2368002BD7
:100EB00006DD3548FFF756FE21683448FFF752FE3D
:100EC000334C2368002B06DD3248FFF74BFE2168C8
:100ED0003148FFF747FE28686968304B1A685B683D
:100EE000121A8B41002B30DB6846FFF733FB694653
:100EF0002B4805F017FE2B4C6368002B27DD2A4D8D
:100F0000280001F0E1FB002830D128686968274BF0
:100F1000274D1A685B6880185941264B1A685B6830
:100F2000801859412A686B6899421ADD02000B004B
:100F30002860696020686168121A8B416846FFF773
:100F400009FB69461C4805F0EDFD09B030BD002BDA
:100F5000FBD12368002BD2D1F7E700231A685B6826
:100F6000FFDE9942E6D19042E0D8E3E71348FFF76D
:100F70007BFCCAE7780F002098FA0010D00200200E
:100F8000DCFA0010680E002020FB001054FB00105B
:100F90006C0E002074FB0010A4FB0010E00C00207D
:100FA000C4FB0010C0020020A0020020C80C0020DA
:100FB000D80C0020D00C0020F0FB001090F700109F
:100FC000F0B54E46DE4657464546E0B5C64B89B0BD
:100FD00018689946002800D140E10368012B00D130
:100FE0003CE1436A5B68002B00D137E1BF4A1968D6
:100FF00093461268914242D030E1AF69002F10D081
:10100000BB4B1C68002C0CD021686368994200D34C
:1010100082E1606A4B1C23608B001F502000FFF7A9
:10102000ABF900230024AB602B606C60EB602B619C
:101030002B75AB61AF4B1C68002C0CD0216863682A
:10104000994200D3EAE0606A4B1C23608B001D507C
:101050002000FFF791F94B461868002800D1FDE009
:101060000368012B00D1F9E0436A5B68002B00D1D3
:10107000F4E05A4619681268914200D0EEE05A46F0
:101080005B685268934200D0E8E00368012B00D10E
:10109000D1E0426A013B556803609B009B580121E7
:1010A0005360FFF7B5F92B7D002BA6D1AC682B69F7
:1010B000626804932100002A29DD382300269A461D
:1010C000200002E00136964220DA0468B3001F597E
:1010D0005346FB5C002BF5D153460122FA54864B54
:1010E0001C68002C0DD021686368994200D3A5E0EC
:1010F000606A4B1C23608B001F502000FFF73CF9F7
:10110000A8684268013601009642DEDB0400342301
:101110000122E254237A002B1FD0A269E3690292D4
:101120000393002B03DC18D1029B002B15D05B46E8
:101130001E685F68714B1A685B68BB4200DD00E1A6
:1011400000D17EE1594688686C4989689F4200DC7D
:10115000EFE06B48FFF706FDA968664B98460C6AFE
:101160002B699C422AD0002C28D00123E6682374E6
:10117000731CE360002B00D15DE1E660002E1DD101
:101180002068002809D05F4A1368013B136005F00E
:1011900093FA237C2660002B0FD05B4A5B491368CF
:1011A0008B4200DDA3E15A49013308681360606196
:1011B0000C60584A1368013B1360A968049A0A62DC
:1011C000002A01D00023137401223423AF69CA54CA
:1011D000002F10D0464B1C68002C0CD0216863688F
:1011E000994200D373E0606A4B1C23608B001F5050
:1011F0002000FFF7C1F800230024AB602B606C6077
:10120000EB602B612B75AB6143461C68002C00D151
:1012100021E721686368994200D214E7A368606AF5
:10122000CE18B10006F02CF9002800D113E7606257
:101230006660216808E700231B7DFFDEA368606A03
:10124000984688444346990006F01AF9002800D1D0
:1012500056E743466062636021684AE7244E30687F
:10126000002821D00368012B1ED0426A5568002D4A
:101270001AD04946013B0C6803609B009B58012132
:101280005360FFF7C5F8002CE9D0216863689942E4
:1012900011D2606A4B1C23608B001D502000FFF7A9
:1012A0006BF830680028DDD109B03CBC9046994607
:1012B000A246AB46F0BDA368606ACF18B90006F03D
:1012C000DFF80028CBD0606267602168E2E7A3689E
:1012D000606ACE18B10006F0D3F8002800D18AE782
:1012E0006062666021687FE7780F0020E00C0020D4
:1012F0006C0F0020680F0020700F0020D802002023
:1013000014F70010680E0020940E0020FF0100006A
:10131000900E00206C0E0020A368606ACE18B10009
:1013200006F0AEF8002800D17BE6606266602168B6
:1013300070E69F4202D1964200D90AE7884200D95E
:1013400007E7C74B18689846002800D1A6E1036854
:10135000012B00D1A2E1426A013B516803608A4639
:101360009B009B5801215360FFF752F85346002B16
:1013700000D193E1002352469361136124239460CA
:10138000E35C002B00D0B6E0029A039BB6185F41E5
:101390005B4618685968B94200DDECE000D1E7E02F
:1013A000E369002B58DA53461E605F604B4601220A
:1013B00051461868FFF72CFC002861D08269002A8A
:1013C00000D1C9E1022101E001001A009369481C23
:1013D000002BF9D1A34B18685B68BB4200DD6CE1C0
:1013E00000D167E19F4CA4689F4205DC01D1864291
:1013F00002D88C4200D360E15246002300241360DF
:1014000054609360D36013611375936143461C6805
:10141000002C6AD021686368994200D29DE0A368DD
:10142000606ACE18B10006F02BF800285DD060622B
:101430006660216892E021008B48FFF793FBA96862
:10144000BCE6B24200D97CE759468868854989687C
:101450009F4200DD7DE66CE7237A002B10D1A36A62
:101460000593002B0CD01A685B68029803998018CA
:10147000594106920793029003918F4200DC87E066
:101480005B4618685968B94200DDDBE000D1D6E060
:1014900053461E605F60734B5B68BB42ACDB00D1A0
:1014A00002E15346A3624B461C68002C16D021680B
:1014B0006368994241D3A368606ACE18B10005F011
:1014C000DFFF00280AD05246216860624B1C23606F
:1014D0008B0066601A502000FEF74EFF634A1368C7
:1014E00001331360002B00DA9AE0A96837E6200088
:1014F00005F0E2F85DE65E4E300001F0E5F8002808
:1015000000D098E0306871685A4B1A685B688018A0
:101510005941594B1A685B6812184B4157490E687C
:101520004F68BB4200DC7FE016001F000A604B6082
:10153000029A039BB6185F4132E75246606A4B1C21
:1015400023608B001A502000FEF716FF474A1368ED
:1015500001331360002BC8DA62E0606A52464B1C0C
:1015600023608B001A502000FEF706FFA968F6E5FD
:10157000B04200D814E702000B0000900191921BCA
:10158000BB413F48FFF7EEFA5B461E685F6807E71E
:101590008F4202D1864200D972E72C21615C012979
:1015A00000D129E7022900D08BE05B461868596812
:1015B000069A079B8B4200DC8CE0059B1C69002C83
:1015C00024D0E668002E00D1CCE0013EE660002E7B
:1015D0001CD12068002806D02A4A1368013B1360FA
:1015E00005F06AF82660237C002B0FD0264A274995
:1015F00013688B4200DDBAE02549013308681360A7
:1016000060610C60234A1368013B13600023059A54
:101610005046136100210022016042605246F0E60C
:101620000123A96813609AE5BB4200D080E7B2426B
:1016300000D979E77CE71848FFF716F962E7B0426E
:1016400000D825E702000B0000900191921BBB41DE
:101650000B48FFF709F95B461E685F6818E7C0464C
:10166000680F0020D802002058F600109C020020CD
:10167000A0020020C80C0020D00C0020D80C0020B4
:10168000A8F60010680E0020940E0020FF01000054
:10169000900E00206C0E002090F7001020210120F9
:1016A00004F0F8FF824665E6334B1B68B34200D373
:1016B000F7E6A1E6B04200D894E65346A9689361E4
:1016C0004DE55B4618685968069B83421CD0029E14
:1016D000039FD8E68B4202D1824200D96DE7069B78
:1016E0008342F4D1079B8B42F1D14B4601220599ED
:1016F0001868FFF78DFA002800D05EE7029E039F6E
:101700005B4618685968BEE6079B8B42DFD14B46A3
:10171000012205991868FFF77BFA0028EED0059B97
:101720001C685A68144B18685B6893420FDC16D02B
:101730005946114E8968B6689A4200DD5CE602D1CE
:10174000844200D958E60131B14200D954E65246EC
:10175000059BA9689A6102E5020001213AE6A042D0
:10176000F5D8E5E721000548FFF7FCF94EE7200032
:1017700004F0A2FF46E7C046D802002058F6001049
:10178000F8B506001B480D0005F03EF81A4805F0B4
:101790003BF81A4805F038F8194805F035F81948AB
:1017A00005F032F8184805F02FF8184805F02CF825
:1017B000174805F029F8174805F026F8164805F0EF
:1017C00023F8164805F020F8154805F01DF81548CF
:1017D00005F01AF8002E08DD0024134F02CD380062
:1017E000013405F09FF9A642F8D1104805F00CF835
:1017F000F8BDC0461CFC001038FC001054FC001062
:1018000094FC0010B8FC001004FD001054FD001002
:1018100068FD0010B4FD0010C8FD001004FE0010AB
:1018200014FE001050FE001060FE00104CFE001070
:10183000F0B54E464546DE465746E0B5060083B055
:101840000D0001283EDDCB4B01249B46A300EF5841
:1018500059463800984606F0CFF800283AD0C649D5
:10186000380006F0C9F8002834D0C449380006F022
:10187000C3F800284BD0C249380006F0BDF8002854
:1018800045D0C049380006F0B7F800283FD0BE491F
:10189000380006F0B1F8002800D097E00134A642E5
:1018A00000DC1FE24346EB185F68B849380006F0D9
:1018B000A3F8002800D0BBE00122B54B01341A7018
:1018C000A642C3DC012003B03CBC90469946A24628
:1018D000AB46F0BD0134A64200DCB2E04346EB1853
:1018E0005F68AA49380006F087F8002806D101226F
:1018F000A84B1A700134A642A8DCE3E7A6493800D9
:1019000006F07AF800282ED1A24B1870F2E70234C4
:10191000A64200DCE6E04346EB185A689F681000D8
:10192000019205F08BF98946824649469B4B9846C1
:101930001860596053460B4304D1019A1378302B39
:1019400000D081E103229649380006F0CBF8002848
:101950000ED10023934A5046494604F025FE4346E3
:1019600018605960C6E739008F48FEF77DFFC1E770
:1019700004228E49380006F0B5F8002802D18C4ABE
:101980000023E8E704228B49380006F0ABF8002872
:1019900003D1FA2200239200DDE7042286493800B1
:1019A00006F0A0F80028A5D003228449380006F0EC
:1019B00099F800287DD004228149380006F092F879
:1019C000002800D0C2E07F4A7F4BC4E77F4938003F
:1019D00006F012F8002800D160E77D49380006F0D3
:1019E0000BF800286DD07B49380006F005F8002878
:1019F00067D07949380005F0FFFF002800D15BE18E
:101A00007649380005F0F8FF002800D154E1744908
:101A1000380005F0F1FF002800D16BE7390071486C
:101A2000FEF722FF30002900FFF7AAFE00204AE758
:101A30005949380005F0E0FF00283DD1544B18709B
:101A400058E700246848FEF70FFF684804F0DCFE02
:101A5000674804F0D9FE674804F0D6FE664804F0F3
:101A6000D3FE664804F0D0FE654804F0CDFE65481C
:101A700004F0CAFE644804F0C7FE644804F0C4FEE3
:101A8000634804F0C1FE634804F0BEFE624804F0FF
:101A9000BBFE624804F0B8FE614F02CD380001344D
:101AA00005F040F8A642F8D15E4804F0ADFE0020F3
:101AB00009E75D4A0D234EE739005C48FEF7D4FE86
:101AC00018E7631C9E4200DC40E14346EB185F6868
:101AD0000234380005F0A6F8002800DCFCE0544B86
:101AE000186007E700245348FEF7BEFE3F4804F0A5
:101AF0008BFE3F4804F088FE3E4804F085FE3E48D9
:101B000004F082FE3D4804F07FFE3D4804F07CFE78
:101B10003C4804F079FE3C4804F076FE3B4804F073
:101B200073FE3B4804F070FE3A4804F06DFE3A48FC
:101B300004F06AFE394804F067FE394F02CD3800E0
:101B4000013404F0EFFFA642F8D1ADE703223A4991
:101B5000380005F0C7FF002800D1AAE00422374969
:101B6000380005F0BFFF002800D023E1344A354B90
:101B7000F1E6C04634F8001038F8001088F800107C
:101B80008CF8001098F8001028F9001058F8001090
:101B9000640F0020620F002060F80010B0020020E7
:101BA000DCF8001000CA9A3B68F80010E0F800105A
:101BB00040420F00E8F80010F0F80010F8F80010AC
:101BC000FCF8001000A0B830460300002CF900100B
:101BD0007CF9001080F90010E0F90010E4F9001021
:101BE00030FA00103CFA001040F800101CFC001005
:101BF00038FC001054FC001094FC0010B8FC0010DD
:101C000004FD001054FD001068FD0010B4FD00102C
:101C1000C8FD001004FE001014FE001050FE00105D
:101C200060FE00104CFE0010005847F858F90010F4
:101C3000840E0020A4F8001004F9001008F9001028
:101C4000000029F90F260200002411005F48FEF76A
:101C50000BFE5F4804F0D8FD5E4804F0D5FD5E48F9
:101C600004F0D2FD5D4804F0CFFD5D4804F0CCFDEA
:101C70005C4804F0C9FD5C4804F0C6FD5B4804F014
:101C8000C3FD5B4804F0C0FD5A4804F0BDFD5A484E
:101C900004F0BAFD594804F0B7FD594804F0B4FD0A
:101CA000584F02CD3800013404F03CFFA642F8D171
:101CB000FAE6554A554B4EE6631C9E427DDD47468B
:101CC0000437EF193A6829685148FEF789FD3A68E8
:101CD000504B02341A600DE64F483900FEF7C4FD40
:101CE0000120FCE600244D48FEF7BEFD384804F014
:101CF0008BFD384804F088FD374804F085FD3748EF
:101D000004F082FD364804F07FFD364804F07CFD87
:101D1000354804F079FD354804F076FD344804F088
:101D200073FD344804F070FD334804F06DFD334812
:101D300004F06AFD324804F067FD324F02CD3800EE
:101D4000013404F0EFFEA642F8D1ADE60024344899
:101D5000FEF78AFD1E4804F057FD1E4804F054FDAE
:101D60001D4804F051FD1D4804F04EFD1C4804F0D0
:101D70004BFD1C4804F048FD1B4804F045FD1B4882
:101D800004F042FD1A4804F03FFD1A4804F03CFDFF
:101D9000194804F039FD194804F036FD184804F0DC
:101DA00033FD184F02CD3800013404F0BBFEA642CB
:101DB000F8D179E639001B4832E61B48FEF754FD9E
:101DC00030002900FFF7DCFC00207CE5C4F800109F
:101DD0001CFC001038FC001054FC001094FC001097
:101DE000B8FC001004FD001054FD001068FD001048
:101DF000B4FD0010C8FD001004FE001014FE001019
:101E000050FE001060FE001000004F91944E000044
:101E10000CFA0010B8020020B4F9001038F90010D4
:101E20008CF9001010F90010ECF90010002370B5C7
:101E3000924A86B01360924A2820136004F018FC7E
:101E4000041E17D02C2004F013FC6062002800D17F
:101E500004E1012323600A33A3606360894BE360DC
:101E6000894B2361894B6361894BA361894BE36192
:101E7000894B2362894B28201C6004F0F9FB041E67
:101E800017D02C2004F0F4FB6062002800D1E0E0C1
:101E9000012323600A33A36063607A4BE360804BC5
:101EA0002361804B6361804BA361804BE361804B76
:101EB0002362804B28201C6004F0DAFB041E17D03C
:101EC0002C2004F0D5FB6062002800D1D0E0012373
:101ED00023600A33A3606360774BE360704B236138
:101EE000704B6361704BA361704BE361704B236275
:101EF000724B28201C6004F0BBFB041E17D02C2062
:101F000004F0B6FB6062002800D1ACE0012323603E
:101F10000A33A3606360684BE360614B2361614BEC
:101F20006361614BA361614BE361614B2362644B6D
:101F30001C6000F0C5FBA021012004F0ABFB614A4E
:101F400000230260604A836082659822C36403654F
:101F500040608050103A835002009832026601229D
:101F6000426667328354594A836210604362012299
:101F70000023574C8261C361564A574B026143614B
:101F8000200000F0A1FB00285CD12268636853495F
:101F90000868496812184B41514908684968121885
:101FA0004B4150494C680D68A34246DD15001C00AA
:101FB0000A604B604C4B4D4E1D605C604C4B4D4A73
:101FC0001D605C603560002374602800210003F010
:101FD000FDFC484A009000232800210003F0F6FC95
:101FE0006846019204F06EFE019A0100424804F036
:101FF00099FD424B1A685B68002B01DA06B070BD90
:102000003068716812184B4100213D4804914168C5
:10201000029203930468994204DD102202A904F09D
:102020005DFBEBE7994211D08B42E7DC01D1A24284
:10203000E4D88368002BE1D0EFE7A342BAD1AA42EB
:10204000B4D8B7E72F48FEF70FFC9EE79442E4D8D8
:10205000EAE7200004F030FB00242AE7200004F027
:102060002BFB002406E7200004F026FB00245EE79B
:10207000200004F021FB00243AE7C046680E00204F
:102080006C0E0020D1040010090500101505001089
:102090001D050010F904001051050010700F0020FC
:1020A000010500101105001019050010ED040010C5
:1020B00021050010780F0020E9040010680F0020AF
:1020C0006C0F002025050010B4F70010740F0020DD
:1020D000A00200200000FFFFFFFFFF7FC80C0020D0
:1020E000D00C0020D80C0020C0020020E00C002002
:1020F000D002002000CA9A3BB8F70010B0020020BE
:10210000D802002090F70010F8B55746DE464E463C
:1021100045464F4BE0B518689A4603684D4F012B72
:1021200058D0382291464C4A93464C4A9046426ACF
:10213000013B546803609B009B5801215360FEF7EC
:1021400067F902234A46A354636C002B03DC53D186
:10215000236C002B50D0584600F0B6FA002860D10E
:102160005A464346106851681A685B68801859419E
:102170003B4B1A685B6812184B413A498C46086819
:1021800049688B4248DD614610000A604B601900C7
:10219000226C636C002B2BDD3D687E685219734105
:1021A000994202DC28D1904226D9E36C002B2AD038
:1021B000606898475423E35C002B24D12000002161
:1021C000FEF796FB00234A46A3545346186803685B
:1021D000012BACD1244B79685A681C683D68B868FB
:1021E0009B688A4223DC20D0914227DD00201FE03B
:1021F000002B01D1002ACFD123686068984754236F
:10220000E35C002BDAD000234A46A35453461868F7
:102210000368012B8BD1DDE78B42B9D18242B2D862
:10222000B6E71248FEF720FB9AE7AC42DCD9012062
:102230003CBC90469946A246AB46F8BD914203D0BD
:10224000984280414042F3E7A542F9D90020EFE7E8
:10225000700F0020E00C0020A0020020C80C00201D
:10226000D00C0020D80C0020D802002090F70010DD
:10227000F0B5DE4657464E464546E0B5904B85B034
:102280001B68002B00D1DDE01A68012A00D1D9E0DB
:102290005B6A5B68002B00D1D4E01C685D68894BE9
:1022A0001A68A2422AD0884E002273683168AB4275
:1022B0002EDD864B1B78002B00D17FE0814B5A68C6
:1022C000196895423ADC37D08C4200D0F4E0954250
:1022D00000D0F1E09A68316801329A607368AB42CD
:1022E00034DDFEF7E7FCFEF76BFEFFF70DFF05B0F0
:1022F0003CBC90469946A246AB46F0BD5A68AA42FD
:10230000D1D1714E9A68736801323168AB42D0DC2A
:10231000AB4201D1A142CCD8B068270084460C0062
:1023200028001D00A842C4DC01D1A742C1D86245E3
:10233000BFD83C000500BCE78C42C5D900221C6018
:102340005D609A6073683168AB42CADCAB4201D110
:10235000A142C6D89D4204DC00D185E0B368934217
:10236000BFD85B4B1A689A46002ABADD594B002445
:102370009946594B38279B4602E001349442B0DA23
:1023800049460968A3005D58002DF6D0EB5D002B8F
:10239000F3D10133EB555B461E68002E0BD031683C
:1023A000736899423FD2706A4B1C33608B001D509A
:1023B0003000FDF7E1FF53461A68DEE7474F38006B
:1023C00000F082F900284BD138687968444B454FBA
:1023D0001A685B6880185941434B1A685B68121889
:1023E0004B41386879688B4218DD100019003A605B
:1023F0007B6022002B00121A8B411000191E05DC95
:10240000002B00D05AE7092A00D857E700F06AF9F4
:1024100003000120002B00D069E74FE78B42E8D191
:102420008242E2D8E5E7B368706A9846884443463A
:10243000990005F025F80028BDD04346706273600E
:102440003168B1E7294B1B78002B11D01E4E0127B4
:1024500034687568B3687F429C4625483A0061E756
:102460002448FEF701FAAFE78C4200D876E778E718
:10247000144B154E19685A689B68009101330192FC
:10248000029334687568954210DC01D18C420DD8F6
:10249000B0688446AA4204DC01D1A14201D8634558
:1024A00004D301277F4212483A003BE710226946D5
:1024B000300004F013F9CAE70F48FEF797FBC04657
:1024C000780F0020E00C0020D8020020620F0020CE
:1024D0008C0E0020880E0020700F0020A00200202B
:1024E000C80C0020D80C0020D00C0020640F002065
:1024F000FFFFFF7F90F7001018F60010F8B5454673
:10250000DE4657464E465E4BE0B50D0019685D4B02
:1025100004001868FFF78CF9002800D19FE029001B
:102520002000FFF785F9002800D198E0564804F014
:1025300071FB002800D08BE05449022005F01EFA00
:10254000FFF774FC0021524C5248A1600131524BFC
:10255000017052481A6800685B6822606360002559
:10256000002808DD4E4B1D68002D03D03823EA5C9F
:10257000002A4BD02CCC4B4948680C6898420EDDA1
:10258000FFF7C2FD002803D0FFF772FE0028FBD141
:1025900000203CBC90469946A246AB46F8BD984206
:1025A00001D19442ECD8834203DC55D08B68AB4216
:1025B000E6D83D4B1A689A46002AE1DD3B4B0024E1
:1025C00099463B4B38279B4602E001349442D7DAC8
:1025D00049460968A3005D58002DF6D0EB5D002B3D
:1025E000F3D10133EB555B461E68002E0BD03168EA
:1025F000736899421DD2706A4B1C33608B001D506A
:102600003000FDF7B9FE53461A68DEE7E954284B5F
:102610001E68002EAED031687368994222D2706A6B
:102620004B1C33608B001D503000FDF7A5FE2CCCF9
:10263000A1E7B368706A984688444346990004F05D
:102640001FFF0028DFD04346706273603168D3E714
:102650001848FEF787FA6FE7A242A7D9A9E7012039
:10266000404296E7B368706ACF18B90004F008FFDB
:10267000002800D17EE7706277603168D0E7C046FD
:102680001C0F0020180F0020610E0010B938001038
:10269000E00C0020600F0020D0020020AC020020DF
:1026A000740F0020D80200208C0E0020880E00201D
:1026B000700F002008F8001010B5FFF71FFF10BDC5
:1026C00010B504F03BFA10BD10B5040000F066FC34
:1026D000FA220023920003F095F920606160002047
:1026E00010BDC046FA2210B59200002303F06EF927
:1026F00000F0C4FB002010BD094A8300944640222C
:10270000634410B51C68C0006240C024144080229D
:10271000520113431C60034B9C466044416010BD52
:1027200004C00140004001400123D0228340120632
:1027300093629361094A8300944640226344196876
:10274000C0004A40C0211140802252011343196049
:10275000034B9C46052360444360704704C001401E
:1027600000400140F8B5EFF3108772B60D4E3368A4
:10277000002BFCD0BFF35F8F0725CB08C0180123C7
:102780000D40AB401D000478254007D12343037062
:10279000BFF35F8F356087F31088F8BD100001F03C
:1027A0008DF8C0462C0100D0024B18688007C00F7E
:1027B0007047C04600C006400021044B044ABFF3E6
:1027C0005F8F02C39342FAD17047C046000100D028
:1027D000800100D0044A1078431CDBB2172B00D9CB
:1027E000102313707047C046E8020020F8B50400BB
:1027F00006200D0001F0E4F903000020002B49D071
:10280000294B80229C424DD0D203284B28491A6084
:10281000284B1A6010008B689843FBD1264B80210F
:10282000E3185A425341254A5B0049000620995259
:1028300001F0C6F92900C00003F0A2F8C3092AD0AC
:102840001F4A93422AD87F221040013040089F013E
:102850001A0003003F18260080256262A36200234D
:102860002C36AD0135432B60062001F0A9F9390063
:10287000800003F085F86023E26A53406E221A401C
:1028800080235B0133431A600E4B236310232B60BC
:102890000D3BA364F8BD40270122DCE70A4F00236B
:1028A0000A4AD8E71204B0E70080034000E0004085
:1028B00000C0004000F000400080FCBF7C0F002002
:1028C000FEFF000001030000C0FF3F00FFFF00000B
:1028D00083680B4810B584466144624409011201C3
:1028E0009A18591854684B6801209C4201D802D0AC
:1028F0000020C0B210BD12680B689A42F9D8F7E701
:10290000FFFFFF0F0A4B1968EFF3108072B60A68D9
:10291000002AFCD0BFF35F8F1B68BFF35F8F0022DC
:102920001A6080F3108840BF002000217047C04625
:10293000480F0020F8B54E464546DE465746E0B5FE
:102940001F000CAB1D780DAB1B7881469B460368BE
:1029500016009846002D08D1987B002841D13CBC38
:1029600090469946A246AB46F8BD28006C00641913
:10297000033C384B00229C464B469B6860449C4677
:1029800000010A9B604483600B9B06604760C36044
:1029900043461B681B199A705A701A7043465B7B3A
:1029A0009A46002B3BD043462A00986851465B6804
:1029B000984743461A68002824D053465B00534486
:1029C000033BD31814195246A2701A78002A00D07B
:1029D00062701D705246434628005A73AA45BED104
:1029E0001FE0414644001B682418033C1B195A7819
:1029F0008A73002A00D1CA73002205009A705A70A7
:102A00001A70B6E753465B005344033BD3181419BE
:102A10009D702278002A00D05A7053462370434696
:102A20005D734B463200187D3B0000F043FB041EF3
:102A300007D05B46002B04D14B462900186800F0F4
:102A40007DFD0E9B002B02D01C70280087E728001C
:102A500085E7C046FFFFFF0F744B8200F0B5D458E6
:102A60000023DE4657464E4645469B46E0B58DB0B0
:102A70000B9000F093FA6268EFF3108572B613685A
:102A8000002BFCD0BFF35F8F23689C465B7B99468D
:102A9000002B00D181E0A268654B90464B441B019E
:102AA000984443461E685F6832003B00121A8B410F
:102AB000002B00DC84E03B0032000B9800F0FAFAB7
:102AC0000023002208920993002300279A46636896
:102AD000BFF35F8F5A461A6085F310885346002B68
:102AE00064D00A9B390018024B461843D0476268ED
:102AF00006900791EFF3108872B656464546136864
:102B0000002BFCD0B246A846BFF35F8F0699079A08
:102B1000002A25DA2369002B28D0089D099E6D1A0A
:102B200096412A003300089D099E9E4200D971E01B
:102B300000D173E059460491012103914946029165
:102B40005146019700912000FFF7F4FE5B46236198
:102B50006368BFF35F8F5A461A6088F3108888E76E
:102B60001300194302D02369002B46D12368DA7B76
:102B7000002A07D051008A1819688C4649466244D9
:102B8000033A51704A46DA73E2684B469446013B79
:102B900063441A7801321A70D8E7002300220892A1
:102BA0000993002300279A46002090E7002800D0D0
:102BB0005FE70DB03CBC90469946A246AB46F0BDDF
:102BC000002B02D1002A00D075E70021604600F0FA
:102BD00009FC43461A685B680892099343469B6860
:102BE0009A464346DF68E3684B44013B1B780A93EF
:102BF0001B0218432061002069E700F0CFF9069A14
:102C0000079B12184B41994204D800D092E790429A
:102C100000D88FE701225242D3178BE7954200D8A4
:102C200088E701225242D31784E7C046300F0020C4
:102C3000FFFFFF0F10B5124C6368002B04D00A2170
:102C4000104800F0C5FA10BD23000F4A102120687B
:102C500000F0AAFB032000F095F9032000F098FA99
:102C60000A49032000F0E0F9FFF7B4FD084B9C4649
:102C7000032360442375074B80006060DC60DEE75F
:102C8000EC020020480F0020D1280010592A001023
:102C900040000034300F0020F0B557464E46454600
:102CA000DE460400E0B50D0006267642F717361919
:102CB0006F4185B08F4255D852D000F06FF9320085
:102CC0003B00121A8B41002B56DD674B9A465A681F
:102CD000EFF3108B72B61368002BFCD0BFF35F8F3D
:102CE00053461B6899469B7B9846002B49D1534617
:102CF0005B68BFF35F8F00221A608BF31088434636
:102D0000002B11D0BC46B0460094019500266546C4
:102D1000564F574A7B6AAB4211D3B96A414501D23B
:102D2000AB420CD0009C019D2000290000F06CF902
:102D300005B03CBC90469946A246AB46F0BD116832
:102D4000EFF3108072B60B68002BFCD0BFF35F8FDF
:102D50001368BFF35F8F1E6080F3108820BFD9E730
:102D60008642AAD90026002700F018F932003B005D
:102D7000121A8B41002BA8DC002BD5D1002AA4D13C
:102D8000D2E75B0043444A46033B9C4649461268EF
:102D90000093624453788B73002B00D1CB730023D4
:102DA00051469370537013708968324A8C4642447E
:102DB000314912016244166057609160D3600099F6
:102DC0004A468C46126862449370537013704B46A7
:102DD0005B7B0393002B35D0190048464B46424697
:102DE00080685B689847002819D00398009984464A
:102DF0004A46430063448C4669461268097B033B9C
:102E0000D318624491701978002900D0517042465D
:102E10001A704B465873804500D068E715E04B4662
:102E200003981A688446009BD11843006344033B0F
:102E3000D31842469A700A78002A00D05A706B461E
:102E40001B7B0B704B4642465A7353463200187D2B
:102E50003B0000F02FF9002800D148E753464146D7
:102E6000186800F06BFB42E7EC02002000400540D0
:102E7000480F0020FFFFFF0F0529001070B5040068
:102E80000D0000F08BF802000B00200029008018D4
:102E900059418B4205D901204042C117FFF7FCFE82
:102EA00070BD8B42FAD18242F5D8F7E770B50600C3
:102EB00000F074F8FA2204000D00920000233000A4
:102EC000002103F071FB001969418D4205D90120F1
:102ED0004042C117FFF7E0FE70BD8D42FAD1844237
:102EE000F5D8F7E7F8B5CE46474680B5EFF305834A
:102EF0003F22134018001038EFF3108C72B61B49B4
:102F00000A68002AFCD0BFF35F8F01210F008740C1
:102F1000174D184A6F63147891462200C2409046BC
:102F20004646002231420BD0696A134D8846810023
:102F30004D59A84512D3114BBC43CA584B461C707F
:102F4000BFF35F8F0021094B19608CF31088002AB2
:102F500000D090470CBC90469946F8BD08499B00AC
:102F60008846434419681960EAE7C046280100D042
:102F700000400540650F00204C0F0020A00E0020EF
:102F8000D03F054010B50100024A0348FFF7EAFBB5
:102F900010BDC04678FE0010610F0020044A516A3F
:102FA00000E01900906A536A9942FAD17047C0460E
:102FB00000400540134A30B5546A00E01C00956A91
:102FC000536AA342FAD12A002300801859418C4247
:102FD00011D80ED00C000B4A536AA342FCD307D180
:102FE000084A02E0516A994202D1916A8142F9D3BA
:102FF00030BD8542EED9012401204042C117644210
:10300000E9E7C04600400540064A536A9942FCD8A9
:1030100007D1044B02E05A6A914202D19A6A824275
:10302000F9D370470040054070B504000D00EFF380
:10303000108672B61A4A1368002BFCD0BFF35F8F5C
:10304000002D1BD0200000F0D3FD164988420AD085
:10305000200000F0D5FD0121200000F0B7FD012384
:10306000A340114A1360114BA400E550BFF35F8FDA
:1030700000220B4B1A6086F3108870BD0B4BA20028
:10308000D5500122A2400A4920000B7893430B70CF
:10309000044900F0DFFD0021200000F097FDE5E786
:1030A000280100D0E52E001038600540A00E002059
:1030B000650F0020F0B5D6464F4646462F4CC0B5AA
:1030C000656A00E00D00A66A616AA942FAD1AB42C6
:1030D00049D9EFF3108972B6294C21680029FCD038
:1030E000BFF35F8F0126274986408C460978264D1D
:1030F0000F0037438846F9B28A46614654460C7041
:103100001E49041DA4004E636250840063510D6A81
:10311000002435421AD04D6A00E025008F6A4C6ABF
:10312000AC42FAD1AB4224D801D1BA4221D8D04521
:1031300021D0124B154A1E625E631F2318401E3BAE
:10314000834013606346424601241A70BFF35F8FC9
:1031500000220B4B1A6089F3108820001CBC90469B
:103160009946A246F0BDAB4201D1B242B1D801248A
:10317000F3E70024EAE70124E8E7C0460040054001
:10318000280100D0650F00204C0F002080E200E0F5
:1031900010B5EFF3108472B60A490B68002BFCD00F
:1031A000BFF35F8F01238340074A08481362027808
:1031B0009A430270BFF35F8F00230B6084F3108883
:1031C00010BDC046280100D000400540650F00201A
:1031D000024B9C4661448900016070474000003406
:1031E00010B50400FFF7F6FA01002000FFF7F0FF2A
:1031F000FF232371BFF35F8F10BDC04610B50400DD
:10320000FFF7E8FA01002000FFF7E2FFFF23237138
:1032100000236371BFF35F8F10BDC046F8B54E4603
:103220004546DE465746E0B54C0064180368033C4B
:103230001A190D00517806008946002906D1280088
:103240003CBC90469946A246AB46F8BD4F004F4461
:10325000033FD81941788846002141705170002DF4
:1032600012D073684A462900B0689847336800282E
:1032700073D0DF191A19BD701178002900D0797048
:1032800049462700117000E04D464246002AD6D03C
:1032900054004444033C1A1951788946002911D13D
:1032A000736842462900B06898473368002849D0BF
:1032B0001C19DF19A5703B78002B00D063704346C2
:1032C0003B70BCE74900494403398A465344597866
:1032D0008B4600215970517073684A464146B06868
:1032E00098473368002843D152461C199A184B4618
:1032F000A3701378002B00D0637043465446C84631
:1033000013705B46002BCBD059463000FFF786FF89
:1033100081460028C4D002004146B06873689847CF
:10332000326800282FD04B465B004B44033B1119F9
:10333000D31842469A700A78002A00D05A704B4639
:103340000B70ADE71C19DF194346BB702378002BC7
:1033500000D07B702570454671E749461C19DA1983
:10336000A1701178002900D0617015704D468CE76E
:1033700041461A19534499701178002900D05970A8
:103380004B461370BDE74B465B004B44033BD118E3
:1033900014194A46A2700A78002A00D06270424688
:1033A0001C000A70C8467BE710B583600023CCB2CE
:1033B00043730133047342608373C4730068012C48
:1033C00007D90123421C0133DBB2137003329C4244
:1033D000F9D8FF2319404B0059180023401803382F
:1033E000437010BDF0B54E4657464546DE46E0B543
:1033F000477B03687C00E419033C1A19167883B0F4
:1034000005008946002E1ED1002911D0C07B00285E
:1034100069D041000918591803394F70EF73002E15
:1034200006D07100891903398846002143449970F8
:103430000023380053706E7303B03CBC904699462D
:10344000A246AB46F0BD7100891903398846591868
:1034500048788246002807D149460029E5D0E87B14
:103460000028D6D1EF73DCE742005244033A944679
:10347000019263445A78934600225A704A706B68EE
:1034800052463100A86898472B68002832D0414640
:1034900001985A1819188E701078002825D15146B5
:1034A00011705A46002A23D059462800FFF7B6FE6D
:1034B000824600281BD002006B683100A86898473C
:1034C0002B68002825D04246991852465200524493
:1034D000033A9A1896700878002800D05070524627
:1034E0000A701A19B8E7EF73A2E74870D7E72B689C
:1034F0001A19B1E741465046019A59189A1888702E
:103500001078002800D048701670019A56469046F0
:10351000C7E752465100514403395A184046934672
:103520005246181882705A461278002A00D042700B
:103530005A46884616701A1956468DE7F0B5454624
:10354000DE4657464E46E0B50C0083B0050000222B
:1035500000293DD0477B0168BC426BD0660036191C
:10356000033E88198378002B32D05A00D318033BCE
:10357000CB181A78944202D143E0002A08D05300B5
:103580009B18033BCB185A789442F6D142785A7074
:1035900000238370437003789846002B25D1EA7B83
:1035A000002A1DD053009B18CB18033B5C70434688
:1035B000EC73002B00D171E05C0000234444033C19
:1035C00009198B704370002F1ED1434601226B7383
:1035D000100003B03CBC90469946A246AB46F0BDF5
:1035E000B846EC7300234370EFE719002800FFF79B
:1035F00015FE2968EA7B80466F7B8819002AD6D0A1
:10360000D0E742781A70C3E742463900A8686B6871
:1036100098472A68002824D07B00DB191419033B43
:10362000D318A7701A78002A00D062704246B846B4
:103630001A70CAE77E00F619033E8B191878804687
:1036400000281BD1E87B002804D0420012188A18F9
:10365000033A5470EC7300225A70434601326B7384
:10366000B6E77B00DB19033B1419D31842469A7066
:103670002278002A00D05A702770A6E744004444FC
:10368000E01E019008184478A246002C08D1EC7B7B
:10369000002C76D1EF7300228270DCE7B846A1E7F8
:1036A00063005344033B994649444B784A70427047
:1036B0009B4622006B684146A86898472B68002803
:1036C0004BD049464046019C59181A198870107809
:1036D000002850D15146A14611705A46002A20D0E8
:1036E00059462800FFF79AFD041E19D002004146F2
:1036F000A8686B68984700281ED04A4641462B6848
:10370000981862001219033A9A18917001780029EA
:1037100000D051700470E97B002905D19B19B9E7ED
:103720002B684A469818F6E74A0052189A18033A46
:1037300057709B19EF73AEE74B462968600000197C
:103740000338CB1808189C700278002A00D05A70F1
:103750004346A04603708B1999E74A469818019A88
:103760009C185246A2700278002A00D0627042462D
:10377000D0460270B1E7487051461170019A9146E7
:10378000ABE7032262438A18033A577082E7C046C8
:103790002D4A2E4B70B51A602D4A2E4B2E491A60B9
:1037A00010008B689843FBD12C4E2D4B9E420AD2C1
:1037B000F5430024ED18AD080135A300F35801349A
:1037C0009847AC42F9D100F097F8264A214B1A608D
:1037D000214A9368DB018033FBD14022224B234CEA
:1037E000234D9A675A671A67DA66AC4208D2236893
:1037F0002000002B22D00834FFF700FDAC42F6D3A6
:103800001C4D1D4CC022A168280002F067FFA56076
:10381000FEF7D2FF00F056FBFFF70CFA174E184BDD
:103820009E420AD2F5430024ED18AD080135A300ED
:10383000F35801349847A542F9D170BD0834FFF719
:10384000CFFCAC42D3D3DBE7BFCDFBFE00E00040B2
:10385000FE7F3C0000F0004000C00040B40C00209F
:10386000C40C0020FFFFFF0100F00140AC0C002061
:10387000B40C00200000002000ED00E0C40C00208B
:10388000C80C0020094A1368002B06D008491818F4
:10389000884208D8106018007047064B0449181871
:1038A00013608842F6D901204042F5E7280F002036
:1038B000000004208411002000BEFDE70FB400B515
:1038C000084883B002F0A0FF049B002B07D005A995
:1038D0001800019101F0DAFF034802F095FF00BEE5
:1038E000FDE7C046A8FE00104CFE001010B50148D0
:1038F000FFF7E4FF9CFE001030B50C2083B000F011
:1039000051FBFEF751FF00280ED0964B964A1A60E5
:103910005A609A60DA601A615A619A61DA611A62D1
:10392000924A5A6203B030BD914CA06700F042FB4E
:103930000122904B1A60636C012BFCD103228E4B49
:103940001A608B4A936B012BFCD1022405338B4AFE
:1039500001218B48009400F0D9FA0523894A00948C
:103960000121894800F0D2FA884B5A68FF2A02D810
:10397000802252005A6080227A4C7F4B21691201CA
:10398000824D1A60002900D0E5E0E0217F4B022043
:103990001A681140802252012A4311601968484078
:1039A00003210140116004219A681142FCD0802259
:1039B000802192012A4309011160802252005A603D
:1039C000734B2361734B5968FF2900D8C1E0032270
:1039D000684B70481A60012103009A681142FCD0BC
:1039E000E0251A68154080225201024315601B68C9
:1039F0004B400321194011600221664A9368194225
:103A0000FCD0802380219B010343090119608021A0
:103A1000614B490051606361604B5A68FF2A00D8CE
:103A2000596080225E4BE16912015C4D1A600029E9
:103A300005D0606901F0A4FF01300138FDD1E0221A
:103A400056490B681A4080235B012B431A60802380
:103A500080229B012B4312011A608022424B5200AC
:103A60004A60E3614F4B5968FF2900D85A608022B1
:103A70004D4B216A12014B4D1A60002905D0606937
:103A800001F07EFF01300138FDD1E02245490B688D
:103A90001A4080235B012B431A60802380229B0104
:103AA0002B4312011A6080235B004B602E4B3F4A70
:103AB00023623F4B5968914201D801325A608022FB
:103AC0003C4B616A12013A4D1A60002905D06069C9
:103AD00001F056FF01300138FDD1E02234490B6876
:103AE0001A4080235B012B431A60802380229B01B4
:103AF0002B4312011A608023DB024B601B4B636275
:103B00002D4B5A68FF2A02D8802252005A60802228
:103B10002A4BA1691201284D1A60002905D060695D
:103B200001F02EFF01300138FDD1E02222490B685F
:103B30001A4080235B012B431A60802380229B0163
:103B40002B4312011A6080235B004B60124BA36170
:103B5000E8E65A603BE7606901F012FF0130013886
:103B6000FDD112E7B00E0020006CDC021BB7000094
:103B7000008000403CB0004030B00040002F685949
:103B80000080024000389C1C00C002403080004091
:103B9000001BB7003C800040405973075480004030
:103BA00054B000406080004060B00040FFFF030060
:103BB0006C8000406CB000404880004048B000403D
:103BC000014B8000C0587047B00E00200123834095
:103BD000002902D1034A13607047034A1360034A65
:103BE0001360F9E780E100E080E200E000E100E03E
:103BF000024B10309B688000C058704700ED00E019
:103C000070B50D00EFF3108672B60F4A1368002BE3
:103C1000FCD0BFF35F8F0D4B10309B6884001B59A5
:103C20000B4A934203D09D4201D0FFF75FFE074B42
:103C30009B681D51BFF35F8FBFF35F8F0022024B64
:103C40001A6086F3108870BD240100D000ED00E0FA
:103C5000CD010010F0B54546DE4657464E46E0B56C
:103C60000D0083B0EFF3108B72B65C4A1368002B23
:103C7000FCD0BFF35F8F1022904680444246584BE1
:103C800097009B68DE59574B99469E4206D0AE423C
:103C900000D17DE0544C331B2F2B12D9504B9B6825
:103CA000DE51BFF35F8FBFF35F8F00224B4B1A6073
:103CB0008BF3108803B03CBC90469946A246AB46B5
:103CC000F0BD012383409A465246484B1B681A4078
:103CD00000925246464B1A60BFF35F8FFCF7C3FA5F
:103CE0000190002849D1012332009A434149130031
:103CF0001B1B5B415943090D93689D424DD0062023
:103D00001056002805DA31E0062018561A0000285F
:103D10002CDB43001B189B00E31898688542F3D105
:103D20000620185600283BDB420011188900651850
:103D30008846A9689960E979D9710621695699710F
:103D4000A9797F2926D8AD88E11A6D052D1545443E
:103D50004919E0250905490D2D02294399801218BA
:103D6000254B9200A4181A781870A271009B002BA2
:103D700008D152461E4B1A6090E78045B3D0FFF73A
:103D8000B5FDB0E752461D4B1A60184B1A6085E727
:103D90001E0083E7BD210902E0E713000022BFE710
:103DA000019800280AD1002A15D0FF3090711448DC
:103DB0009080114A107811709871D7E7114A124912
:103DC000D21A083A5002400D014399800F49520817
:103DD0000A43DA80CAE74E46EBE7C046240100D02A
:103DE00000ED00E0CD0100101403002000E100E030
:103DF00080E100E0AAAA0000630F002080E200E05A
:103E000000BDFFFF4E03002000F0FFFF00F8FFFFA2
:103E1000F8B5012504000543FCF725FAEFF31086F9
:103E200072B6214A1368002BFCD0BFF35F8F1F4A84
:103E30001F4B2100891A49414B431B0D1D4980002E
:103E40008F685BB23F58BD4226D006215156994239
:103E500026D012215156994224D01E215156994202
:103E600010D02A215156032099420CD0124A1178C1
:103E70001370A171BFF35F8F00220B4B1A6086F3A2
:103E80001088F8BD02204100091889005218FF214E
:103E900091710A499180E9E78A6809491150E5E77B
:103EA0000020F0E70120EEE7240100D014030020F9
:103EB000AAAA000000ED00E0630F002000BDFFFF94
:103EC000CD010010084B094A1360094A1360094AE2
:103ED0001360094A1360094A1360094A1360094ACA
:103EE0001360094A136070478080808000E400E01E
:103EF00004E400E008E400E00CE400E010E400E08A
:103F000014E400E018E400E01CE400E0F8B504006C
:103F10000C2017001D000E0001F032FD1C4941432A
:103F2000380001F02DFD069A2B041203134322687A
:103F3000002A1CDB174A8021944226D04901164AE8
:103F4000164D1160164A11600F00AA689743FBD105
:103F5000C021221D8901114321222660A0600A6030
:103F60002268002AFCDAE36008230B60F8BD3F22D8
:103F700021680A409642DDD1A2681205120D9042D6
:103F8000D8D1E268002BD5D1F0E78901D7E7C04648
:103F900040420F0000C0024000E0004000C000406E
:103FA00000F0004080239B001843014BD86270470B
:103FB00000800540AA23064A1B0113602F230549F0
:103FC000D360054B19605368002BFCDA7047C0467C
:103FD0000040024000B0FA00006002409A4200D265
:103FE000885470477047C04610B5002803D04A680F
:103FF0000B681100984710BD10B5002800D110BD06
:104000000B4B1C68A2689368013B9360002B04DB98
:104010001368591C11601870F1E791698B4201DB3C
:104020000A28F5D10100200005F048FDE7E7C04669
:1040300098030020F0B54546DE4657464E46E0B5AB
:1040400083B099460EAB1D78119B88469B46022390
:10405000129900920B4007000D9C109A0193002BBF
:1040600028D15B46002B00D092E0944222D2012658
:104070000E401F2C1ED80C9B30201B1902E0013370
:10408000202C03D001341870A242F8D8002E11D091
:10409000A3450FD90C9B30201B195E461F2C04D959
:1040A00087E00133202C00D1A7E001341870B4421E
:1040B000F7D1A346CB0611D54B0502D4002C00D076
:1040C0007CE00F9B102B00D1A0E0022B00D1A7E0D9
:1040D0001F2C11D830230C9A135501341F2C0BD8E8
:1040E000002D00D079E04B0700D588E00B0733D5D1
:1040F00020230C9A135501348B0730D0009E2500E5
:10410000A24632004446B0460C9B013D561C585D09
:1041100021004B46B8473200002DF5D14646A04657
:1041200054463619019B002B0ED0009D731B5B4536
:104130000AD23200444601364B4621002020B847BF
:104140003200731B5B45F6D3300003B03CBC904695
:104150009946A246AB46F0BD009E8B0715D15C4543
:104160006ED2009A0D9413005B441D1B0D9B4446B8
:104170009846561C4B4621002020B8473200B542D5
:10418000F7D14346A0461C000D93002CB7D1C9E7D8
:1041900001260E4028D0002D2AD10C230B4227D116
:1041A000944200D374E71F2C00D864E7A34500D8DD
:1041B00080E7CB06A0D54B0500D582E7A24202D00E
:1041C0005C4500D07DE7631E002B3BD00F9A023C7C
:1041D000102A1BD01C00130077E72D230C9A1355CF
:1041E00001348B07BBD089E7944200D241E761E7F5
:1041F00001235B429C46E344D2E7B346D9E72B2335
:104200000C9A135501348B07A9D077E78B060FD48E
:104210001F2C00D970E778230C9A1355013457E707
:104220001F2C00D968E70C9A6033135501344FE70F
:104230001F2C00D960E758230C9A1355013447E727
:10424000009EA2E700243CE7F0B5DE4657464E4606
:104250004546E0B597B005000E0093461F00209A32
:10426000219B1000190001F064FE002800D0D5E267
:10427000209821990122BD4B524201F03FFE0028B7
:1042800000D081E1209821990122B94B524201F0DE
:104290004BFE002800D017E1209821990022B54B51
:1042A00001F042FE002800D0BCE1209821990022B4
:1042B000B14B01F023FE002800D0B3E120982199F2
:1042C0000022002301F01AFE002800D054E200234F
:1042D0000D938023249ADB001A40914600D007E218
:1042E0000023A64C0893099406240EAB079320984C
:1042F000219901F049FE80460C9001F02DFE02004C
:104300000B002098219901F07EFD089A099B01F08D
:10431000AAFD0A900B9101F05BFE824601F018FEA7
:1043200002000B000A980B9901F06DFD0022944BDE
:104330000A900B9101F0F8FD002800D1C5E101239E
:104340009C46E244504601F003FE089A099B01F0A6
:10435000E3FD002800D030E2002C00D074E10C9C7A
:10436000200001F0F9FD02000B002098219901F0D6
:104370004AFD0022824B0890099101F0BFFD002800
:1043800000D10AE24B46202B00D196E15C1C0C9B2D
:104390000A211800984601F0CBFA4A46079B3031B3
:1043A000995440460A2101F0C3FA079B804699467A
:1043B000A14400281BD02A00330025004E46444665
:1043C00099469046202D00D125E220000A2101F0D7
:1043D000AFFA3031317020000A2101F0A9FA01351D
:1043E000040001360028EDD12C004E46454603233B
:1043F000249A1340012B00D19BE120229246202CCD
:104400000CD00D9A002A00D0C1E1249A520700D4A2
:104410004CE2621C92462B2207990A555A46089292
:10442000002B17D1239B9A4500D34FE25B441C001D
:104430005346E41AB84637002E002500541C434664
:1044400039002020B0472200AC42F7D135003E00B1
:104450004746089453465C1E079B08AA9C461723B0
:10446000644494466344B946984637002E00089A3F
:10447000551C20784B463900013CB0472A00A04526
:10448000F6D1089B350053441C00249B3E009B073B
:1044900012D55B46239AE31A9A420DD91300C846F7
:1044A00022005F4699460134434631002020A84748
:1044B0002200E31B9945F6D8200017B03CBC90467B
:1044C0009946A246AB46F0BD249B5B0700D5A4E00D
:1044D0002C4B9A4603230793249BD8469B0719D15C
:1044E000079B23998B4200D3ECE15A469B1A9846CE
:1044F000239B99463B0031002020541CA84743468B
:104500001B1922009945F5D8239B5B441C00079B8F
:10451000E31A9846B14642465646BA462F00079CD3
:10452000013C551C305D53464946B8472A00002CD3
:10453000F6D1079B3D0043441C00249B4E469B073D
:10454000BAD55B46239AE31A9A42B5D91300D046EE
:1045500022005F4699460134434631002020A84797
:104560002200E31B9945F6D8A6E7C046FFFFEFFF00
:10457000FFFFEF7F65CDCD4165CDCDC180842E415C
:104580000000E03FA0000110249BD8469B0716D1F5
:10459000239B042B00D897E11C1F5C44B8465A4665
:1045A00037002E002500541C434639002020B04718
:1045B0002200AC42F7D135003E004746A046CE4B24
:1045C000B9464246370004249A462E005346013C21
:1045D000551C185D39004B46B0472A00002CF5D118
:1045E0004446249B350004343E009B0700D463E717
:1045F0005B46239AE31A9A4200D85DE71300C84647
:1046000022005F4699460134434631002020A847E6
:104610002200E31B9945F6D84EE7B84B9A4604238F
:10462000079359E7249B5A460493239B3100039335
:10463000229B28000293209B219C009301943B0025
:1046400000F064F9040037E74B46202B35D0631E99
:1046500098464B460A2150465C1C01F091F94A46A7
:10466000079B3031995450460A2101F089F981465F
:10467000002800D1B6E0079B9A463B00A24447467B
:10468000A84625004C46B14656469A4610E0200002
:104690000A2101F075F93031317020000A2101F052
:1046A0006FF9013F013504000136002800D194E084
:1046B000202DECD145464E4657460323249A1340FD
:1046C000012B35D020229246A8E600220A980B99A9
:1046D0008B4B01F013FC002800D03DE65346002B25
:1046E00002D0DB0700D437E601239C46E24433E6E0
:1046F000229B092B00D8F2E00122302391460EA81C
:104700000370229B07905C1E2F32093B494604E050
:1047100042540131013C202901D08B42F8D1794B20
:10472000E2009B181A685B68894608920993DEE5E7
:104730002024239B002B47D00D9B002B03D1249AD0
:104740000C33134202D0239B013B2393239BA342B0
:104750003AD9202C00D1BDE0302221001800079B5F
:104760001B1901311A7088422DD001332029F8D14C
:104770005B468A4608936DE6209A219B0020002123
:1047800001F041FB0123209021910D93A1E5621CD2
:1047900092462D2207990A5540E600220898099969
:1047A000574B01F0C1FB002800D0EBE50123A446E4
:1047B00023409C4463460C93E4E5434601330C9349
:1047C00000239A46C8E5239C0123202C00D018E63C
:1047D0001F339A465B4608933CE62C004E464546FE
:1047E000B8465746202C00D167E742464046079B13
:1047F00011191B193022002807D001341A70202CFF
:1048000000D15AE701338C42F7D1631C99462E231D
:10481000079A1355B6E545464E464EE7249BD846C3
:104820009B0715D1239B032B52D9DC1E5C44B84651
:104830005A4637002E002500541C434639002020DC
:10484000B0472200AC42F7D135003E004746A046B3
:104850002D4BB9464246370003249A462E00534654
:10486000013C551C185D39004B46B0472A00002C0E
:10487000F5D14446249B350003343E009B0700D409
:104880001AE65B46239AE31A934200D314E6130018
:10489000C84622005F469946013443463100202035
:1048A000A8472200E31B9945F6D805E6249AA246BC
:1048B000120700D4B2E50122944607991F32E24460
:1048C0000A55ABE5D84625E6D84678E60892C1E514
:1048D000D846BDE720239A465B460893BAE5DA003E
:1048E000084B9B185C681B68089309940023994641
:1048F0000EAB229C0793FAE4A80001109800011067
:104900000000E03FB0000110A4000110F0B54E46D9
:104910004546DE465746E0B59BB00A93249B814648
:104920001C000B93259B09911D000D920C930022F6
:1049300000232000290001F0E1FA002800D093E1D3
:104940000B9A0C9B92469B468023289ADB001A40C8
:104950000E9201D10623269356465B46334300D17F
:1049600048E15B465800C94B400D9C46604401F04D
:10497000F3FAC74AC74B01F076FAC74AC74B01F0B2
:104980004BFA5B46C64A1B031B0B1A4304000D007F
:10499000C44B11005046002201F035FAC24AC34B05
:1049A00001F061FA02000B002000290001F034FA46
:1049B00001F0EAFA804601F0CFFABD4ABD4B04008F
:1049C0000D0001F050FA0022BB4B01F025FA01F076
:1049D000DBFABA4A0600BA4B2000290001F043FA7C
:1049E000040030000D000F9601F0B6FAB54AB64B40
:1049F00001F039FA02000B002000290001F003FA4F
:104A000002000B0006000F0001F02DFA3200040036
:104A10000D003B003000390001F0FEF9002210903B
:104A20001191AA4B2000290001F0FFF90022A84BA8
:104A300001F0F2F902000B002000290001F0F5F965
:104A40000022A44B01F0E8F902000B00200029002D
:104A500001F0EBF90D008021320004003B00002042
:104A6000C90501F0D0F902000B002000290001F077
:104A7000D3F902000B001098119901F0D6F9002229
:104A8000874B01F0C9F9944A0F9B94466344002276
:104A90001B0501F0E8F906000D0002000B0050466E
:104AA000594601F02BFA00280BD001235B429C46AB
:104AB000300029000022864BE04401F0B6F90600E0
:104AC0000D004346C62763339F42BF41289B7F4268
:104AD00004371B0500D5ACE0279B00249F4200D281
:104AE000DC1B0223289A1A400E9203D07B427B41A2
:104AF0005B421C404346002B07D0504659463200CB
:104B00002B0001F092F982468B46002200230B987D
:104B10000C9901F0F3F9002800D0A0E0289A6F4B1F
:104B2000039413400493269B524602935B460999D3
:104B30000092019348460A9B0D9AFFF785FB0400FB
:104B4000002F4FD0289B65209B066CD4631C22004D
:104B50009A4609990A9BC8474346DA179D18DB0F06
:104B600098467B1E55409B46002412AF02E034005D
:104B7000202E0DD028000A2100F002FF661C3031E3
:104B80003C19217028000A2100F0FAFE051EEED122
:104B9000052306935B460593002304930A3303938E
:104BA00043460196099E02930A9B009752463100A4
:104BB00048469846FFF73EFA0E9B0400002B11D0A2
:104BC0000D9F279AC31B9A420CD9279B4D46020082
:104BD00099460134434631002020A8472200E31BB8
:104BE0009945F6D820001BB03CBC90469946A24699
:104BF000AB46F0BD289B56465D461B0515D50023E8
:104C00009846269A0023424503DD130042469B1A2C
:104C1000013B26938023289ADB001A430023289225
:104C20000027984658E7203890E700230427984645
:104C300052E72B003343E4D0294A2A4B50465946C9
:104C400001F06AF9002817D1269B002B00D143E719
:104C50000E9B5A1E9341269AD31A26933CE7802135
:104C6000090659448B4659E78022120694460C9B4C
:104C7000A24663449B4667E600221B4B50465946BA
:104C800001F03CF90028BCD1DEE7C04601FCFFFF83
:104C9000FB799F501344D33FB3C8608B288AC63F2B
:104CA0000000F03F0000F83F61436F63A787D23FE9
:104CB00071A379094F930A400000E03F1655B5BB38
:104CC000B16B0240EF39FAFE422EE63F00002C4065
:104CD0000000244000001840FF030000FFF7FFFF22
:104CE0002D431CEBE2361A3F80842E41F0B5454639
:104CF000DE4657464E46E0B5A1B01D002A9B0992FC
:104D00000B93A24AA24B0A9008911A60002900D185
:104D100087E300239B469F4B2C009A465D462078F4
:104D200000280CD025281DD06E1C2A00099B0A9D46
:104D300008990134A847207835000028F2D1099954
:104D4000AB462A008D4200D34A1E099B08990020D9
:104D50000A9CA047584621B03CBC90469946A246C2
:104D6000AB46F0BD1023621C9846083B9C46167863
:104D7000043B9946023B9B463300203BDBB20027B5
:104D800001211400102B0CD850469B00C3589F469D
:104D90000F430132167814003300203BDBB2102B96
:104DA000F2D93300303B092B00D8B5E100239846F7
:104DB0002A2E00D1A6E200239B462E2E00D1C0E170
:104DC0003300683BDBB2122B18D8734A9B00D358D0
:104DD0009F46634601321F43DCE7434601321F43CF
:104DE000D8E74B4601321F43D4E75B4601321F43ED
:104DF000D0E780235B0066781F4301343300253BF6
:104E0000DBB2532B0FD8654A9B00D3589F46667878
:104E1000682E00D188E280231F433300253BDBB29C
:104E20000134532BEFD96F1C2A00099B0A9D089966
:104E30003000A84701343D0071E766786C2E00D140
:104E40006CE280235B001F430134D7E780239B0083
:104E500066781F430134D1E70B9B1A1D1B680E9225
:104E60000B935B46002B00D12BE20B9A10781600B7
:104E7000002804D100F0A4FC013B002B03D0013634
:104E80003278002AF8D10B9BF31A0C938023DB00B5
:104E90003B40994603D00C9B5B4500D9ABE2022313
:104EA0003B400F9300D1B3E100281ED04B46002BAE
:104EB00000D1D0E15B465F190B9BA3465E1BB14658
:104EC0002A00099C0A9E09E023000899551CB04756
:104ED0004B46585D002800D1CEE12A009742F3D11D
:104EE0005C463D000F9B002B14D00C9A904511D9C5
:104EF00043465819099B861A98462A00A1460A9FDC
:104F0000089C0135434621002020B8472A00B542BD
:104F1000F7D14C460E9B01340B9300E70B9B1A1DF7
:104F20001B689046002B00D1CEE1212217430B973E
:104F30000F21002218AE8946A44602E00A0020296B
:104F40000CD048461840C4B22700511C37370928F6
:104F500001D830342700B7541B09EFD164460B9BAE
:104F600001910693082305935B4604931023039352
:104F700000232A0002930096099B08990A98FFF7DC
:104F800059F84346050001340B93C8E6ED4C001078
:104F90002C0F0020B8FE0010FCFE001048FF00108F
:104FA000782E00D1C5E1582E00D12FE26F2E00D10E
:104FB00031E3622E00D126E210233A009A430C928C
:104FC000692E01D000F01EFC0A230E937B0500D54C
:104FD000B7E180270C9BBF001F4000D0B8E21A0049
:104FE00080235B001A40914600D06EE30C9B5B0669
:104FF00001D500F0F1FB0C9B0B9A1B0600D4C1E31A
:105000000021535E0432D90F14910B92DA179F18C6
:105010005740002B09D10C9910330A009A43130012
:105020000A000C93520500D5DEE30C9A6123920628
:1050300000D54123DBB218AE0A3B16940F934C46C1
:105040001595B1460E9E0EE03033DBB24A4638006D
:105050001355310000F094FC071E00D1FDE12C0037
:10506000202D00D1F9E13100380000F089FC651CE9
:10507000CBB20929E8D90F9A94466344DBB2E5E73D
:10508000462E00D1B4E107220B9B049707339343CC
:10509000013294469C4462460B92424603925A4621
:1050A00002921A685B680899009201930A982A0094
:1050B000099BFFF7C9F80134050030E66E1C2A0091
:1050C000099B0A9D08992520A8470134350026E64A
:1050D000BB0700D5D2E04346012B00D888E3099BEB
:1050E0006F1E474498462A00A1460A9D089C561CFC
:1050F000434621002020A8473200BE42F7D14C464B
:105100000B9B32001F1D1878751C099B08990A9E7D
:10511000B04701340B9702E6002332009E00F618D8
:1051200001347600B6182278330011003039303B54
:105130000929F3D99846002316009B462E2E00D04D
:105140003EE680236678DB001F433300303B621C61
:10515000092B11D8140033005A469600B6180134B2
:105160007600F6182378320019003039303A0929D0
:10517000F3D91E00934623E62A2E00D181E11400C4
:105180001EE6202332009A43472A04D180231B01C4
:105190001F4302239E43452E01D120231F43072294
:1051A0000B9B07339343013294469C4462460B9217
:1051B0001A685B68100019000C900D9100F0B9FEA0
:1051C000002800D08CE00C980D990122CA4B524265
:1051D00000F0AAFE002800D082E00C980D99012270
:1051E000C64B524200F08AFE002879D14346039311
:1051F0005B460497029308990C9A0D9B0A980092BB
:1052000001932A00099BFFF781FB0134050086E525
:105210000C990B000133884500D8EBE243462A0085
:105220005F190C94089D0A9C7F1A561C099B290043
:105230002020A0473200BE42F7D14346350001335B
:105240000C9C0C930B9B1878002800D162E64B460F
:10525000002B00D02EE62A000B9BA3465F1BB9460D
:105260000A9E089C099F3B002100551CB0474B46F5
:10527000585D2A000028F6D15C4633E60B9B08995E
:105280001A1D18789146099B2A000A9FB847434681
:105290006E1C4544012B00D8AEE2A3463200A8465E
:1052A000089C099E0A9D571C330021002020A84716
:1052B0003A004745F7D15C464B463D000B9301341D
:1052C0002DE501235B42D0E51022390091431132D4
:1052D00011430B917A0500D42AE6002118AE3EE670
:1052E000434603935B460497029308990C9A0D9BDF
:1052F0000A98009201932A00099BFEF7A5FF01344A
:1053000005000CE50B990B00096804338846002959
:1053100000DAB0E056780B93541C4CE5C0239B0098
:10532000A6781F43023469E5C023A6781F430234E0
:1053300064E510230E930C233A009A430C927B05EC
:1053400002D501239A430C92692E00D141E6642EC6
:1053500000D13EE680270C9BBF001F4000D09EE09E
:105360001A0080235B001A40914600D070E10C9B2C
:105370005B0600D51FE20C9B1B0600D408E20B9BCA
:105380001F8804330B93002F09D10C9910230A00B6
:105390009A4313000A000C93520500D5D4E00C9AEE
:1053A0006123920600D54123DBB218AE0A3B159467
:1053B0000F934C461495B1460E9E0CE03033DBB291
:1053C0004A4638001355310000F0DAFA071E2BD098
:1053D0002C00202D28D03100380000F0D1FA651CB7
:1053E000CBB20929EAD90F9A94466344DBB2E7E7C6
:1053F00020231F4347E65B460C9302233B400F9359
:1054000000D051E504E702230E9394E70C233A0001
:105410009A4314331A4310230C920E937B0590D4B5
:1054200098E7374B0A9374E44E462A00159C149D66
:105430000C9B0693434605935B4604930E9B039394
:105440000023029301922A000096099B08990A986A
:10545000FEF7F0FD0134050061E44E462A00169C7B
:10546000159D0C9B0693434605935B4604930E9B48
:105470000393149BE5E702210F43414649428846C6
:1054800048E70B9AA678136802349B46DB435946DB
:10549000DB171940130004338B460B9390E407226B
:1054A0000B9B07339343013294469C4462460B9214
:1054B0001A685F68130091463B4308D10C9910337A
:1054C0000A009A4313000A000C9352053CD40C9A2C
:1054D0006123920600D577E1DBB20A3B0F93434686
:1054E000002216930E9B18AE1495159415004C4689
:1054F0009846B14619E0C046FFFFEF7FFFFFEFFF80
:10550000E53F00103032D2B24B4620005A553900E8
:105510004246002300F076FA0F000400014300D158
:105520008FE03500202E00D18BE042460023200082
:10553000390000F067FAD2B26E1C092AE2D90F9B3B
:105540009C466244D2B2DFE7002318AE1A006FE730
:1055500007220B9B07339343013294469C446246D7
:105560000B921A685B68D9171291139112981399CC
:105570000600564010960E005E401196109E119F38
:10558000361A8F41D90F1096119717911A430BD1E4
:105590000C9910230A009A4313000A000C93520539
:1055A00002D5002718AE41E00C9A6123920600D57F
:1055B0000CE1DBB20A3B0F93434616930E9B18AEE9
:1055C000002298463300149515941600109C119DE6
:1055D000994611E03032D2B24B4620009A5529004C
:1055E0000023424600F00EFA030004000D000B43B6
:1055F00014D03E00202F11D0424600232000290065
:1056000000F000FAD2B2771C092AE3D90F9B9C461E
:105610006244D2B2E0E708230E938CE64E46169B16
:10562000109411959846159C149D0C9B0693434627
:1056300005935B4604930E9B01970393179B02937C
:1056400001E7169B3200149D159C98464E46EFE6E6
:105650000B9B1A1D1B6815929946002B0CD10C99B7
:1056600010330A009A4313000A000C93520503D525
:10567000002318AE1A006DE00C9A6123920600D543
:10568000A6E0DBB218AE0A3B14940B934C460F9580
:10569000B1460E9E0CE03033DBB24A462000D355B3
:1056A000310000F06DF9041E50D02F00202D4DD098
:1056B0003100200000F064F97D1CCBB20929EAD941
:1056C0000B9A94466344DBB2E7E70B9B1A1D1B68F9
:1056D0001592D9175A184A409146DA0F1692002BA4
:1056E0000CD10C9910330A009A4313000A000C9352
:1056F000520503D5002318AE1A0052E00C9A61231C
:10570000920667D4DBB218AE0A3B14940B934C4656
:105710000F95B1460E9E0CE03033DBB24A462000B6
:10572000D355310000F02CF9041E36D02F00202D67
:1057300033D03100200000F023F97D1CCBB20929C1
:10574000EAD90B9A94466344DBB2E7E74E462A0057
:10575000149C0F9D0C9B0693434605935B46049354
:105760000E9B0393002302930192099B2A0000964B
:1057700008990A98FEF75EFC159B05000B9301340F
:10578000FFF7CDFA13680432D90F14910B923DE460
:105790000B9B1F6804330B93F5E54E462A00149CBF
:1057A0000F9D0C9B0693434605935B4604930E9B0B
:1057B0000393169BD7E70B9B1F7804330B93E2E50B
:1057C00000230C93FFF762FB412385E64123F0E6BB
:1057D000412356E7412395E70B9A137804320B9245
:1057E00000221492FFF712FC002318AE1A0038E6CC
:1057F0002E0085E40C9327E54B4635000B930134CE
:10580000FFF78DFA063B17000E93642E00D092E549
:10581000530500D595E5FFF7DCFBC0460EB400B597
:1058200084B005AA08CA010003920092012204482C
:105830005242FFF75BFA04B008BC03B01847C046F9
:10584000DD3F00100CB410B584B006AC08CC0A00E3
:105850000094010004480394FFF748FA04B010BC18
:1058600008BC02B01847C046DD3F001000B585B047
:1058700000931300012202900391524202A90248B0
:10588000FFF734FA05B000BDE93F001010B5094A32
:1058900084B01468002C09D0012200910300524208
:1058A00003A90548A047012004B010BD00F0ACFFDB
:1058B0000020F9E72C0F0020F93F001001480421D7
:1058C000014B184760030020ED580010142310B559
:1058D0000100188804331B88984710BD162310B5A3
:1058E0000100188802331B88984710BDF8B5474659
:1058F000CE4680B50F1E19D01423994604330400F8
:105900000025012698464B461888434621681B8887
:10591000984701C4431E9841013540420640AF42BA
:10592000F1D130000CBC90469946F8BD0126F8E74D
:10593000124A936F9B0815D29066D166002905D054
:10594000FFE7FFE7FFE7516F106F704704B5802155
:105950000906C2175140002800D0C84309F030FEA4
:10596000002104BDF0B5146E556E576F166FFFF72A
:10597000E3FF1466556657671667F0BD000000D058
:10598000114A936F9B0813D210665166002905D007
:10599000FFE7FFE7FFE7516F106F704704B500287E
:1059A00001D00020C04309F00BFE002104BDC04619
:1059B000F0B5146E556E576F166FFFF7E5FF14665E
:1059C000556657671667F0BD000000D094464E4AF2
:1059D000926F9208624601D230E0C046F0B54A4E5E
:1059E000B56F6D08FCD3346E756E776F366F00F04F
:1059F00025F89446444A146655665767166762460A
:105A0000F0BDC0469446404A926F9208624601D269
:105A100058E0C046F0B53C4EB56F6D08FCD3346E0F
:105A2000756E776F366F00F04DF89446364A1466FF
:105A30005566576716676246F0BDC046002B24DBEB
:105A400011D000293EDA00B5C943404200D10131EE
:105A500000F038F8C943404200D10131DB435242E3
:105A600000D1013300BD002AEBD1002801D100296B
:105A700005D00020C90FC90701D1C043410800B5B6
:105A800009F08EFD0022002300BD00B500290ADBCD
:105A9000DB43524200D1013300F014F8C9434042C5
:105AA00000D1013100BDC943404200D10131DB4387
:105AB000524200D1013300F005F8DB43524200D1DD
:105AC000013300BD002923D1002B18D1002A0CD0AE
:105AD000BC460D4F38667A6600210023FFE7FFE7DA
