:020000041000EA
:1000000000B5324B212058609868022188439860DF
:10001000D860186158612E4B002199600221596106
:100020000121F02299502B49196001219960352056
:1000300000F044F80222904214D00621196600F024
:1000400034F8196E01211966002018661A6600F04E
:100050002CF8196E196E196E052000F02FF8012189
:100060000842F9D1002199601B49196000215960AB
:100070001A491B48016001219960EB211966A021F2
:10008000196600F012F800219960164914480160C1
:100090000121996001BC002800D000471248134993
:1000A000086003C880F30888084703B5996A0420EC
:1000B0000142FBD001200142F8D103BD02B5186610
:1000C0001866FFF7F2FF186E186E02BD00000240BE
:1000D000000000180000070000035F00212200005C
:1000E000F4000018222000A00001001008ED00E03C
:1000F00000000000000000000000000074B24E7A12
:1001000000200420F7010010C3010010C5010010F9
:10011000C1010010C1010010C1010010C101001097
:10012000C1010010C1010010C1010010C701001081
:10013000C1010010C1010010C9010010CB01001065
:10014000CD010010CD010010CD010010CD01001037
:10015000CD010010CD010010CD010010CD01001027
:10016000CD010010CD010010CD010010CD01001017
:10017000CD010010CD010010CD010010CD01001007
:10018000CD010010CD010010CD010010CD010010F7
:10019000CD010010CD010010CD010010CD010010E7
:1001A000CD010010CD010010CD010010CD010010D7
:1001B000CD010010CD010010CD010010CD010010C7
:1001C00000BE00BE00BE00BE00BE00BE00F04BF888
:1001D000103800BEF2EB8871F83C0110203D011090
:1001E0003402001090A31AE700202149086006C8D5
:1001F00081F3088810471F48006800282FD10DA4FC
:100200000ECC002902D000F012F8F9E71A491B4A77
:10021000002000E001C19142FCD1194988471949E9
:1002200088471949884700BEFDE701C901C29A42C3
:10023000FBD37047203D0110C0000020F40E0020C9
:10024000544B01100000042000000420544B011006
:1002500000100420001004200000000070470B482C
:1002600005F014FD0047EFF30580C0B270470000B1
:1002700008ED00E0000000D0F80E0020601D002016
:10028000B93A0010B9260010E13B001057560000A3
:1002900006005250ABB36053842F01100600525039
:1002A000861C0302942F0110060052505422A29D76
:1002B000982F011005005250DE65F468544B011070
:1002C000F8B5C046054B0648033310B51B1A062B7C
:1002D00003D9044B002B00D0984710BDF40E00202A
:1002E000F40E0020000000000648074910B5091A66
:1002F0008910CB0F5918491003D0044B002B00D0A4
:10030000984710BDF40E0020F40E002000000000FD
:1003100010B5074C2378002B09D1FFF7D3FF054B0D
:10032000002B02D0044800E000BF0123237010BD61
:10033000281000200000000018240110094B10B5FF
:10034000002B03D00849094800E000BF08480368B3
:10035000002B02D1FFF7C8FF10BD064B002BF9D0D0
:100360009847F7E7000000002C1000201824011027
:10037000F40E0020000000008B00F0B545469846C2
:1003800057464E46DE46424604008946E0B59A4648
:10039000436A83B09B5801931800236998474B46E2
:1003A00006000F005D08012B12D820E0414652469E
:1003B000636A59589950636A49469858A36998479F
:1003C000A9466B08012D13D91D004B469B009A4688
:1003D000E3689B46AB0098464246636A9858236997
:1003E000984732003B00D8470028DFD1D0464D4621
:1003F00041460198626A5050A36929009847280035
:1004000003B03CBC90469946A246AB46F0BDC04600
:10041000F0B5DE464F4646460500C0B5436A8E003D
:100420009B5984B0180099462B690C0098472B689B
:10043000009001916700A346BB4220D97C1C9C42DE
:1004400029D33C1E3FD06B6AA60098592B69EF68F0
:10045000984702000B0000980199B847002832D055
:100460005B466A6A9B0091596700D1506A6A594697
:10047000D058AB6998472B68A3469F42DED34846C5
:100480006A6A21009051AB69984704B01CBC904641
:100490009946A346F0BDBB00984642466B6AEE689B
:1004A00098582B6998476B6A0290039143445868A7
:1004B0002B69984702000B0002980399B047002867
:1004C000BFD0002CBFD15B465C469E00D7E7C0463C
:1004D00010B504000120994201D801D0002010BDC0
:1004E0009442FCD8FAE7C046002070478B688068C9
:1004F000C01A434258417047401A41424841704730
:10050000416800687047C046416900697047C0464D
:10051000C0687047006A7047C160704701627047E9
:100520007047C04670B5D025802406F0E7FC2D0644
:100530001920A40402F0E0F86C62FA206C6140001B
:1005400002F054FDFA20AC61400002F04FFDF4E7E8
:100550007047C046F0B54F464646D646C0B51E0069
:1005600013008EB005001700334300D1A3E0002E26
:1005700047DA02225E4906F091FA0123022701269A
:1005800099466C4601357F427642FA22F300E31821
:10059000186859689200002305F0F8FB9846554901
:1005A0002800924605F01AFB4346002B00DC74E05D
:1005B00003239C460335E144002E1BDDFB00E418B9
:1005C0004D4B3E00984620686168FA220023920055
:1005D00005F0DCFB013E2800414605F0FFFA731CE4
:1005E0000435083C002BEEDCFB43DB171F40BF004B
:1005F0000437B94448460EB01CBC90469946A24602
:10060000F0BD0092FA2200239200380031000196DA
:1006100005F0BCFB0B006C4603435CD0A060E160BE
:100620000023364A3800310005F0B0FB0B000343CD
:1006300053D0206161610023314A3800310005F058
:10064000A5FB0B0003434AD0A061E161E8232D4ADA
:100650003800310005F09AFB0B00034341D02062C3
:100660006162294B294A3800310005F08FFB0B00ED
:10067000034338D0A062E162254B264A380031009E
:1006800005F084FB0B0003432FD007272063616331
:1006900000237E1E9946023F77E7002B12D0434687
:1006A000002B03DC12D15346092B0FD902239C46A1
:1006B0000235E14480E70222174906F0EFF90123F1
:1006C000994697E75346632BEDD971E701239C4682
:1006D0000135E14470E70127DAE70227D8E703276D
:1006E000D6E70427D4E70527D2E70627D0E7C04698
:1006F0000C260110102601101826011040420F0090
:1007000000CA9A3B0010A5D47E8D03000080C6A4C9
:10071000B3B6E00D000064A7882F0110F0B547467E
:10072000CE4680B51F00284B83B01B6880460D0065
:100730001600022B2BDB0A9A934204DA03B00CBC9E
:1007400090469946F0BD28000AF096F80400300063
:100750000AF092F82023994620188144213006F0AF
:1007600067F91A4B04001B68002B1DDB01960095EE
:10077000174A494605F046FA164B1B68002B08D06D
:10078000390020009847200006F076F9D6E70223CA
:10079000D1E74346002B0ED00F4B3A001B682100D7
:1007A000D8680CF041F8EEE700962B000B4A49465A
:1007B00005F028FAE0E7084B3A001B68210098682A
:1007C0000CF032F8DFE7C046C8040020A80400207F
:1007D000AC240110401A0020C0050020A424011000
:1007E0000FB4F0B585B00AAC40CC300003940AF0E9
:1007F00043F80700213006F01BF9154B20371B6822
:100800000500002B1DDB134A019600923900124AA5
:1008100005F0F8F9114B1B68002B0AD021002800C5
:100820009847280006F028F905B0F0BC08BC04B0D1
:1008300018470B4B22001B68290098680BF0F4FF47
:10084000EFE70096034B074A390005F0DBF9E1E7D3
:10085000A8040020A82A0110AC240110401A00208E
:10086000C0050020A42401100FB4F0B585B00AAC77
:1008700040CC3000039409F0FFFF0700283006F059
:10088000D7F8154B27371B680500002B1DDB134AD3
:10089000019600923900124A05F0B4F9114B1B6819
:1008A000002B0AD0210028009847280006F0E4F821
:1008B00005B0F0BC08BC04B018470B4B22001B6805
:1008C0002900D8680BF0B0FFEFE70096034B074A0A
:1008D000390005F097F9E1E7A80400205025011040
:1008E000AC240110401A0020C0050020A4240110EF
:1008F000F0B5DE4657464E464546E0B5826A87B0BB
:100900000591002A00D1A0E00023994683464F4676
:100910004E46049338339A46049B5946C86A9B0056
:1009200003931900C3581B78002B47D05B46586BC4
:100930000B0041585846006BC358002B3EDD002287
:1009400000910192009A12689046002A2CD05268B9
:10095000002A29DD002511E0002E04D05346F35C67
:10096000002B00D18CE05346E35C002B00D173E0F8
:10097000434600265A680135954211DA4146096816
:10098000AB005C58002CF6D0B442F4D00137012FF4
:10099000E2D1636A9B45DFD1013526009542EDDB4C
:1009A0005B46039A1B6B9B58019A009901320431F4
:1009B000019200919A42C5DB5B469A6A049B01331F
:1009C00004939342A9D3B346002E3ED0736C002B00
:1009D00000DC9BE05C4C200001F076FE002800D09B
:1009E000A2E0226863685949594C08684968801830
:1009F0005941584B1A685B6812184B41616820686E
:100A00008B4200DC7BE010001900226063605C46D2
:100A1000514B656C246C1A685B6812196B419942E2
:100A200000DD88E000D183E05B4658681B6898478A
:100A300054235A46D35C002B03D105995846FFF73F
:100A400057FF002248235946CA5407B03CBC904681
:100A50009946A246AB46F0BD01235246A3543F4BF4
:100A60001E68002E48D031687368994220D2706A9F
:100A70004B1C33608B001C503000FFF77DFC77E788
:100A800052460133B354354B1B689946002B00D1B5
:100A900069E719685B6899421AD24B46586A4A4618
:100AA0004B1C13608B001E504846FFF765FC5AE74D
:100AB000B368706A994689444B46990009F0DCFB9B
:100AC000002800D154E74B46706273603168CFE76D
:100AD0004A4692680B0094464A4663449900506A1D
:100AE000029309F0C9FB002800D13CE74A46029B6B
:100AF000506253601168D2E743465A683BE78B4225
:100B000000D084E7824200D97DE780E7002B00D047
:100B10008AE7336C002B00D186E70B4C200001F0F4
:100B2000D3FD002800D15CE70D48FFF79DFE58E794
:100B3000904200D878E75B46DB6C002B00D180E761
:100B40005A46506873E7C046A0040020F80E002003
:100B5000080F0020000F0020100F0020901A002026
:100B6000A82501100FB4F0B585B00AAC40CC300018
:100B7000039409F081FE07002A3005F059FF154B58
:100B800029371B680500002B1DDB134A01960092D4
:100B90003900124A05F036F8114B1B68002B0AD0B9
:100BA000210028009847280005F066FF05B0F0BC3A
:100BB00008BC04B018470B4B22001B682900D868FA
:100BC0000BF032FEEFE70096034B074A390005F0C1
:100BD00019F8E1E7A80400207C2C0110AC240110D6
:100BE000401A0020C0050020A42401100FB40021E9
:100BF00000B585B006AB04CB0120009103490393F7
:100C0000FFF78CFD012002F0EBFFC04658250110D4
:100C1000F0B54F46D64646460400C0B58946151E77
:100C200042DB00280BD13CE06D002A004946200041
:100C3000FFF7EEFF804600282DD1013534D423681C
:100C4000AB422ED9626AAB009B589846002B28D045
:100C5000E36840469A462369984723690600484658
:100C60000F00984702000B0030003900D0470028E1
:100C700017D12369404698472369060048460F006C
:100C800098478642D0D18F42CED149464046E3694B
:100C900098470028C8D040461CBC90469946A246BA
:100CA000F0BD00239846F6E70148FFF79FFFC046D6
:100CB00068250110F8B54E46DE46574645465B4B63
:100CC000E0B51868994600284ADD594B002598463A
:100CD000584B00249A46584B9B4603E001340C3590
:100CE00084423DDA43461B685B195A681178012932
:100CF000F4D1197A002901D0002111701B681E68F7
:100D0000002EEBD0F768002F00D184E0013FF760A0
:100D1000002F1FD13068002806D0484A1368013BD5
:100D2000136005F0A9FE3760337C002B12D0444BD2
:100D3000444A1B68934200DD74E05A46126801334E
:100D400072615A4616603E4A1360534652461B680B
:100D5000013B13604B46186801340C358442C1DBFB
:100D6000394F3C68002C36D0384B9A46344B994664
:100D7000304B984624E0013DE560002D1DD12068F0
:100D8000002806D02D4A1368013B136005F074FE5D
:100D90002560237C002B10D04B462A4A1B689342C7
:100DA00035DC254A0133116814604A4661611360DD
:100DB000434642461B68013B13603E60341E0AD026
:100DC000E5686669002DD6D121005046FFF7CAFEBE
:100DD000341E3E60F4D11E4C1E4A1F4B216812681F
:100DE0001B68914202DD11001C4B1B68002906DDC7
:100DF00000208900591804CB10708B42FBD10023CE
:100E000023603CBC90469946A246AB46F8BD200004
:100E100005F032FECCE70D483100FFF7A3FE4B464C
:100E200018685BE7300005F027FE8EE7C41300204A
:100E3000C013002094130020B8130020901300204A
:100E4000BC130020FF010000A81300207024011033
:100E5000A0130020A41300209C130020981300204E
:100E600030B589B0FFF726FF424C2368002B1BD01A
:100E70001968012918D001393F48FFF773FE23682C
:100E8000002B00D169E01A68012A00D165E05B6A95
:100E90003A4D5B68286869681A685B68121A8B416A
:100EA0003748FFF75FFE00E0344D364C2368002BD7
:100EB00006DD3548FFF756FE21683448FFF752FE3D
:100EC000334C2368002B06DD3248FFF74BFE2168C8
:100ED0003148FFF747FE28686968304B1A685B683D
:100EE000121A8B41002B30DB6846FFF733FB694653
:100EF0002B4805F0F7FF2B4C6368002B27DD2A4DAC
:100F0000280001F0E1FB002830D128686968274BF0
:100F1000274D1A685B6880185941264B1A685B6830
:100F2000801859412A686B6899421ADD02000B004B
:100F30002860696020686168121A8B416846FFF773
:100F400009FB69461C4805F0CDFF09B030BD002BF8
:100F5000FBD12368002BD2D1F7E700231A685B6826
:100F6000FFDE9942E6D19042E0D8E3E71348FFF76D
:100F70007BFCCAE7981A0020B0280110D00400209A
:100F8000F428011090130020382901106C29011059
:100F9000941300208C290110BC290110100F00208F
:100FA000DC290110C0040020A0040020F80E00205D
:100FB000080F0020000F0020082A0110A8250110AA
:100FC000F0B54E46DE4657464546E0B5C64B89B0BD
:100FD00018689946002800D140E10368012B00D130
:100FE0003CE1436A5B68002B00D137E1BF4A1968D6
:100FF00093461268914242D030E1AF69002F10D081
:10100000BB4B1C68002C0CD021686368994200D34C
:1010100082E1606A4B1C23608B001F502000FFF7A9
:10102000ABF900230024AB602B606C60EB602B619C
:101030002B75AB61AF4B1C68002C0CD0216863682A
:10104000994200D3EAE0606A4B1C23608B001D507C
:101050002000FFF791F94B461868002800D1FDE009
:101060000368012B00D1F9E0436A5B68002B00D1D3
:10107000F4E05A4619681268914200D0EEE05A46F0
:101080005B685268934200D0E8E00368012B00D10E
:10109000D1E0426A013B556803609B009B580121E7
:1010A0005360FFF7B5F92B7D002BA6D1AC682B69F7
:1010B000626804932100002A29DD382300269A461D
:1010C000200002E00136964220DA0468B3001F597E
:1010D0005346FB5C002BF5D153460122FA54864B54
:1010E0001C68002C0DD021686368994200D3A5E0EC
:1010F000606A4B1C23608B001F502000FFF73CF9F7
:10110000A8684268013601009642DEDB0400342301
:101110000122E254237A002B1FD0A269E3690292D4
:101120000393002B03DC18D1029B002B15D05B46E8
:101130001E685F68714B1A685B68BB4200DD00E1A6
:1011400000D17EE1594688686C4989689F4200DC7D
:10115000EFE06B48FFF706FDA968664B98460C6AFE
:101160002B699C422AD0002C28D00123E6682374E6
:10117000731CE360002B00D15DE1E660002E1DD101
:101180002068002809D05F4A1368013B136005F00E
:1011900073FC237C2660002B0FD05B4A5B491368ED
:1011A0008B4200DDA3E15A49013308681360606196
:1011B0000C60584A1368013B1360A968049A0A62DC
:1011C000002A01D00023137401223423AF69CA54CA
:1011D000002F10D0464B1C68002C0CD0216863688F
:1011E000994200D373E0606A4B1C23608B001F5050
:1011F0002000FFF7C1F800230024AB602B606C6077
:10120000EB602B612B75AB6143461C68002C00D151
:1012100021E721686368994200D214E7A368606AF5
:10122000CE18B10009F028F8002800D113E7606259
:101230006660216808E700231B7DFFDEA368606A03
:10124000984688444346990009F016F8002800D1D2
:1012500056E743466062636021684AE7244E30687F
:10126000002821D00368012B1ED0426A5568002D4A
:101270001AD04946013B0C6803609B009B58012132
:101280005360FFF7C5F8002CE9D0216863689942E4
:1012900011D2606A4B1C23608B001D502000FFF7A9
:1012A0006BF830680028DDD109B03CBC9046994607
:1012B000A246AB46F0BDA368606ACF18B90008F03B
:1012C000DBFF0028CBD0606267602168E2E7A3689B
:1012D000606ACE18B10008F0CFFF002800D18AE77D
:1012E0006062666021687FE7981A0020100F002076
:1012F0008C1A0020881A0020901A0020D8040020A0
:101300002C25011090130020BC130020FF010000C9
:10131000B813002094130020A368606ACE18B100AF
:1013200008F0AAFF002800D17BE6606266602168B1
:1013300070E69F4202D1964200D90AE7884200D95E
:1013400007E7C74B18689846002800D1A6E1036854
:10135000012B00D1A2E1426A013B516803608A4639
:101360009B009B5801215360FFF752F85346002B16
:1013700000D193E1002352469361136124239460CA
:10138000E35C002B00D0B6E0029A039BB6185F41E5
:101390005B4618685968B94200DDECE000D1E7E02F
:1013A000E369002B58DA53461E605F604B4601220A
:1013B00051461868FFF72CFC002861D08269002A8A
:1013C00000D1C9E1022101E001001A009369481C23
:1013D000002BF9D1A34B18685B68BB4200DD6CE1C0
:1013E00000D167E19F4CA4689F4205DC01D1864291
:1013F00002D88C4200D360E15246002300241360DF
:1014000054609360D36013611375936143461C6805
:10141000002C6AD021686368994200D29DE0A368DD
:10142000606ACE18B10008F027FF00285DD0606226
:101430006660216892E021008B48FFF793FBA96862
:10144000BCE6B24200D97CE759468868854989687C
:101450009F4200DD7DE66CE7237A002B10D1A36A62
:101460000593002B0CD01A685B68029803998018CA
:10147000594106920793029003918F4200DC87E066
:101480005B4618685968B94200DDDBE000D1D6E060
:1014900053461E605F60734B5B68BB42ACDB00D1A0
:1014A00002E15346A3624B461C68002C16D021680B
:1014B0006368994241D3A368606ACE18B10008F00E
:1014C000DBFE00280AD05246216860624B1C236074
:1014D0008B0066601A502000FEF74EFF634A1368C7
:1014E00001331360002B00DA9AE0A96837E6200088
:1014F00005F0C2FA5DE65E4E300001F0E5F8002826
:1015000000D098E0306871685A4B1A685B688018A0
:101510005941594B1A685B6812184B4157490E687C
:101520004F68BB4200DC7FE016001F000A604B6082
:10153000029A039BB6185F4132E75246606A4B1C21
:1015400023608B001A502000FEF716FF474A1368ED
:1015500001331360002BC8DA62E0606A52464B1C0C
:1015600023608B001A502000FEF706FFA968F6E5FD
:10157000B04200D814E702000B0000900191921BCA
:10158000BB413F48FFF7EEFA5B461E685F6807E71E
:101590008F4202D1864200D972E72C21615C012979
:1015A00000D129E7022900D08BE05B461868596812
:1015B000069A079B8B4200DC8CE0059B1C69002C83
:1015C00024D0E668002E00D1CCE0013EE660002E7B
:1015D0001CD12068002806D02A4A1368013B1360FA
:1015E00005F04AFA2660237C002B0FD0264A2749B3
:1015F00013688B4200DDBAE02549013308681360A7
:1016000060610C60234A1368013B13600023059A54
:101610005046136100210022016042605246F0E60C
:101620000123A96813609AE5BB4200D080E7B2426B
:1016300000D979E77CE71848FFF716F962E7B0426E
:1016400000D825E702000B0000900191921BBB41DE
:101650000B48FFF709F95B461E685F6818E7C0464C
:10166000881A0020D804002070240110980400205B
:10167000A0040020F80E0020000F0020080F00201A
:10168000C024011090130020BC130020FF010000B3
:10169000B813002094130020A82501102021012058
:1016A00005F0D8F9824665E6334B1B68B34200D398
:1016B000F7E6A1E6B04200D894E65346A9689361E4
:1016C0004DE55B4618685968069B83421CD0029E14
:1016D000039FD8E68B4202D1824200D96DE7069B78
:1016E0008342F4D1079B8B42F1D14B4601220599ED
:1016F0001868FFF78DFA002800D05EE7029E039F6E
:101700005B4618685968BEE6079B8B42DFD14B46A3
:10171000012205991868FFF77BFA0028EED0059B97
:101720001C685A68144B18685B6893420FDC16D02B
:101730005946114E8968B6689A4200DD5CE602D1CE
:10174000844200D958E60131B14200D954E65246EC
:10175000059BA9689A6102E5020001213AE6A042D0
:10176000F5D8E5E721000548FFF7FCF94EE7200032
:1017700005F082F946E7C046D80400207024011025
:10178000F8B506001B480D0005F01EFA1A4805F0D2
:101790001BFA1A4805F018FA194805F015FA194805
:1017A00005F012FA184805F00FFA184805F00CFA7F
:1017B000174805F009FA174805F006FA164805F02B
:1017C00003FA164805F000FA154805F0FDF915482A
:1017D00005F0FAF9002E08DD0024134F02CD380081
:1017E000013405F07FFBA642F8D1104805F0ECF972
:1017F000F8BDC046342A0110502A01106C2A01108D
:10180000AC2A0110D02A01101C2B01106C2B0110E6
:10181000802B0110CC2B0110E02B01101C2C01108F
:101820002C2C0110682C0110782C0110642C011054
:10183000F0B54E464546DE465746E0B5060083B055
:101840000D0001283EDDCB4B01249B46A300EF5841
:1018500059463800984608F0CBFF00283AD0C649D0
:10186000380008F0C5FF002834D0C449380008F01B
:10187000BFFF00284BD0C249380008F0B9FF00284C
:1018800045D0C049380008F0B3FF00283FD0BE491A
:10189000380008F0ADFF002800D097E00134A642E0
:1018A00000DC1FE24346EB185F68B849380008F0D7
:1018B0009FFF002800D0BBE00122B54B01341A7015
:1018C000A642C3DC012003B03CBC90469946A24628
:1018D000AB46F0BD0134A64200DCB2E04346EB1853
:1018E0005F68AA49380008F083FF002806D101226A
:1018F000A84B1A700134A642A8DCE3E7A6493800D9
:1019000008F076FF00282ED1A24B1870F2E70234BF
:10191000A64200DCE6E04346EB185A689F681000D8
:10192000019208F087F88946824649469B4B9846C3
:101930001860596053460B4304D1019A1378302B39
:1019400000D081E103229649380008F0C7FF002843
:101950000ED10023934A5046494605F005F8434608
:1019600018605960C6E739008F48FEF77DFFC1E770
:1019700004228E49380008F0B1FF002802D18C4AB9
:101980000023E8E704228B49380008F0A7FF00286D
:1019900003D1FA2200239200DDE7042286493800B1
:1019A00008F09CFF0028A5D003228449380008F0E5
:1019B00095FF00287DD004228149380008F08EFF71
:1019C000002800D0C2E07F4A7F4BC4E77F4938003F
:1019D00008F00EFF002800D160E77D49380008F0CC
:1019E00007FF00286DD07B49380008F001FF002870
:1019F00067D07949380008F0FBFE002800D15BE190
:101A00007649380008F0F4FE002800D154E174490A
:101A1000380008F0EDFE002800D16BE7390071486E
:101A2000FEF722FF30002900FFF7AAFE00204AE758
:101A30005949380008F0DCFE00283DD1544B18709D
:101A400058E700246848FEF70FFF684805F0BCF827
:101A5000674805F0B9F8674805F0B6F8664805F03C
:101A6000B3F8664805F0B0F8654805F0ADF865488C
:101A700005F0AAF8644805F0A7F8644805F0A4F852
:101A8000634805F0A1F8634805F09EF8624805F048
:101A90009BF8624805F098F8614F02CD3800013498
:101AA00005F020FAA642F8D15E4805F08DF8002036
:101AB00009E75D4A0D234EE739005C48FEF7D4FE86
:101AC00018E7631C9E4200DC40E14346EB185F6868
:101AD0000234380007F0A2FF002800DCFCE0544B81
:101AE000186007E700245348FEF7BEFE3F4805F0A4
:101AF0006BF83F4805F068F83E4805F065F83E4849
:101B000005F062F83D4805F05FF83D4805F05CF8E7
:101B10003C4805F059F83C4805F056F83B4805F0BC
:101B200053F83B4805F050F83A4805F04DF83A486C
:101B300005F04AF8394805F047F8394F02CD38002A
:101B4000013405F0CFF9A642F8D1ADE703223A49B6
:101B5000380008F0C3FE002800D1AAE0042237496B
:101B6000380008F0BBFE002800D023E1344A354B92
:101B7000F1E6C0464C26011050260110A0260110A7
:101B8000A4260110B0260110402701107026011074
:101B9000851A0020821A002078260110B004002047
:101BA000F426011000CA9A3B80260110F826011085
:101BB00040420F00002701100827011010270110D4
:101BC0001427011000A0B83046030000442701107C
:101BD0009427011098270110F8270110FC27011005
:101BE000482801105428011058260110342A0110E9
:101BF000502A01106C2A0110AC2A0110D02A0110C1
:101C00001C2B01106C2B0110802B0110CC2B011010
:101C1000E02B01101C2C01102C2C0110682C011041
:101C2000782C0110642C0110005847F8702701101F
:101C3000AC130020BC2601101C2701102027011026
:101C4000000029F90F260200002411005F48FEF76A
:101C50000BFE5F4804F0B8FF5E4804F0B5FF5E4835
:101C600004F0B2FF5D4804F0AFFF5D4804F0ACFF44
:101C70005C4804F0A9FF5C4804F0A6FF5B4804F050
:101C8000A3FF5B4804F0A0FF5A4804F09DFF5A48A8
:101C900004F09AFF594804F097FF594804F094FF64
:101CA000584F02CD3800013405F01CF9A642F8D196
:101CB000FAE6554A554B4EE6631C9E427DDD47468B
:101CC0000437EF193A6829685148FEF789FD3A68E8
:101CD000504B02341A600DE64F483900FEF7C4FD40
:101CE0000120FCE600244D48FEF7BEFD384804F014
:101CF0006BFF384804F068FF374804F065FF374849
:101D000004F062FF364804F05FFF364804F05CFFE1
:101D1000354804F059FF354804F056FF344804F0C4
:101D200053FF344804F050FF334804F04DFF33486C
:101D300004F04AFF324804F047FF324F02CD38002A
:101D4000013405F0CFF8A642F8D1ADE600243448BE
:101D5000FEF78AFD1E4804F037FF1E4804F034FFEA
:101D60001D4804F031FF1D4804F02EFF1C4804F00C
:101D70002BFF1C4804F028FF1B4804F025FF1B48DC
:101D800004F022FF1A4804F01FFF1A4804F01CFF59
:101D9000194804F019FF194804F016FF184804F018
:101DA00013FF184F02CD3800013405F09BF8A6420E
:101DB000F8D179E639001B4832E61B48FEF754FD9E
:101DC00030002900FFF7DCFC00207CE5DC26011058
:101DD000342A0110502A01106C2A0110AC2A01107B
:101DE000D02A01101C2B01106C2B0110802B01102C
:101DF000CC2B0110E02B01101C2C01102C2C0110FD
:101E0000682C0110782C011000004F91944E0000B6
:101E100024280110B8040020CC27011050270110FD
:101E2000A42701102827011004280110002370B5F1
:101E3000924A86B01360924A2820136004F0F8FD9D
:101E4000041E17D02C2004F0F3FD6062002800D19E
:101E500004E1012323600A33A3606360894BE360DC
:101E6000894B2361894B6361894BA361894BE36192
:101E7000894B2362894B28201C6004F0D9FD041E85
:101E800017D02C2004F0D4FD6062002800D1E0E0DF
:101E9000012323600A33A36063607A4BE360804BC5
:101EA0002361804B6361804BA361804BE361804B76
:101EB0002362804B28201C6004F0BAFD041E17D05A
:101EC0002C2004F0B5FD6062002800D1D0E0012391
:101ED00023600A33A3606360774BE360704B236138
:101EE000704B6361704BA361704BE361704B236275
:101EF000724B28201C6004F09BFD041E17D02C2080
:101F000004F096FD6062002800D1ACE0012323605C
:101F10000A33A3606360684BE360614B2361614BEC
:101F20006361614BA361614BE361614B2362644B6D
:101F30001C6000F0C5FBA021012004F08BFD614A6C
:101F400000230260604A836082659822C36403654F
:101F500040608050103A835002009832026601229D
:101F6000426667328354594A836210604362012299
:101F70000023574C8261C361564A574B026143614B
:101F8000200000F0A1FB00285CD12268636853495F
:101F90000868496812184B41514908684968121885
:101FA0004B4150494C680D68A34246DD15001C00AA
:101FB0000A604B604C4B4D4E1D605C604C4B4D4A73
:101FC0001D605C603560002374602800210003F010
:101FD000DDFE484A009000232800210003F0D6FED1
:101FE0006846019207F06AFD019A0100424804F038
:101FF00079FF424B1A685B68002B01DA06B070BDAE
:102000003068716812184B4100213D4804914168C5
:10201000029203930468994204DD102202A904F09D
:102020003DFDEBE7994211D08B42E7DC01D1A242A2
:10203000E4D88368002BE1D0EFE7A342BAD1AA42EB
:10204000B4D8B7E72F48FEF70FFC9EE79442E4D8D8
:10205000EAE7200004F010FD00242AE7200004F045
:102060000BFD002406E7200004F006FD00245EE7D7
:10207000200004F001FD00243AE7C0469013002040
:1020800094130020D104001009050010150500105C
:102090001D050010F904001051050010901A0020D1
:1020A000010500101105001019050010ED040010C5
:1020B00021050010981A0020E9040010881A002059
:1020C0008C1A002025050010CC250110941A002040
:1020D000A00400200000FFFFFFFFFF7FF80E00209C
:1020E000000F0020080F0020C0040020100F002067
:1020F000D004002000CA9A3BD0250110B004002073
:10210000D8040020A8250110F8B55746DE464E46F3
:1021100045464F4BE0B518689A4603684D4F012B72
:1021200058D0382291464C4A93464C4A9046426ACF
:10213000013B546803609B009B5801215360FEF7EC
:1021400067F902234A46A354636C002B03DC53D186
:10215000236C002B50D0584600F0B6FA002860D10E
:102160005A464346106851681A685B68801859419E
:102170003B4B1A685B6812184B413A498C46086819
:1021800049688B4248DD614610000A604B601900C7
:10219000226C636C002B2BDD3D687E685219734105
:1021A000994202DC28D1904226D9E36C002B2AD038
:1021B000606898475423E35C002B24D12000002161
:1021C000FEF796FB00234A46A3545346186803685B
:1021D000012BACD1244B79685A681C683D68B868FB
:1021E0009B688A4223DC20D0914227DD00201FE03B
:1021F000002B01D1002ACFD123686068984754236F
:10220000E35C002BDAD000234A46A35453461868F7
:102210000368012B8BD1DDE78B42B9D18242B2D862
:10222000B6E71248FEF720FB9AE7AC42DCD9012062
:102230003CBC90469946A246AB46F8BD914203D0BD
:10224000984280414042F3E7A542F9D90020EFE7E8
:10225000901A0020100F0020A0040020F80E00208B
:10226000000F0020080F0020D8040020A82501102E
:10227000F0B5DE4657464E464546E0B5904B85B034
:102280001B68002B00D1DDE01A68012A00D1D9E0DB
:102290005B6A5B68002B00D1D4E01C685D68894BE9
:1022A0001A68A2422AD0884E002273683168AB4275
:1022B0002EDD864B1B78002B00D17FE0814B5A68C6
:1022C000196895423ADC37D08C4200D0F4E0954250
:1022D00000D0F1E09A68316801329A607368AB42CD
:1022E00034DDFEF7E7FCFEF76BFEFFF70DFF05B0F0
:1022F0003CBC90469946A246AB46F0BD5A68AA42FD
:10230000D1D1714E9A68736801323168AB42D0DC2A
:10231000AB4201D1A142CCD8B068270084460C0062
:1023200028001D00A842C4DC01D1A742C1D86245E3
:10233000BFD83C000500BCE78C42C5D900221C6018
:102340005D609A6073683168AB42CADCAB4201D110
:10235000A142C6D89D4204DC00D185E0B368934217
:10236000BFD85B4B1A689A46002ABADD594B002445
:102370009946594B38279B4602E001349442B0DA23
:1023800049460968A3005D58002DF6D0EB5D002B8F
:10239000F3D10133EB555B461E68002E0BD031683C
:1023A000736899423FD2706A4B1C33608B001D509A
:1023B0003000FDF7E1FF53461A68DEE7474F38006B
:1023C00000F082F900284BD138687968444B454FBA
:1023D0001A685B6880185941434B1A685B68121889
:1023E0004B41386879688B4218DD100019003A605B
:1023F0007B6022002B00121A8B411000191E05DC95
:10240000002B00D05AE7092A00D857E700F06AF9F4
:1024100003000120002B00D069E74FE78B42E8D191
:102420008242E2D8E5E7B368706A9846884443463A
:10243000990007F021FF0028BDD043467062736009
:102440003168B1E7294B1B78002B11D01E4E0127B4
:1024500034687568B3687F429C4625483A0061E756
:102460002448FEF701FAAFE78C4200D876E778E718
:10247000144B154E19685A689B68009101330192FC
:10248000029334687568954210DC01D18C420DD8F6
:10249000B0688446AA4204DC01D1A14201D8634558
:1024A00004D301277F4212483A003BE710226946D5
:1024B000300004F0F3FACAE70F48FEF797FBC04676
:1024C000981A0020100F0020D8040020821A002043
:1024D000B4130020B0130020901A0020A0040020A4
:1024E000F80E0020080F0020000F0020851A0020A1
:1024F000FFFFFF7FA825011030240110F8B54546E5
:10250000DE4657464E465E4BE0B50D0019685D4B02
:1025100004001868FFF78CF9002800D19FE029001B
:102520002000FFF785F9002800D198E0564807F011
:102530006DFA002800D08BE05449022008F01AF907
:10254000FFF774FC0021524C5248A1600131524BFC
:10255000017052481A6800685B6822606360002559
:10256000002808DD4E4B1D68002D03D03823EA5C9F
:10257000002A4BD02CCC4B4948680C6898420EDDA1
:10258000FFF7C2FD002803D0FFF772FE0028FBD141
:1025900000203CBC90469946A246AB46F8BD984206
:1025A00001D19442ECD8834203DC55D08B68AB4216
:1025B000E6D83D4B1A689A46002AE1DD3B4B0024E1
:1025C00099463B4B38279B4602E001349442D7DAC8
:1025D00049460968A3005D58002DF6D0EB5D002B3D
:1025E000F3D10133EB555B461E68002E0BD03168EA
:1025F000736899421DD2706A4B1C33608B001D506A
:102600003000FDF7B9FE53461A68DEE7E954284B5F
:102610001E68002EAED031687368994222D2706A6B
:102620004B1C33608B001D503000FDF7A5FE2CCCF9
:10263000A1E7B368706A984688444346990007F05A
:102640001BFE0028DFD04346706273603168D3E719
:102650001848FEF787FA6FE7A242A7D9A9E7012039
:10266000404296E7B368706ACF18B90007F004FEDD
:10267000002800D17EE7706277603168D0E7C046FD
:10268000EC150020E8150020610E0010E13B001061
:10269000100F00207E1A0020D0040020AC0400207F
:1026A000941A0020D8040020B4130020B013002096
:1026B000901A00202026011010B5FFF71FFF10BD53
:1026C00010B504F01BFC10BD10B5040000F0EAFDCD
:1026D000FA220023920003F075FB20606160002065
:1026E00010BDC046FA2210B59200002303F04EFB45
:1026F00000F064FC002010BD0123D02283401206AC
:1027000093629361094A83009446402263441968A6
:10271000C0004A40C0211140802252011343196079
:10272000034B9C46052360444360704704C001404E
:1027300000400140F8B5EFF3108772B60D4E3368D4
:10274000002BFCD0BFF35F8F0725CB08C0180123F7
:102750000D40AB401D000478254007D12343037092
:10276000BFF35F8F356087F31088F8BD100001F06C
:1027700039FAC0462C0100D0F8B5CE4647468C4603
:1027800080B5EFF3108872B61D4D2C68002CFCD07C
:10279000BFF35F8F9A4219D80721012511408D4060
:1027A000D4080419267835421FD0072189460639F6
:1027B00009E04D460F001540AF40D40804192678B3
:1027C0003D00374211D001329342F2D20120404203
:1027D000BFF35F8F00220A4B1A6088F3108800282D
:1027E00007DB0CBC90469946F8BD354325701000B8
:1027F000EEE76346002BF4D0089801F0F3F9C046E9
:102800002C0100D0024B18688007C00F7047C046EB
:1028100000C006400021044B044ABFF35F8F02C38F
:102820009342FAD17047C046000100D0800100D029
:10283000044A1078431CDBB2172B00D91023137005
:102840007047C046E804002000B5054B83B0010086
:10285000009318221F230348FFF78EFF03B000BD2B
:10286000882C01107C15002083680B4810B5844625
:1028700061446244090112019A18591854684B685E
:1028800001209C4201D802D00020C0B210BD1268C5
:102890000B689A42F9D8F7E7FFFFFF0F0A4B196858
:1028A000EFF3108072B60A68002AFCD0BFF35F8F86
:1028B0001B68BFF35F8F00221A6080F3108840BF4F
:1028C000002000217047C046501A0020F8B54E463F
:1028D0004546DE465746E0B51F000CAB1D780DABF4
:1028E0001B7881469B46036816009846002D08D148
:1028F000987B002841D13CBC90469946A246AB4605
:10290000F8BD28006C006419033C384B00229C463B
:102910004B469B6860449C4600010A9B6044836070
:102920000B9B06604760C36043461B681B199A7087
:102930005A701A7043465B7B9A46002B3BD0434645
:102940002A00986851465B68984743461A680028F1
:1029500024D053465B005344033BD318141952460A
:10296000A2701A78002A00D062701D705246434649
:1029700028005A73AA45BED11FE0414644001B6897
:102980002418033C1B195A788A73002A00D1CA7391
:10299000002205009A705A701A70B6E753465B0021
:1029A0005344033BD31814199D702278002A00D099
:1029B0005A705346237043465D734B463200187D70
:1029C0003B0000F0FBFC041E07D05B46002B04D14B
:1029D0004B462900186800F045FF0E9B002B02D0E3
:1029E0001C70280087E7280085E7C046FFFFFF0F1F
:1029F000744B8200F0B5D4580023DE4657464E464D
:102A000045469B46E0B58DB00B9000F04BFC6268EC
:102A1000EFF3108572B61368002BFCD0BFF35F8F05
:102A200023689C465B7B9946002B00D181E0A2681D
:102A3000654B90464B441B01984443461E685F68B3
:102A400032003B00121A8B41002B00DC84E03B007B
:102A500032000B9800F0B2FC002300220892099388
:102A6000002300279A466368BFF35F8F5A461A60B7
:102A700085F310885346002B64D00A9B3900180256
:102A80004B461843D047626806900791EFF31088D1
:102A900072B6564645461368002BFCD0B246A8468F
:102AA000BFF35F8F0699079A002A25DA2369002B66
:102AB00028D0089D099E6D1A96412A003300089D72
:102AC000099E9E4200D971E000D173E059460491FD
:102AD000012103914946029151460197009120003E
:102AE000FFF7F4FE5B4623616368BFF35F8F5A46CE
:102AF0001A6088F3108888E71300194302D023690D
:102B0000002B46D12368DA7B002A07D051008A18AF
:102B100019688C4649466244033A51704A46DA7352
:102B2000E2684B469446013B63441A7801321A70BE
:102B3000D8E70023002208920993002300279A4631
:102B4000002090E7002800D05FE70DB03CBC904625
:102B50009946A246AB46F0BD002B02D1002A00D018
:102B600075E70021604600F0D1FD43461A685B68B6
:102B70000892099343469B689A464346DF68E36898
:102B80004B44013B1B780A931B0218432061002031
:102B900069E700F087FB069A079B12184B419942A0
:102BA00004D800D092E7904200D88FE70122524229
:102BB000D3178BE7954200D888E701225242D317FA
:102BC00084E7C046301A0020FFFFFF0F10B5124CFB
:102BD0006368002B04D00A21104800F07DFC10BD72
:102BE00023000F4A1021206800F072FD032000F03E
:102BF0004DFB032000F050FC0A49032000F098FB35
:102C0000FFF716FE084B9C46032360442375074BD1
:102C100080006060DC60DEE7EC040020501A0020D9
:102C200069280010F129001040000034301A0020FB
:102C300000487047EC040020F0B55746DE46454694
:102C40004E46E0B585B00092019310AB1B780700AB
:102C50009B4600239A4698467A68EFF3108972B62D
:102C60001368002BFCD0BFF35F8F3E68B47B002C51
:102C700000D173E065002D193368033D5B195A7864
:102C8000B273002A00D1F27342469A705A701A70D9
:102C9000BA68504B94460099019AE3181B016344AB
:102CA00019605A600E9A9A600F9ADA604246336849
:102CB0005B199A705A701A70737B0393002B00D1C2
:102CC00076E0190073682200B0689C46E0473268DD
:102CD00000285ED003985519844643006344033BA3
:102CE000D318A8701A78002A00D06FE01C70707397
:102CF00084425ED0FB681B19013B18787B68BFF3E8
:102D00005F8F42461A6089F310885346002B08D122
:102D10000002204305B03CBC90469946A246AB4613
:102D2000F0BD5B46002B53D00E9B0F9900209847B7
:102D3000030004000D000B434AD0002917DA009865
:102D4000019902000B00121BAB4199421AD801D124
:102D5000904217D800920193DA467DE77B68BFF373
:102D60005F8F1C6089F3108801204042D2E700F099
:102D700099FA24184D4100940195A94202D8EBD14B
:102D8000A042E9D901235B42DC17DA4600930194A3
:102D900062E7039955198C464B006344033BD318F3
:102DA0009C702A78002A00D05A706B461B7B2B70CF
:102DB0007473387D009A019B00F000FB8246002866
:102DC00098D02100386800F04DFD93E76A708DE7D8
:102DD00000209FE7FFFFFF0FF0B557464E464546E0
:102DE000DE460400E0B50D0006267642F7173619D8
:102DF0006F4185B08F4255D852D000F053FA32005F
:102E00003B00121A8B41002B56DD674B9A465A68DD
:102E1000EFF3108B72B61368002BFCD0BFF35F8FFB
:102E200053461B6899469B7B9846002B49D15346D5
:102E30005B68BFF35F8F00221A608BF310884346F4
:102E4000002B11D0BC46B046009401950026654683
:102E5000564F574A7B6AAB4211D3B96A414501D2FA
:102E6000AB420CD0009C019D2000290000F050FADC
:102E700005B03CBC90469946A246AB46F0BD1168F1
:102E8000EFF3108072B60B68002BFCD0BFF35F8F9E
:102E90001368BFF35F8F1E6080F3108820BFD9E7EF
:102EA0008642AAD90026002700F0FCF932003B0038
:102EB000121A8B41002BA8DC002BD5D1002AA4D1FB
:102EC000D2E75B0043444A46033B9C4649461268AE
:102ED0000093624453788B73002B00D1CB73002393
:102EE00051469370537013708968324A8C4642443D
:102EF000314912016244166057609160D3600099B5
:102F00004A468C46126862449370537013704B4665
:102F10005B7B0393002B35D0190048464B46424655
:102F200080685B689847002819D003980099844608
:102F30004A46430063448C4669461268097B033B5A
:102F4000D318624491701978002900D0517042461C
:102F50001A704B465873804500D068E715E04B4621
:102F600003981A688446009BD11843006344033BCE
:102F7000D31842469A700A78002A00D05A706B46DD
:102F80001B7B0B704B4642465A7353463200187DEA
:102F90003B0000F013FA002800D148E753464146B1
:102FA000186800F05FFC42E7EC0400200040054098
:102FB000501A0020FFFFFF0F9D28001070B504007D
:102FC0000D0000F06FF902000B00200029008018AE
:102FD00059418B4205D901204042C117FFF7FCFE41
:102FE00070BD8B42FAD18242F5D8F7E770B5060082
:102FF00000F058F9FA2204000D009200002330007E
:10300000002103F0B1FC001969418D4205D901206E
:103010004042C117FFF7E0FE70BD8D42FAD18442F5
:10302000F5D8F7E7F0B54E464546DE465746E0B5DB
:103030006A4C83B0814688466268EFF3108A72B6A4
:103040001368002BFCD0BFF35F8F2668B57B002D83
:1030500046D06F007F193368033F0195DB195A781A
:10306000B273002A00D1F27300229A705A701A705B
:10307000A1685B4B8C464946EB181B016344196001
:10308000414659605749DA6099603368DB199A7094
:103090005A701A70737B9B46002B00D189E02A007E
:1030A0001900B068736898473268002800D173E04F
:1030B0005B465B005B44033BD318D7195A46BA7092
:1030C0001A78002A00D07A701D705B4673735D45D4
:1030D00000D16FE00026E3685B19013B1B7802E03A
:1030E0000023002601936268BFF35F8F0021116007
:1030F0008AF31088002D44D0002E42D1019A1B0281
:10310000134320BF6168EFF3108772B60A68002A84
:10311000FCD0BFF35F8F2068D9B2427B8A4256D081
:10312000FF221A405500AA4605689244AC4655460F
:103130006544033DAD78002D29D0E5681B0AAC46F7
:103140006244013A12789A4244D06368BFF35F8FB9
:1031500000221A6087F31088234A536A984508D8DA
:10316000926A01264A4504D24246D31A5E1EB341F2
:10317000DEB2300003B03CBC90469946A246AB4656
:10318000F0BD194A0026536A9845F2D8E8E722694B
:103190009342DAD12561D8E75B465B005B44033B91
:1031A000D318D7199D703A78002A00D05A705B4620
:1031B0003B707573207D4A46434600F0FFF8061EBB
:1031C00000D187E72900206800F04CFB83E7FF224D
:1031D0001A40B2E700F046FBB7E7C046EC04002017
:1031E000FFFFFF0F9D28001000400540F8B5CE46B8
:1031F000474680B5EFF305833F221340180010388F
:10320000EFF3108C72B61B490A68002AFCD0BFF39A
:103210005F8F01210F008740174D184A6F631478A4
:1032200091462200C24090464646002231420BD0D1
:10323000696A134D884681004D59A84512D3114B38
:10324000BC43CA584B461C70BFF35F8F0021094B2B
:1032500019608CF31088002A00D090470CBC90466F
:103260009946F8BD08499B0088464344196819608F
:10327000EAE7C046280100D000400540861A002039
:103280005C1A00206C140020D03F054010B50100EE
:10329000024A0348FFF74EFA10BDC046B02C011099
:1032A000811A0020044A516A00E01900906A536AAA
:1032B0009942FAD17047C04600400540134A30B5E4
:1032C000546A00E01C00956A536AA342FAD12A00AE
:1032D0002300801859418C4211D80ED00C000B4AA3
:1032E000536AA342FCD307D1084A02E0516A9942CB
:1032F00002D1916A8142F9D330BD8542EED90124D1
:1033000001204042C1176442E9E7C0460040054041
:10331000064A536A9942FCD807D1044B02E05A6A24
:10332000914202D19A6A8242F9D370470040054027
:1033300070B504000D00EFF3108672B61A4A1368D8
:10334000002BFCD0BFF35F8F002D1BD0200000F0BE
:10335000E5FD164988420AD0200000F0E7FD012172
:10336000200000F0C1FD0123A340114A1360114B5E
:10337000A400E550BFF35F8F00220B4B1A6086F369
:10338000108870BD0B4BA200D5500122A2400A4903
:1033900020000B7893430B70044900F0F1FD0021ED
:1033A000200000F0A1FDE5E7280100D0ED3100107C
:1033B000386005406C140020861A0020F0B5D6460F
:1033C0004F4646462F4CC0B5656A00E00D00A66A20
:1033D000616AA942FAD1AB4249D9EFF3108972B6BA
:1033E000294C21680029FCD0BFF35F8F01262749B3
:1033F00086408C460978264D0F0037438846F9B23F
:103400008A46614654460C701E49041DA4004E6352
:103410006250840063510D6A002435421AD04D6A0F
:1034200000E025008F6A4C6AAC42FAD1AB4224D846
:1034300001D1BA4221D8D04521D0124B154A1E6283
:103440005E631F2318401E3B834013606346424661
:1034500001241A70BFF35F8F00220B4B1A6089F3AF
:10346000108820001CBC90469946A246F0BDAB4295
:1034700001D1B242B1D80124F3E70024EAE70124E4
:10348000E8E7C04600400540280100D0861A002029
:103490005C1A002080E200E010B5EFF3108472B6F1
:1034A0000A490B68002BFCD0BFF35F8F01238340D8
:1034B000074A0848136202789A430270BFF35F8F8D
:1034C00000230B6084F3108810BDC046280100D093
:1034D00000400540861A0020024B9C46614489004A
:1034E000016070474000003410B50400FFF7A0F9F8
:1034F00001002000FFF7F0FFFF232371BFF35F8F70
:1035000010BDC04610B50400FFF792F9010020007D
:10351000FFF7E2FFFF23237100236371BFF35F8F87
:1035200010BDC04610B504000120FFF78DF9044B13
:103530009C46604480002060BFF35F8F10BDC04692
:1035400040000034F8B54E464546DE465746E0B5E5
:103550004C0064180368033C1A190D0051780600EA
:103560008946002906D128003CBC90469946A246CF
:10357000AB46F8BD4F004F44033FD8194178884609
:10358000002141705170002D12D073684A46290005
:10359000B06898473368002873D0DF191A19BD70D6
:1035A0001178002900D0797049462700117000E099
:1035B0004D464246002AD6D054004444033C1A19D2
:1035C00051788946002911D1736842462900B068B4
:1035D00098473368002849D01C19DF19A5703B783B
:1035E000002B00D0637043463B70BCE74900494460
:1035F00003398A46534459788B46002159705170DB
:1036000073684A464146B06898473368002843D1FA
:1036100052461C199A184B46A3701378002B00D001
:10362000637043465446C84613705B46002BCBD0AC
:1036300059463000FFF786FF81460028C4D00200BB
:103640004146B06873689847326800282FD04B46CF
:103650005B004B44033B1119D31842469A700A7819
:10366000002A00D05A704B460B70ADE71C19DF19C9
:103670004346BB702378002B00D07B7025704546F5
:1036800071E749461C19DA19A1701178002900D098
:10369000617015704D468CE741461A195344997074
:1036A0001178002900D059704B461370BDE74B4686
:1036B0005B004B44033BD11814194A46A2700A78A8
:1036C000002A00D0627042461C000A70C8467BE7A0
:1036D00010B583600023CCB243730133047342609E
:1036E0008373C4730068012C07D90123421C013382
:1036F000DBB2137003329C42F9D8FF2319404B0010
:103700005918002340180338437010BDF0B54E46D9
:1037100057464546DE46E0B5477B03687C00E41922
:10372000033C1A19167883B005008946002E1ED175
:10373000002911D0C07B002869D041000918591810
:1037400003394F70EF73002E06D0710089190339C9
:1037500088460021434499700023380053706E73EB
:1037600003B03CBC90469946A246AB46F0BD710002
:10377000891903398846591848788246002807D1A4
:1037800049460029E5D0E87B0028D6D1EF73DCE775
:1037900042005244033A9446019263445A78934655
:1037A00000225A704A706B6852463100A8689847E8
:1037B0002B68002832D0414601985A1819188E708B
:1037C0001078002825D1514611705A46002A23D07E
:1037D00059462800FFF7B6FE824600281BD002009B
:1037E0006B683100A86898472B68002825D04246AE
:1037F0009918524652005244033A9A189670087823
:10380000002800D0507052460A701A19B8E7EF73BA
:10381000A2E74870D7E72B681A19B1E7414650462E
:10382000019A59189A1888701078002800D04870AA
:103830001670019A56469046C7E7524651005144C9
:1038400003395A18404693465246181882705A4611
:103850001278002A00D042705A46884616701A190B
:1038600056468DE7F0B54546DE4657464E46E0B52E
:103870000C0083B00500002200293DD0477B016881
:10388000BC426BD066003619033E88198378002B42
:1038900032D05A00D318033BCB181A78944202D185
:1038A00043E0002A08D053009B18033BCB185A78FA
:1038B0009442F6D142785A700023837043700378A3
:1038C0009846002B25D1EA7B002A1DD053009B1877
:1038D000CB18033B5C704346EC73002B00D171E0C6
:1038E0005C0000234444033C09198B704370002F93
:1038F0001ED1434601226B73100003B03CBC9046BE
:103900009946A246AB46F0BDB846EC73002343701F
:10391000EFE719002800FFF715FE2968EA7B8046CB
:103920006F7B8819002AD6D0D0E742781A70C3E797
:1039300042463900A8686B6898472A68002824D056
:103940007B00DB191419033BD318A7701A78002ADF
:1039500000D062704246B8461A70CAE77E00F61977
:10396000033E8B191878804600281BD1E87B00287D
:1039700004D0420012188A18033A5470EC730022E3
:103980005A70434601326B73B6E77B00DB19033B89
:103990001419D31842469A702278002A00D05A701F
:1039A0002770A6E744004444E01E019008184478BC
:1039B000A246002C08D1EC7B002C76D1EF730022BC
:1039C0008270DCE7B846A1E763005344033B9946A5
:1039D00049444B784A7042709B4622006B684146CE
:1039E000A86898472B6800284BD049464046019C60
:1039F00059181A1988701078002850D15146A146DC
:103A000011705A46002A20D059462800FFF79AFD27
:103A1000041E19D002004146A8686B689847002828
:103A20001ED04A4641462B68981862001219033A84
:103A30009A1891700178002900D051700470E97BC8
:103A4000002905D19B19B9E72B684A469818F6E773
:103A50004A0052189A18033A57709B19EF73AEE751
:103A60004B462968600000190338CB1808189C7071
:103A70000278002A00D05A704346A04603708B1982
:103A800099E74A469818019A9C185246A270027803
:103A9000002A00D062704246D0460270B1E74870FA
:103AA00051461170019A9146ABE7032262438A188E
:103AB000033A577082E7C0462D4A2E4B70B51A6004
:103AC0002D4A2E4B2E491A6010008B689843FBD16B
:103AD0002C4E2D4B9E420AD2F5430024ED18AD0822
:103AE0000135A300F35801349847AC42F9D100F0F6
:103AF00097F8264A214B1A60214A9368DB018033EC
:103B0000FBD14022224B234C234D9A675A671A67F8
:103B1000DA66AC4208D223682000002B22D0083499
:103B2000FFF7F0FCAC42F6D31C4D1D4CC022A1683F
:103B3000280002F0B3FFA560FEF76CFE00F058FB12
:103B4000FFF744F8174E184B9E420AD2F543002463
:103B5000ED18AD080135A300F35801349847A5428C
:103B6000F9D170BD0834FFF7BFFCAC42D3D3DBE71B
:103B7000BFCDFBFE00E00040FE7F3C0000F00040B7
:103B800000C00040DC0E0020EC0E0020FFFFFF0113
:103B900000F00140D40E0020DC0E002000000020C8
:103BA00000ED00E0EC0E0020F40E0020094A13683E
:103BB000002B06D008491818884208D81060180051
:103BC0007047064B0449181813608842F6D9012043
:103BD0004042F5E72016002000000420601D002070
:103BE00000BEFDE70FB400B5084883B002F0ECFF5B
:103BF000049B002B07D005A91800019102F026F8BC
:103C0000034802F0E1FF00BEFDE7C046E02C0110D2
:103C1000642C011010B50148FFF7E4FFD42C01100B
:103C200030B50C2083B000F053FBFEF7EBFD00280D
:103C30000ED0964B964A1A605A609A60DA601A6102
:103C40005A619A61DA611A62924A5A6203B030BDCF
:103C5000914CA06700F08EFB0122904B1A60636CC0
:103C6000012BFCD103228E4B1A608B4A936B012BE4
:103C7000FCD1022405338B4A01218B48009400F0CB
:103C8000DBFA0523894A00940121894800F0D4FA1F
:103C9000884B5A68FF2A02D8802252005A6080223C
:103CA0007A4C7F4B21691201824D1A60002900D0A5
:103CB000E5E0E0217F4B02201A681140802252018A
:103CC0002A43116019684840032101401160042112
:103CD0009A681142FCD08022802192012A43090176
:103CE0001160802252005A60734B2361734B5968F4
:103CF000FF2900D8C1E00322684B70481A600121F7
:103D000003009A681142FCD0E0251A681540802211
:103D10005201024315601B684B400321194011609A
:103D20000221664A93681942FCD0802380219B01BE
:103D30000343090119608021614B490051606361AF
:103D4000604B5A68FF2A00D8596080225E4BE169B7
:103D500012015C4D1A60002905D0606901F0F0FF86
:103D600001300138FDD1E02256490B681A4080230A
:103D70005B012B431A60802380229B012B4312019D
:103D80001A608022424B52004A60E3614F4B5968EF
:103D9000FF2900D85A6080224D4B216A12014B4DF9
:103DA0001A60002905D0606901F0CAFF01300138AE
:103DB000FDD1E02245490B681A4080235B012B436B
:103DC0001A60802380229B012B4312011A608023FA
:103DD0005B004B602E4B3F4A23623F4B5968914238
:103DE00001D801325A6080223C4B616A12013A4D7F
:103DF0001A60002905D0606901F0A2FF0130013886
:103E0000FDD1E02234490B681A4080235B012B432B
:103E10001A60802380229B012B4312011A608023A9
:103E2000DB024B601B4B63622D4B5A68FF2A02D8A2
:103E3000802252005A6080222A4BA1691201284D2B
:103E40001A60002905D0606901F07AFF013001385D
:103E5000FDD1E02222490B681A4080235B012B43ED
:103E60001A60802380229B012B4312011A60802359
:103E70005B004B60124BA361E8E65A603BE7606968
:103E800001F05EFF01300138FDD112E780150020FE
:103E9000006CDC021BB70000008000403CB000401A
:103EA00030B00040002F68590080024000389C1C50
:103EB00000C0024030800040001BB7003C80004042
:103EC000405973075480004054B000406080004067
:103ED00060B00040FFFF03006C8000406CB0004009
:103EE0004880004048B0004001238340002902D1AF
:103EF000034A13607047034A1360034A1360F9E7EB
:103F000080E100E080E200E000E100E00123834086
:103F1000014A13607047C04600E200E0024B1030D7
:103F20009B688000C058704700ED00E070B50D0040
:103F3000EFF3108672B60F4A1368002BFCD0BFF364
:103F40005F8F0D4B10309B6884001B590B4A9342C6
:103F500003D09D4201D0FFF75DFE074B9B681D51CA
:103F6000BFF35F8FBFF35F8F0022024B1A6086F3AF
:103F7000108870BD240100D000ED00E0CD010010DC
:103F8000F0B54546DE4657464E46E0B50D0083B0D7
:103F9000EFF3108B72B65C4A1368002BFCD0BFF3B2
:103FA0005F8F1022904680444246584B97009B6892
:103FB000DE59574B99469E4206D0AE4200D17DE075
:103FC000544C331B2F2B12D9504B9B68DE51BFF33F
:103FD0005F8FBFF35F8F00224B4B1A608BF310880B
:103FE00003B03CBC90469946A246AB46F0BD0123C7
:103FF00083409A465246484B1B681A4000925246EC
:10400000464B1A60BFF35F8FFCF72DF90190002833
:1040100049D1012332009A43414913001B1B5B41E4
:104020005943090D93689D424DD006201056002833
:1040300005DA31E0062018561A0000282CDB430070
:104040001B189B00E31898688542F3D10620185688
:1040500000283BDB42001118890065188846A968D2
:104060009960E979D971062169569971A9797F29F1
:1040700026D8AD88E11A6D052D1545444919E0256E
:104080000905490D2D02294399801218254B9200EC
:10409000A4181A781870A271009B002B08D1524600
:1040A0001E4B1A6090E78045B3D0FFF7B3FDB0E731
:1040B00052461D4B1A60184B1A6085E71E0083E7B5
:1040C000BD210902E0E713000022BFE701980028A4
:1040D0000AD1002A15D0FF30907114489080114AFF
:1040E000107811709871D7E7114A1249D21A083A1C
:1040F0005002400D014399800F4952080A43DA806B
:10410000CAE74E46EBE7C046240100D000ED00E0D0
:10411000CD0100101405002000E100E080E100E086
:10412000AAAA0000831A002080E200E000BDFFFF81
:104130004E05002000F0FFFF00F8FFFFF8B5012555
:1041400004000543FCF78FF8EFF3108672B6214A9E
:104150001368002BFCD0BFF35F8F1F4A1F4B210059
:10416000891A49414B431B0D1D4980008F685BB282
:104170003F58BD4226D006215156994226D01221E1
:104180005156994224D01E215156994210D02A21CD
:104190005156032099420CD0124A11781370A17124
:1041A000BFF35F8F00220B4B1A6086F31088F8BDB7
:1041B00002204100091889005218FF2191710A4913
:1041C0009180E9E78A6809491150E5E70020F0E7A6
:1041D0000120EEE7240100D014050020AAAA000067
:1041E00000ED00E0831A002000BDFFFFCD010010AC
:1041F000084B094A1360094A1360094A1360094AC7
:104200001360094A1360094A1360094A1360094A96
:10421000136070478080808000E400E004E400E0E8
:1042200008E400E00CE400E010E400E014E400E046
:1042300018E400E01CE400E0F8B504000C201700CE
:104240001D000E0001F07CFD1C494143380001F0C7
:1042500077FD069A2B04120313432268002A1CDB05
:10426000174A8021944226D04901164A164D116002
:10427000164A11600F00AA689743FBD1C021221D86
:104280008901114321222660A0600A602268002A69
:10429000FCDAE36008230B60F8BD3F2221680A4086
:1042A0009642DDD1A2681205120D9042D8D1E26883
:1042B000002BD5D1F0E78901D7E7C04640420F0077
:1042C00000C0024000E0004000C0004000F000409C
:1042D00080239B001843014BD86270470080054043
:1042E00010B580241A4BE4051C6000281AD0012365
:1042F000184C1843184BDC61184C44401C6259623E
:1043000098628021124BC90519601548154908604B
:10431000E021C9041960002A07D18022124B12063D
:104320001A6010BD0C4BD861EBE7FA23DB005A434F
:104330000E4B9A4208D80E4B1A60074B5A608022E7
:10434000094BD2051A60ECE7094A13601A00F4E73A
:1043500000B00540D3C007B0008005402D3FF84FA6
:10436000FCFF01000820014000A00540FFFFFF0006
:10437000281A0020AA23064A1B0113602F2305498F
:10438000D360054B19605368002BFCDA7047C046B8
:104390000040024000B0FA00006002409A4200D2A1
:1043A000885470477047C04610B5002803D04A684B
:1043B0000B681100984710BD10B5002800D110BD42
:1043C0000B4B1C68A2689368013B9360002B04DBD5
:1043D0001368591C11601870F1E791698B4201DB79
:1043E0000A28F5D10100200008F064FAE7E7C0468A
:1043F000C0050020F0B54546DE4657464E46E0B5BE
:1044000083B099460EAB1D78119B88469B460223CC
:10441000129900920B4007000D9C109A0193002BFB
:1044200028D15B46002B00D092E0944222D2012694
:104430000E401F2C1ED80C9B30201B1902E00133AC
:10444000202C03D001341870A242F8D8002E11D0CD
:10445000A3450FD90C9B30201B195E461F2C04D995
:1044600087E00133202C00D1A7E001341870B4425A
:10447000F7D1A346CB0611D54B0502D4002C00D0B2
:104480007CE00F9B102B00D1A0E0022B00D1A7E015
:104490001F2C11D830230C9A135501341F2C0BD824
:1044A000002D00D079E04B0700D588E00B0733D50D
:1044B00020230C9A135501348B0730D0009E250021
:1044C000A24632004446B0460C9B013D561C585D46
:1044D00021004B46B8473200002DF5D14646A04694
:1044E00054463619019B002B0ED0009D731B5B4573
:1044F0000AD23200444601364B4621002020B847FC
:104500003200731B5B45F6D3300003B03CBC9046D1
:104510009946A246AB46F0BD009E8B0715D15C457F
:104520006ED2009A0D9413005B441D1B0D9B4446F4
:104530009846561C4B4621002020B8473200B54211
:10454000F7D14346A0461C000D93002CB7D1C9E714
:1045500001260E4028D0002D2AD10C230B4227D152
:10456000944200D374E71F2C00D864E7A34500D819
:1045700080E7CB06A0D54B0500D582E7A24202D04A
:104580005C4500D07DE7631E002B3BD00F9A023CB8
:10459000102A1BD01C00130077E72D230C9A13550B
:1045A00001348B07BBD089E7944200D241E761E731
:1045B00001235B429C46E344D2E7B346D9E72B2371
:1045C0000C9A135501348B07A9D077E78B060FD4CB
:1045D0001F2C00D970E778230C9A1355013457E744
:1045E0001F2C00D968E70C9A6033135501344FE74C
:1045F0001F2C00D960E758230C9A1355013447E764
:10460000009EA2E700243CE7F0B5DE4657464E4642
:104610004546E0B597B005000E0093461F00209A6E
:10462000219B1000190001F064FE002800D0D5E2A3
:10463000209821990122BD4B524201F03FFE0028F3
:1046400000D081E1209821990122B94B524201F01A
:104650004BFE002800D017E1209821990022B54B8D
:1046600001F042FE002800D0BCE1209821990022F0
:10467000B14B01F023FE002800D0B3E1209821992E
:104680000022002301F01AFE002800D054E200238B
:104690000D938023249ADB001A40914600D007E254
:1046A0000023A64C0893099406240EAB0793209888
:1046B000219901F049FE80460C9001F02DFE020088
:1046C0000B002098219901F07EFD089A099B01F0CA
:1046D000AAFD0A900B9101F05BFE824601F018FEE4
:1046E00002000B000A980B9901F06DFD0022944B1B
:1046F0000A900B9101F0F8FD002800D1C5E10123DB
:104700009C46E244504601F003FE089A099B01F0E2
:10471000E3FD002800D030E2002C00D074E10C9CB6
:10472000200001F0F9FD02000B002098219901F012
:104730004AFD0022824B0890099101F0BFFD00283C
:1047400000D10AE24B46202B00D196E15C1C0C9B69
:104750000A211800984601F0CBFA4A46079B3031EF
:10476000995440460A2101F0C3FA079B80469946B6
:10477000A14400281BD02A00330025004E464446A1
:1047800099469046202D00D125E220000A2101F013
:10479000AFFA3031317020000A2101F0A9FA013559
:1047A000040001360028EDD12C004E464546032377
:1047B000249A1340012B00D19BE120229246202C09
:1047C0000CD00D9A002A00D0C1E1249A520700D4DF
:1047D0004CE2621C92462B2207990A555A460892CF
:1047E000002B17D1239B9A4500D34FE25B441C005A
:1047F0005346E41AB84637002E002500541C4346A1
:1048000039002020B0472200AC42F7D135003E00ED
:104810004746089453465C1E079B08AA9C461723EC
:10482000644494466344B946984637002E00089A7B
:10483000551C20784B463900013CB0472A00A04562
:10484000F6D1089B350053441C00249B3E009B0777
:1048500012D55B46239AE31A9A420DD91300C84633
:1048600022005F4699460134434631002020A84784
:104870002200E31B9945F6D8200017B03CBC9046B7
:104880009946A246AB46F0BD249B5B0700D5A4E049
:104890002C4B9A4603230793249BD8469B0719D198
:1048A000079B23998B4200D3ECE15A469B1A98460A
:1048B000239B99463B0031002020541CA8474346C7
:1048C0001B1922009945F5D8239B5B441C00079BCC
:1048D000E31A9846B14642465646BA462F00079C10
:1048E000013C551C305D53464946B8472A00002C10
:1048F000F6D1079B3D0043441C00249B4E469B077A
:10490000BAD55B46239AE31A9A42B5D91300D0462A
:1049100022005F4699460134434631002020A847D3
:104920002200E31B9945F6D8A6E7C046FFFFEFFF3C
:10493000FFFFEF7F65CDCD4165CDCDC180842E4198
:104940000000E03FD82E0110249BD8469B0716D1CB
:10495000239B042B00D897E11C1F5C44B8465A46A1
:1049600037002E002500541C434639002020B04754
:104970002200AC42F7D135003E004746A046CE4B60
:10498000B9464246370004249A462E005346013C5D
:10499000551C185D39004B46B0472A00002CF5D154
:1049A0004446249B350004343E009B0700D463E753
:1049B0005B46239AE31A9A4200D85DE71300C84683
:1049C00022005F4699460134434631002020A84723
:1049D0002200E31B9945F6D84EE7B84B9A460423CC
:1049E000079359E7249B5A460493239B3100039372
:1049F000229B28000293209B219C009301943B0062
:104A000000F064F9040037E74B46202B35D0631ED5
:104A100098464B460A2150465C1C01F091F94A46E3
:104A2000079B3031995450460A2101F089F981469B
:104A3000002800D1B6E0079B9A463B00A2444746B7
:104A4000A84625004C46B14656469A4610E020003E
:104A50000A2101F075F93031317020000A2101F08E
:104A60006FF9013F013504000136002800D194E0C0
:104A7000202DECD145464E4657460323249A134039
:104A8000012B35D020229246A8E600220A980B99E5
:104A90008B4B01F013FC002800D03DE65346002B61
:104AA00002D0DB0700D437E601239C46E24433E61C
:104AB000229B092B00D8F2E00122302391460EA858
:104AC0000370229B07905C1E2F32093B494604E08D
:104AD00042540131013C202901D08B42F8D1794B5D
:104AE000E2009B181A685B68894608920993DEE524
:104AF0002024239B002B47D00D9B002B03D1249A0D
:104B00000C33134202D0239B013B2393239BA342EC
:104B10003AD9202C00D1BDE0302221001800079B9B
:104B20001B1901311A7088422DD001332029F8D188
:104B30005B468A4608936DE6209A219B002000215F
:104B400001F041FB0123209021910D93A1E5621C0E
:104B500092462D2207990A5540E6002208980999A5
:104B6000574B01F0C1FB002800D0EBE50123A44620
:104B700023409C4463460C93E4E5434601330C9385
:104B800000239A46C8E5239C0123202C00D018E678
:104B90001F339A465B4608933CE62C004E4645463A
:104BA000B8465746202C00D167E742464046079B4F
:104BB00011191B193022002807D001341A70202C3B
:104BC00000D15AE701338C42F7D1631C99462E235A
:104BD000079A1355B6E545464E464EE7249BD84600
:104BE0009B0715D1239B032B52D9DC1E5C44B8468E
:104BF0005A4637002E002500541C43463900202019
:104C0000B0472200AC42F7D135003E004746A046EF
:104C10002D4BB9464246370003249A462E00534690
:104C2000013C551C185D39004B46B0472A00002C4A
:104C3000F5D14446249B350003343E009B0700D445
:104C40001AE65B46239AE31A934200D314E6130054
:104C5000C84622005F469946013443463100202071
:104C6000A8472200E31B9945F6D805E6249AA246F8
:104C7000120700D4B2E50122944607991F32E2449C
:104C80000A55ABE5D84625E6D84678E60892C1E550
:104C9000D846BDE720239A465B460893BAE5DA007A
:104CA000084B9B185C681B6808930994002399467D
:104CB0000EAB229C0793FAE4E02E0110D02E0110D7
:104CC0000000E03FE82E0110DC2E0110F0B54E464A
:104CD0004546DE465746E0B59BB00A93249B814685
:104CE0001C000B93259B09911D000D920C93002233
:104CF00000232000290001F0E1FA002800D093E110
:104D00000B9A0C9B92469B468023289ADB001A4004
:104D10000E9201D10623269356465B46334300D1BB
:104D200048E15B465800C94B400D9C46604401F089
:104D3000F3FAC74AC74B01F076FAC74AC74B01F0EE
:104D40004BFA5B46C64A1B031B0B1A4304000D00BB
:104D5000C44B11005046002201F035FAC24AC34B41
:104D600001F061FA02000B002000290001F034FA82
:104D700001F0EAFA804601F0CFFABD4ABD4B0400CB
:104D80000D0001F050FA0022BB4B01F025FA01F0B2
:104D9000DBFABA4A0600BA4B2000290001F043FAB8
:104DA000040030000D000F9601F0B6FAB54AB64B7C
:104DB00001F039FA02000B002000290001F003FA8B
:104DC00002000B0006000F0001F02DFA3200040073
:104DD0000D003B003000390001F0FEF90022109078
:104DE0001191AA4B2000290001F0FFF90022A84BE5
:104DF00001F0F2F902000B002000290001F0F5F9A2
:104E00000022A44B01F0E8F902000B002000290069
:104E100001F0EBF90D008021320004003B0000207E
:104E2000C90501F0D0F902000B002000290001F0B3
:104E3000D3F902000B001098119901F0D6F9002265
:104E4000874B01F0C9F9944A0F9B944663440022B2
:104E50001B0501F0E8F906000D0002000B005046AA
:104E6000594601F02BFA00280BD001235B429C46E7
:104E7000300029000022864BE04401F0B6F906001C
:104E80000D004346C62763339F42BF41289B7F42A4
:104E900004371B0500D5ACE0279B00249F4200D2BD
:104EA000DC1B0223289A1A400E9203D07B427B41DE
:104EB0005B421C404346002B07D050465946320007
:104EC0002B0001F092F982468B46002200230B98BA
:104ED0000C9901F0F3F9002800D0A0E0289A6F4B5C
:104EE000039413400493269B524602935B46099910
:104EF0000092019348460A9B0D9AFFF785FB040038
:104F0000002F4FD0289B65209B066CD4631C220089
:104F10009A4609990A9BC8474346DA179D18DB0F42
:104F200098467B1E55409B46002412AF02E0340099
:104F3000202E0DD028000A2100F002FF661C30311F
:104F40003C19217028000A2100F0FAFE051EEED15E
:104F5000052306935B460593002304930A330393CA
:104F600043460196099E02930A9B009752463100E0
:104F700048469846FFF73EFA0E9B0400002B11D0DE
:104F80000D9F279AC31B9A420CD9279B4D460200BE
:104F900099460134434631002020A8472200E31BF4
:104FA0009945F6D820001BB03CBC90469946A246D5
:104FB000AB46F0BD289B56465D461B0515D5002324
:104FC0009846269A0023424503DD130042469B1A69
:104FD000013B26938023289ADB001A430023289262
:104FE0000027984658E7203890E700230427984682
:104FF00052E72B003343E4D0294A2A4B5046594606
:1050000001F06AF9002817D1269B002B00D143E755
:105010000E9B5A1E9341269AD31A26933CE7802171
:10502000090659448B4659E78022120694460C9B88
:10503000A24663449B4667E600221B4B50465946F6
:1050400001F03CF90028BCD1DEE7C04601FCFFFFBF
:10505000FB799F501344D33FB3C8608B288AC63F67
:105060000000F03F0000F83F61436F63A787D23F25
:1050700071A379094F930A400000E03F1655B5BB74
:10508000B16B0240EF39FAFE422EE63F00002C40A1
:105090000000244000001840FF030000FFF7FFFF5E
:1050A0002D431CEBE2361A3F80842E41F0B5454675
:1050B000DE4657464E46E0B5A1B01D002A9B099238
:1050C0000B93A24AA24B0A9008911A60002900D1C2
:1050D00087E300239B469F4B2C009A465D46207831
:1050E00000280CD025281DD06E1C2A00099B0A9D83
:1050F00008990134A847207835000028F2D1099991
:10510000AB462A008D4200D34A1E099B0899002015
:105110000A9CA047584621B03CBC90469946A246FE
:10512000AB46F0BD1023621C9846083B9C4616789F
:10513000043B9946023B9B463300203BDBB20027F1
:1051400001211400102B0CD850469B00C3589F46D9
:105150000F430132167814003300203BDBB2102BD2
:10516000F2D93300303B092B00D8B5E10023984633
:105170002A2E00D1A6E200239B462E2E00D1C0E1AC
:105180003300683BDBB2122B18D8734A9B00D3580C
:105190009F46634601321F43DCE7434601321F430B
:1051A000D8E74B4601321F43D4E75B4601321F4329
:1051B000D0E780235B0066781F4301343300253B32
:1051C000DBB2532B0FD8654A9B00D3589F466678B5
:1051D000682E00D188E280231F433300253BDBB2D9
:1051E0000134532BEFD96F1C2A00099B0A9D0899A3
:1051F0003000A84701343D0071E766786C2E00D17D
:105200006CE280235B001F430134D7E780239B00BF
:1052100066781F430134D1E70B9B1A1D1B680E9261
:105220000B935B46002B00D12BE20B9A10781600F3
:10523000002804D100F0A4FC013B002B03D0013670
:105240003278002AF8D10B9BF31A0C938023DB00F1
:105250003B40994603D00C9B5B4500D9ABE202234F
:105260003B400F9300D1B3E100281ED04B46002BEA
:1052700000D1D0E15B465F190B9BA3465E1BB14694
:105280002A00099C0A9E09E023000899551CB04792
:105290004B46585D002800D1CEE12A009742F3D159
:1052A0005C463D000F9B002B14D00C9A904511D901
:1052B00043465819099B861A98462A00A1460A9F18
:1052C000089C0135434621002020B8472A00B542FA
:1052D000F7D14C460E9B01340B9300E70B9B1A1D34
:1052E0001B689046002B00D1CEE1212217430B977B
:1052F0000F21002218AE8946A44602E00A002029A8
:105300000CD048461840C4B22700511C3737092832
:1053100001D830342700B7541B09EFD164460B9BEA
:1053200001910693082305935B460493102303938E
:1053300000232A0002930096099B08990A98FFF718
:1053400059F84346050001340B93C8E6AD500010F0
:10535000241A0020F02C0110342D0110802D011092
:10536000782E00D1C5E1582E00D12FE26F2E00D14A
:1053700031E3622E00D126E210233A009A430C92C8
:10538000692E01D000F01EFC0A230E937B0500D588
:10539000B7E180270C9BBF001F4000D0B8E21A0085
:1053A00080235B001A40914600D06EE30C9B5B06A5
:1053B00001D500F0F1FB0C9B0B9A1B0600D4C1E356
:1053C0000021535E0432D90F14910B92DA179F1803
:1053D0005740002B09D10C9910330A009A4313004F
:1053E0000A000C93520500D5DEE30C9A6123920665
:1053F00000D54123DBB218AE0A3B16940F934C46FE
:105400001595B1460E9E0EE03033DBB24A463800A9
:105410001355310000F094FC071E00D1FDE12C0073
:10542000202D00D1F9E13100380000F089FC651C25
:10543000CBB20929E8D90F9A94466344DBB2E5E779
:10544000462E00D1B4E107220B9B04970733934308
:10545000013294469C4462460B92424603925A465D
:1054600002921A685B680899009201930A982A00D0
:10547000099BFFF7C9F80134050030E66E1C2A00CD
:10548000099B0A9D08992520A8470134350026E686
:10549000BB0700D5D2E04346012B00D888E3099B27
:1054A0006F1E474498462A00A1460A9D089C561C38
:1054B000434621002020A8473200BE42F7D14C4687
:1054C0000B9B32001F1D1878751C099B08990A9EBA
:1054D000B04701340B9702E6002332009E00F61815
:1054E00001347600B6182278330011003039303B91
:1054F0000929F3D99846002316009B462E2E00D08A
:105500003EE680236678DB001F433300303B621C9D
:10551000092B11D8140033005A469600B6180134EE
:105520007600F6182378320019003039303A09290C
:10553000F3D91E00934623E62A2E00D181E1140000
:105540001EE6202332009A43472A04D180231B0100
:105550001F4302239E43452E01D120231F430722D0
:105560000B9B07339343013294469C4462460B9253
:105570001A685B68100019000C900D9100F0B9FEDC
:10558000002800D08CE00C980D990122CA4B5242A1
:1055900000F0AAFE002800D082E00C980D990122AC
:1055A000C64B524200F08AFE002879D1434603934D
:1055B0005B460497029308990C9A0D9B0A980092F7
:1055C00001932A00099BFFF781FB0134050086E562
:1055D0000C990B000133884500D8EBE243462A00C2
:1055E0005F190C94089D0A9C7F1A561C099B290080
:1055F0002020A0473200BE42F7D143463500013398
:105600000C9C0C930B9B1878002800D162E64B464B
:10561000002B00D02EE62A000B9BA3465F1BB94649
:105620000A9E089C099F3B002100551CB0474B4631
:10563000585D2A000028F6D15C4633E60B9B08999A
:105640001A1D18789146099B2A000A9FB8474346BD
:105650006E1C4544012B00D8AEE2A3463200A8469A
:10566000089C099E0A9D571C330021002020A84752
:105670003A004745F7D15C464B463D000B93013459
:105680002DE501235B42D0E5102239009143113210
:1056900011430B917A0500D42AE6002118AE3EE6AC
:1056A000434603935B460497029308990C9A0D9B1B
:1056B0000A98009201932A00099BFEF7A5FF013486
:1056C00005000CE50B990B00096804338846002996
:1056D00000DAB0E056780B93541C4CE5C0239B00D5
:1056E000A6781F43023469E5C023A6781F4302341D
:1056F00064E510230E930C233A009A430C927B0529
:1057000002D501239A430C92692E00D141E6642E02
:1057100000D13EE680270C9BBF001F4000D09EE0DA
:105720001A0080235B001A40914600D070E10C9B68
:105730005B0600D51FE20C9B1B0600D408E20B9B06
:105740001F8804330B93002F09D10C9910230A00F2
:105750009A4313000A000C93520500D5D4E00C9A2A
:105760006123920600D54123DBB218AE0A3B1594A3
:105770000F934C461495B1460E9E0CE03033DBB2CD
:105780004A4638001355310000F0DAFA071E2BD0D4
:105790002C00202D28D03100380000F0D1FA651CF3
:1057A000CBB20929EAD90F9A94466344DBB2E7E702
:1057B00020231F4347E65B460C9302233B400F9395
:1057C00000D051E504E702230E9394E70C233A003E
:1057D0009A4314331A4310230C920E937B0590D4F2
:1057E00098E7374B0A9374E44E462A00159C149DA3
:1057F0000C9B0693434605935B4604930E9B0393D1
:105800000023029301922A000096099B08990A98A6
:10581000FEF7F0FD0134050061E44E462A00169CB7
:10582000159D0C9B0693434605935B4604930E9B84
:105830000393149BE5E702210F4341464942884602
:1058400048E70B9AA678136802349B46DB43594617
:10585000DB171940130004338B460B9390E40722A7
:105860000B9B07339343013294469C4462460B9250
:105870001A685F68130091463B4308D10C991033B6
:105880000A009A4313000A000C9352053CD40C9A68
:105890006123920600D577E1DBB20A3B0F934346C2
:1058A000002216930E9B18AE1495159415004C46C5
:1058B0009846B14619E0C046FFFFEF7FFFFFEFFFBC
:1058C000A54300103032D2B24B4620005A55390061
:1058D0004246002300F076FA0F000400014300D195
:1058E0008FE03500202E00D18BE0424600232000BF
:1058F000390000F067FAD2B26E1C092AE2D90F9B78
:105900009C466244D2B2DFE7002318AE1A006FE76C
:1059100007220B9B07339343013294469C44624613
:105920000B921A685B68D917129113911298139908
:105930000600564010960E005E401196109E119F74
:10594000361A8F41D90F1096119717911A430BD120
:105950000C9910230A009A4313000A000C93520575
:1059600002D5002718AE41E00C9A6123920600D5BB
:105970000CE1DBB20A3B0F93434616930E9B18AE25
:10598000002298463300149515941600109C119D22
:10599000994611E03032D2B24B4620009A55290088
:1059A0000023424600F00EFA030004000D000B43F2
:1059B00014D03E00202F11D04246002320002900A1
:1059C00000F000FAD2B2771C092AE3D90F9B9C465B
:1059D0006244D2B2E0E708230E938CE64E46169B53
:1059E000109411959846159C149D0C9B0693434664
:1059F00005935B4604930E9B01970393179B0293B9
:105A000001E7169B3200149D159C98464E46EFE622
:105A10000B9B1A1D1B6815929946002B0CD10C99F3
:105A200010330A009A4313000A000C93520503D561
:105A3000002318AE1A006DE00C9A6123920600D57F
:105A4000A6E0DBB218AE0A3B14940B934C460F95BC
:105A5000B1460E9E0CE03033DBB24A462000D355EF
:105A6000310000F06DF9041E50D02F00202D4DD0D4
:105A70003100200000F064F97D1CCBB20929EAD97D
:105A80000B9A94466344DBB2E7E70B9B1A1D1B6835
:105A90001592D9175A184A409146DA0F1692002BE0
:105AA0000CD10C9910330A009A4313000A000C938E
:105AB000520503D5002318AE1A0052E00C9A612358
:105AC000920667D4DBB218AE0A3B14940B934C4693
:105AD0000F95B1460E9E0CE03033DBB24A462000F3
