:020000041000EA
:1000000000B5324B212058609868022188439860DF
:10001000D860186158612E4B002199600221596106
:100020000121F02299502B49196001219960352056
:1000300000F044F80222904214D00621196600F024
:1000400034F8196E01211966002018661A6600F04E
:100050002CF8196E196E196E052000F02FF8012189
:100060000842F9D1002199601B49196000215960AB
:100070001A491B48016001219960EB211966A021F2
:10008000196600F012F800219960164914480160C1
:100090000121996001BC002800D000471248134993
:1000A000086003C880F30888084703B5996A0420EC
:1000B0000142FBD001200142F8D103BD02B5186610
:1000C0001866FFF7F2FF186E186E02BD00000240BE
:1000D000000000180000070000035F00212200005C
:1000E000F4000018222000A00001001008ED00E03C
:1000F00000000000000000000000000074B24E7A12
:1001000000200420F7010010C3010010C5010010F9
:10011000C1010010C1010010C1010010C101001097
:10012000C1010010C1010010C1010010C701001081
:10013000C1010010C1010010C9010010CB01001065
:10014000CD010010CD010010CD010010CD01001037
:10015000CD010010CD010010CD010010CD01001027
:10016000CD010010CD010010CD010010CD01001017
:10017000CD010010CD010010CD010010CD01001007
:10018000CD010010CD010010CD010010CD010010F7
:10019000CD010010CD010010CD010010CD010010E7
:1001A000CD010010CD010010CD010010CD010010D7
:1001B000CD010010CD010010CD010010CD010010C7
:1001C00000BE00BE00BE00BE00BE00BE00F04BF888
:1001D000103800BEF2EB8871383A0110583A01101D
:1001E0003402001090A31AE700202149086006C8D5
:1001F00081F3088810471F48006800282FD10DA4FC
:100200000ECC002902D000F012F8F9E71A491B4A77
:10021000002000E001C19142FCD1194988471949E9
:1002200088471949884700BEFDE701C901C29A42C3
:10023000FBD37047583A0110C00000202010002066
:10024000B84901100000042000000420B849011042
:1002500000100420001004200000000070470B482C
:1002600005F076FA0047EFF30580C0B27047000052
:1002700008ED00E0000000D020100020881E0020C3
:1002800041370010D5250010653800105756000082
:1002900006005250ABB36053B82C01100600525008
:1002A000861C0302C82C0110060052505422A29D45
:1002B000CC2C011005005250DE65F468B8490110DD
:1002C000F8B5C0460448054B10B5834203D0044B33
:1002D000002B00D0984710BD2010002020100020D7
:1002E0000000000006480749091A8B10C90FC918F9
:1002F00010B5491003D0044B002B00D0984710BD17
:1003000020100020201000200000000010B5074C35
:100310002378002B09D1FFF7D5FF054B002B02D026
:10032000044800E000BF0123237010BD50110020DD
:100330000000000030210110054B10B5002B03D048
:100340000449054800E000BFFFF7CCFF10BDC046E0
:10035000000000005411002030210110F0B5DE46ED
:10036000574645464E460400E0B5436A8F00DB59C8
:1003700083B01800019323690E009847B84683465E
:100380008A467508012E10D81CE04246636AD95986
:100390009950636A31009858A36998472E006B08FA
:1003A000012D10D91D00B3009846E368AF009946AF
:1003B000636AD859236998475A465346C847002864
:1003C000E3D147463500636A01982900D851A369F3
:1003D0009847280003B03CBC90469946A246AB46DD
:1003E000F0BDC0468B00F0B5454698465746DE4600
:1003F0004E4642460400E0B5436A85B09B580F0064
:100400001800039323699847236882467E009E4222
:1004100056D20A004146751CB946934600919D424A
:100420003BD2E368626A0193B3009846D0582269D0
:100430009047626A02904244506822690F009047D8
:1004400002000B0002983900019FB847002824D011
:10045000002D24D0AB0098464246636AE66898585F
:100460002369984702000B0050465946B0470028C0
:1004700015D04246636A00999A586E005A50636AD2
:100480005858A3694946984723689E420AD2424673
:10049000A946751C00929D42C3D33500D8E7009B46
:1004A0004D4698464246636A039829009850A369CE
:1004B000984705B03CBC90469946A246AB46F0BD75
:1004C0003D00EFE710B504000120994201D801D0AA
:1004D000002010BD9442FCD8FAE7C04600207047C7
:1004E0008B688068C01A434258417047401A4142A5
:1004F00048417047416800687047C04641690069DB
:100500007047C046C0687047006A7047C160704756
:10051000016270477047C04670B5D025802419200D
:100520002D06A40402F074F86C6206F0F5FA074E8A
:10053000300006F09BF9FA206C61400002F0D2FC1A
:10054000FA20AC61400002F0CDFCF1E7302101104F
:100550007047C046F0B54E464546DE465746E0B5C4
:100560001D0013000400160091B02B4300D1C4E01D
:10057000002D00DAA9E00292FA22002330002900BF
:100580009200039505F060F980460F00002D00DC15
:10059000C8E0049005910023300029007E4A05F050
:1005A00053F982468946002D00DCC8E05346069385
:1005B0004B463000079329000023784A05F044F9A0
:1005C00080460F00002D00DC9DE008900991E82393
:1005D00030002900724A05F037F982468946E82D35
:1005E00000DCB6E053460A934B4630000B932900DB
:1005F0006C4B6D4A05F028F96A4B834601919D4288
:1006000000DCB0E05B460C93019B30000D932900A9
:10061000664B674A05F018F9644B80460F009D420F
:1006200000DCACE00623072599460E900F91AB1E27
:100630009A46022303269B460125FA2240463900AA
:100640000023920005F000F920005A491F0090464F
:1006500005F006F8002F0BDC07D003DC5FD1434622
:10066000092B5CD95E46023403E04346632BF6D97E
:1006700003344B46002B20DD5346DF0002AB9C4683
:100680004D4B554699466744FA22386879680023ED
:10069000920005F0D9F82000494604F0E1FF043447
:1006A0002B00083F013D002BEEDC5346DB43554653
:1006B000DB171D400135AD007619300011B03CBC90
:1006C00090469946A246AB46F0BD02223B4905F052
:1006D00071FF02AA082394465B4263441B68042608
:1006E00098461300043B1F6803239B46053B9A462C
:1006F00001330225994601349FE70222304905F073
:1007000059FF0126D9E7002D03D12E4B9E4200D977
:100710005BE702234F46D0469946032587E72E0024
:100720000134A6E7002D04D1FA239B009E4200D39A
:100730002FE700232F00B0469946012577E7002DCB
:1007400003D1214B9E4200D930E70123022599466F
:100750006DE7E82D03D11D4B9E4200D942E70323EC
:100760000425994663E79D4203D1194B9E4200D967
:1007700048E704234F46D0469946052557E79D4252
:1007800003D1144B9E4200D94CE70523D846994625
:100790000625019F4BE7C04640420F0000CA9A3B26
:1007A0000010A5D47E8D03000080C6A4B3B6E00D72
:1007B000000064A740210110482101103C210110D4
:1007C000BC2C0110FFC99A3B3F420F00FF0FA5D47C
:1007D000FF7FC6A4FFFF63A7F0B54746CE4680B5AE
:1007E0001E00264B15001A6807000C0083B0022A71
:1007F00000DA02220A9B9A4204DA03B00CBC90464B
:100800009946F0BD200009F0C3FD8046280009F09C
:10081000BFFD2023994640448144213005F094FED9
:10082000174B80461B68002B10DB4946154A019583
:10083000009404F029FF144B1B68002B0DD03100ED
:1008400040469847404605F0A3FED6E723004946B8
:100850000E4A009504F018FFEDE70D4B1B68002FC2
:1008600005D032004146D8680BF084FDEAE732003B
:10087000414698680BF07EFDE4E7C046F004002096
:10088000D004002058210110681B002050210110C5
:10089000F00500200FB4F0B585B00AAD40CD3000B2
:1008A000039509F075FD0700213005F04DFE154B4D
:1008B00004001B682037002B1DDB134A390000920F
:1008C0000196124A04F0E0FE114B1B68002B0AD07F
:1008D000290020009847200005F05AFE05B0F0BC22
:1008E00008BC04B018470B4B2A001B68210098680D
:1008F0000BF040FDEFE73900034B074A009604F088
:10090000C3FEE1E7D0040020382501105821011072
:10091000681B0020F0050020502101100FB4F0B535
:1009200085B00AAD40CD3000039509F031FD0700D8
:10093000283005F009FE154B04001B682737002BF3
:100940001DDB134A390000920196124A04F09CFE06
:10095000114B1B68002B0AD029002000984720006B
:1009600005F016FE05B0F0BC08BC04B018470B4BF0
:100970002A001B682100D8680BF0FCFCEFE7390067
:10098000034B074A009604F07FFEE1E7D004002005
:100990006C21011058210110681B0020F005002077
:1009A00050210110F0B55746DE464E464546E0B5AB
:1009B000826A87B082460591002A7AD000230027F8
:1009C0009B46019304E0019B013301939A425CD959
:1009D0005146019BC96A9B000393CB581B78002B9F
:1009E000F1D05346596B039BC95802915146096B8C
:1009F000C9580029E7DD0023994604E001239C46FD
:100A0000E14489453ADA4B46029A9B00D658002EBB
:100A1000F4D07268002AF1DDB04600245E46CB4671
:100A20000FE0002F03D03823FB5C002B5CD0382371
:100A3000EB5C002B44D0434600275A6801349442B3
:100A400011DA41460968A3005D58002DF6D0BD4279
:100A5000F4D00136012EE4D16B6A9A45E1D101341C
:100A60002F009442EDDB5346039A1B6BD9469958ED
:100A700001239C46E144B3468945C4DB53469A6A48
:100A8000019B013301939A42A2D8002F11D07B6CB5
:100A9000002B69DC65D03B68786898475423FB5C81
:100AA000002B03D138000599FFF77CFF4823002273
:100AB000FA5407B03CBC90469946A246AB46F0BDFE
:100AC00001233822AB54474B1F68002F46D03968AA
:100AD0007B6899421ED2786A4B1C3B608B001D508C
:100AE0003800FFF73BFCA6E738220133BB543D4BEF
:100AF0001B689946002B9AD00ACB99421AD24B46D2
:100B0000586A4A464B1C13608B001F504846FFF73B
:100B100025FC8CE7BB68786A994689444B46990066
:100B200009F046F9002800D185E74B46396878621C
:100B30007B60D1E74A4692680B0094464A4663447C
:100B4000506A9900049309F033F9002800D16EE748
:100B50004A46049B116850625360D2E743465A6884
:100B60006CE73B6C002B96D01F4C200001F038FD49
:100B7000002833D1226863681C49086849688018D6
:100B800059411B4B1A685B6812184B411948416860
:100B900004688B421DDD14001900026043603D6C47
:100BA0007E6C154B1A685B6852197341994204DCDC
:100BB00000D070E7944200D86DE7FB6C002B00D1A9
:100BC00074E7786898475423FB5C002B00D169E7F1
:100BD0006CE78B42E3D1A242E1D9DCE70748FFF79B
:100BE0009DFEC7E7B81B0020C8040020201000208D
:100BF000281000203010002038100020742101102F
:100C00000FB4F0B585B00AAD40CD3000039509F0C2
:100C1000BFFB07002A3005F097FC154B04001B684A
:100C20002937002B1DDB134A390000920196124A26
:100C300004F02AFD114B1B68002B0AD0290020006C
:100C40009847200005F0A4FC05B0F0BC08BC04B037
:100C500018470B4B2A001B682100D8680BF08AFB51
:100C6000EFE73900034B074A009604F00DFDE1E77A
:100C7000D00400209821011058210110681B002089
:100C8000F0050020502101100FB4002100B585B0FF
:100C900006AB04CB0120009103490393FFF79CFDB1
:100CA000012002F0DFFDC046A4210110F0B54F463F
:100CB0004646D6460400C0B58946161E3EDB0028CF
:100CC00032D134E0626AB3009D58002D2FD0E36822
:100CD00028009A46236998472369804648460F00B2
:100CE000984702000B0040463900D04700281ED12B
:100CF0002369280098472369070048468846984793
:100D0000874207D1884505D149462800E3699847BD
:100D100000280DD17600320049462000FFF7C6FFBB
:100D2000051E05D1013609D42368B342CAD800256F
:100D300028001CBC90469946A246F0BD0148FFF72A
:100D4000A3FFC046B421011070B5041E06D0C368CD
:100D5000002B27D0013BC360002B02D000252800C8
:100D600070BD00680025002807D0134A1368013BB6
:100D7000136005F00DFC25600135237C002BEED0BF
:100D800080210E4A890013688B4210DA0C49013326
:100D90000868136060610C600A4A02251368013B11
:100DA0001360DCE701000848FFF72AFFD6E72000C0
:100DB00005F0EEFBF0E7C046B8140020E414002074
:100DC000E0140020BC140020F4210110F0B54E46C0
:100DD0005746DE464546E0B589B01F00129B040029
:100DE00016009946002F00DAEAE0002C00D184E1D9
:100DF0004B46002B03D04A46DB680133D360237A8D
:100E0000002B00D189E0C14B98461A685B680292BA
:100E10000393A269E36904920593BD4B18689B464E
:100E2000002800D104E10368012B00D100E1426AEF
:100E3000013B556803609B009B5801215360FFF7FD
:100E4000D1FA002D00D1F3E00023AB614B462B61BA
:100E50002423AC60E35C002B64D1029A039B9219BB
:100E60007B411F004346160018685968B94200DDEF
:100E7000F7E000D1F2E0E369002B00DA79E0237AB1
:100E8000002B10D1A36A9A46002B0CD01A685B681D
:100E9000049805998018594102920393069007918E
:100EA0008F4200DC0BE1434618685968B94200DD07
:100EB000C7E000D1C2E0974A2E606F605368BB4222
:100EC00000DA8CE000D113E1934BA5621C68002C82
:100ED00016D021686368994200D2D1E0A368606AA5
:100EE000CE18B10008F064FF002809D021686062C4
:100EF0004B1C23608B0066601D502000FFF72EFA0C
:100F0000864B1868421C00D5B8E01A6009B03CBC9A
:100F100090469946A246AB46F0BD22696369B61871
:100F20005F4170E77E4B18009A4601F059FB00289C
:100F300000D0D9E05346186859687A4B1A685B6844
:100F400080185941784B1A685B6812184B417749F1
:100F50008C46086849688B4200DC9FE061461000BF
:100F60000A604B601900E36936184F41002B00DB23
:100F700085E7694B012229002E606F601868FFF732
:100F800095FE002800D18EE78369002B00D130E167
:100F9000022218009B6911000132002BF9D15D4B30
:100FA0005A681C68BA4208DC00D11EE19B6897426F
:100FB00018DC00D1A6E08B4214D385610020A5E7A0
:100FC0003B005B48FFF71CFE002600270DE7059B52
:100FD000002B00DCD4E053461B69994502D04846FB
:100FE000FFF7B2FE002300222A606B600023AB6093
:100FF000EB602B612B75AB615B461C68002C15D038
:1010000021686368994250D3A368606ACE18B10022
:1010100008F0CEFE002809D0216860624B1C2360D6
:101020008B0066601D502000FFF798F900206DE7E7
:101030002021012005F09AFA050005E7B04200D80A
:1010400039E702000B0000900191921BBB41394827
:10105000FFF764FC43461E685F682CE7B04200D887
:1010600009E702000B0000900191921BBB4131483F
:10107000FFF7C6FD43461E685F68FCE6012244E7B1
:10108000606A4B1C23608B001D502000FFF766F93F
:10109000224B1868421C00D437E7EFE78B4200D0A0
:1010A00061E7824200D85EE758E7606A4B1C236024
:1010B0008B001D502000FFF751F9002026E78F42DA
:1010C00002D1864200D9EEE62C21615C012900D1D3
:1010D0007DE7022969D0434618685968029B83421C
:1010E0002CD0069E079FE1E61348FFF717FC21E787
:1010F0001368B34200D3E7E671E74846FFF724FEE2
:10110000002003E7A64200D855E76BE7381000201F
:10111000B01B002000050020C01B0020C0040020E0
:10112000C8040020201000202810002030100020CB
:10113000282201107022011074210110039B8B42A0
:10114000CFD1494B012251461868FFF7AFFD002867
:1011500055D053461E685968444B5A681C688A42E9
:101160000ADC00D17CE040469B68806891424EDCFE
:101170004BD0013098424AD8534600209D61C5E6C5
:10118000049A059B002B02D1002A00D023E7364B9E
:10119000012251461868FFF789FD002800D01AE7A0
:1011A00053461A685B68029203934346186859686D
:1011B000029A039B8B420EDC1DD0029B984290D179
:1011C000039B99428DD1284B012251461868FFF7A5
:1011D0006DFD002813D053461869814501D0FFF7F3
:1011E000B3FD53464A461A61FCE6B44200D8DDE638
:1011F000E3E60121D3E6029B8342DED9EBE74346D7
:10120000069E079F1868596850E6A642B1D9002388
:1012100000222A606B600023AB60EB602B612B75B2
:10122000AB615B461C68002C00D1FFE62168636857
:1012300099420BD3A368606ACE18B10008F0B8FDDC
:10124000002800D1F2E62168606266604B1C626A89
:1012500023608B0020009D50FFF780F8002055E6AA
:10126000B44200D87FE787E7C01B002000050020BC
:10127000F0B54F46D6464646C0B5414F38680028BF
:101280001FDD00230024002598463E4E03E0013573
:101290000C34854215DA33681B195A681178012914
:1012A000F5D1197A002903D04346137033681B190E
:1012B0001B6801351868FFF747FD38680C34854214
:1012C000E9DB314F3C68002C26D0304B9946304B3F
:1012D0009846304B9A4613E0013DF560002D0CD145
:1012E0003068002806D02C4A1368013B136005F0D3
:1012F0004FF93560337C002B29D13C60002C0BD09A
:101300002600F5686469002DE6D131002348FFF717
:1013100077FC3C60002CF3D1214C224A224B2168FF
:1013200012681B688A4202DA1100204B1B680029F0
:1013300006DD00208900591804CB10708B42FBD1C8
:10134000002323601CBC90469946A246F0BD4B4644
:1013500080221B68920093420DDA524612680133D4
:101360007261524616604A461360434642461B6805
:10137000013B1360C1E7300005F00AF9F5E7C0460C
:10138000EC140020E8140020D0140020E414002005
:10139000BC140020E0140020B8140020F421011037
:1013A000C8140020CC140020C4140020C014002055
:1013B00030B589B0FFF75CFF404C2368002B02D0AA
:1013C0001968012921D13E4D3E4C2368002B06DDD2
:1013D0003D48FFF715FC21683C48FFF711FC3C4CE9
:1013E0002368002B06DD3B48FFF70AFC21683A48DA
:1013F000FFF706FC28686968384B1A685B68121AA0
:101400008B41002B18DA09B030BD35480139FFF7A0
:10141000F7FB2368002B4DD01A68012A4AD05B6A7B
:10142000274D5B68286869681A685B68121A8B41E7
:101430002C48FFF7E5FBC7E76846FFF78BF86946DE
:10144000294805F05DFB294C6368002B03DCDAD1E9
:101450002368002BD7D0264D280001F0C1F80028C2
:1014600024D128686968234B234D1A685B6880186B
:101470005941224B1A685B68801859412A686B6889
:1014800099420EDC0BD020686168121A8B416846C5
:10149000FFF760F869461A4805F032FBB3E790425F
:1014A000F1D902000B0028606960ECE71548FFF7EE
:1014B00035FAD6E700231A685B68FFDEC01B002000
:1014C000F8040020B81400206423011098230110B0
:1014D000BC140020B8230110E823011038100020AC
:1014E000DC2201102023011008240110E804002050
:1014F000C8040020201000203010002028100020F8
:101500003424011074210110F0B54546DE465746DB
:101510004E46E0B5B94B85B098461B68002B00D10C
:10152000EFE01A68012A00D1EBE05B6A5B68002BF0
:1015300000D1E6E0B24A9246B24A934615E0686AA4
:101540004B1C2B608B001C502800FEF707FF434606
:101550001B68002B00D1D4E01A68012A00D1D0E02A
:101560005B6A5B68002B00D1CBE0524619681268B9
:10157000914200D0C5E052465B685268934200D069
:10158000BFE043461868002800D134E10368012B0E
:1015900000D130E1426A013B546803609B009B58D4
:1015A00001215360FEF71EFF237D002B31D0A76978
:1015B000002F10D0944B1D68002D0CD029686B684B
:1015C000994200D3D6E0686A4B1C2B608B001F50F9
:1015D0002800FEF7C3FE0023002222606360002380
:1015E000A360E36023612375A361884B1D68002D10
:1015F000ADD029686B689942A1D3AB68686ACE18F0
:10160000B10008F0D5FB0028A1D0296868626E609F
:1016100096E7A16823694A680393002A25DD3823E9
:101620000025994602E0013595421EDA0868AB00B4
:101630001E584B46F35C002BF5D14B460120F0546D
:101640005B461F68002FEED039687B68994248D20C
:10165000786A4B1C3B608B001E503800FEF77EFE04
:10166000A16801354A689542E0DB34230122CA545F
:101670000B7A002B06D0CB698A69002B00DD92E043
:1016800000D18DE0086A2369984209D0002807D06C
:1016900001230374C3680133C360FFF755FBA168DE
:1016A000039A0A62002A01D0002313743423012212
:1016B000CA54A669002E8ED0534B1D68002D8AD0C7
:1016C00029686B68994262D3AB68686ACF18B90021
:1016D00008F06EFB002800D17DE7296868626F6022
:1016E00056E0BA680B0094466344786A9900029306
:1016F00008F05EFB0028B3D0029B396878627B60FB
:10170000A7E7414E3068002821D00368012B1ED086
:10171000426A5568002D1AD04146013B0C680360AF
:101720009B009B5801215360FEF75CFE002CE9D022
:1017300021686368994211D2606A4B1C23608B0058
:101740001D502000FEF70AFE30680028DDD105B0EC
:101750003CBC90469946A246AB46F0BDA368606A81
:10176000CF18B90008F024FB0028CBD021686062B4
:101770006760E2E7AB68686ACE18B10008F018FB52
:10178000002800D127E7296868626E601CE7686A54
:101790004B1C2B608B001E502800FEF7DFFD1AE764
:1017A000002A00D16EE750460068194E029050465C
:1017B0004568306884467068A84209DC17D05746EF
:1017C000BF68B668B94685420CDC08D0B14509D877
:1017D000002000900800FFF7F9FAA16852E702988C
:1017E0006045F3D90B48FFF70BFAA1684AE7029F5F
:1017F000BC45E4D9ECE700231B7DFFDEC01B0020C5
:1018000038100020B81B0020B41B0020B01B0020A3
:10181000000500206024011070B505001B480C0075
:1018200005F024F81A4805F021F81A4805F01EF8CA
:10183000194805F01BF8194805F018F8184805F084
:1018400015F8184805F012F8174805F00FF8174872
:1018500005F00CF8164805F009F8164805F006F8EA
:10186000154805F003F8154805F000F8002D08DDCF
:10187000AD00134E651902CC300005F041F9A542C8
:10188000F9D1104804F0F2FF70BDC046C424011025
:10189000E0240110FC2401103C25011060250110FA
:1018A000AC250110FC250110102601105C2601104A
:1018B00070260110AC260110BC260110F82601107C
:1018C00008270110F4260110F0B54546DE465746BC
:1018D0004E46E0B50124050089B0012868DDBB4B08
:1018E0008A469B4619E043465B78662B1DD14346EA
:1018F0009B78002B19D10134AC4200DBFAE057444D
:101900007F685946380008F0FFFC002858D10122B2
:10191000AF4B1A700134A5424ADD5346A700DB598C
:1019200098461B7899462D2BDDD04046A94908F0F2
:10193000EBFC0028DFD04B462D2B4AD143465B7889
:101940006F2B46D143469B78002B42D10234AC42E8
:1019500000DB37E157447B68BF681800994607F001
:10196000CFFD9D4B0191190000909846009A019B74
:101970000A604B601100194304D14B461B78302B91
:1019800000D068E13B789946732B4DD17B78652B6D
:101990004AD1BB78632B47D1904A00230098019924
:1019A00004F070FD4346013418605960A542B4DC70
:1019B000012009B03CBC90469946A246AB46F0BD1A
:1019C0003800874908F0A0FC002828D1804B187007
:1019D000A0E74046834908F097FC0028B6D040466F
:1019E000814908F091FC0028B0D04B462D2B76D0D1
:1019F00040467E4908F088FC002800D08DE0013484
:101A0000AC4200DB5CE157447F687049380008F065
:101A10007BFC002878D10122754B1A707AE73900D7
:101A20007448FEF77BFF75E704223800724908F01E
:101A3000E3FC00282ED10099019ACB0E50011843E7
:101A40004B0103900293029E039F761A9741320046
:101A5000F10D7E020E435302049305960099019AFC
:101A6000049E059F7618574132003B00B10EBE011F
:101A70000E43079696010696069E079FB61A9F414B
:101A80000098019932003B0012184B4141460A6010
:101A90004B603FE704223800584908F0ADFC0028AD
:101AA00002D1FA22920078E704223800544908F063
:101AB000A3FC002800D12DE74B466D2B59D17B7834
:101AC000692B56D1BB786E2B53D1009801990D2309
:101AD0004C4A04F0D7FC4346186059601AE7434665
:101AE0005B786B2B00D083E743469B78002B00D1BB
:101AF00085E77DE7D0464448FEF710FF28004146C1
:101B0000FFF78AFE002054E73800354908F0FCFB57
:101B100000283FD1364B1870FCE64B462D2B03D1E5
:101B200043465B78742B3AD04046384908F0ECFBCA
:101B3000002838D04B462D2B00D0AEE043465B78D2
:101B4000692B00D0A9E043469B78002B00D0A4E08D
:101B5000631CAB4200DBB9E05346043757443A6894
:101B600019682B48FEF796FE3A682A4B02341A6031
:101B7000D0E604223800284908F03EFC002857D15E
:101B800000980199254B264A04F07CFC43461860D6
:101B90005960BFE639002348FEF7C0FEBAE6434667
:101BA0009B78002BC0D1631CAB4200DB8BE0574419
:101BB0007F680234380007F097FC002867DD1A4B75
:101BC0001860A7E6D046194896E7C0462C270110B2
:101BD000AA1B00200C270110D804002000CA9A3B41
:101BE000342701105C27011068270110EC27011031
:101BF000AD1B00203C270110AC270110B4270110B9
:101C0000BC270110005847F8142701103C28011088
:101C1000C4280110E0040020C4270110460300007E
:101C200000A0B83018280110D41400207427011027
:101C30004B46642B1AD17B78612B17D1BB78792B5B
:101C400014D100980199254B254A04F01BFC43460A
:101C5000186059605EE64946D0462248FEF75EFEAF
:101C600028004146FFF7D8FD0020A2E604223800F4
:101C70001D4908F0C1FB00282BD1009801991B4B8E
:101C80001B4A04F0FFFB43461860596042E61948BE
:101C90003900FEF743FE012091E74046164908F05F
:101CA00033FB002800D153E74046144908F02CFBD1
:101CB000002800D12EE647461148D0463900CDE72E
:101CC000D046104818E7D0460F4815E7D0460F48D1
:101CD00012E7D04639000E48C0E7C046944E0000D7
:101CE00000004F9194270110CC2701100F2602000D
:101CF000000029F9702801109C280110E828011023
:101D0000F4280110F827011048280110A428011018
:101D1000D4270110002370B5914A28201360914AFE
:101D200084B0136004F010FC041E18D02C2004F0C2
:101D30000BFC6062002800D1FDE00B230122A360B0
:101D40000B2322606360884BE360884B2361884BE0
:101D50006361884BA361884BE361884B2362884BA6
:101D600028201C6004F0F0FB041E18D02C2004F086
:101D7000EBFB6062002800D1ECE00B230122A360A2
:101D80000B2322606360784BE3607E4B23617E4BC4
:101D900063617E4BA3617E4BE3617E4B23627E4B8E
:101DA00028201C6004F0D0FB041E18D02C2004F066
:101DB000CBFB6062002800D1C7E00B230122A360A7
:101DC0000B2322606360754BE3606E4B23616E4BA7
:101DD00063616E4BA3616E4BE3616E4B2362704B8C
:101DE00028201C6004F0B0FB041E18D02C2004F046
:101DF000ABFB6062002800D1A2E00B230122A360AC
:101E00000B2322606360654BE3605E4B23615E4B96
:101E100063615E4BA3615E4BE3615E4B2362614B8A
:101E20001C6000F0DBFBA021012004F09FFB5E4A58
:101E3000002302605D4A836082659822C364036563
:101E400040608050103A83500200983202660122AE
:101E5000426667328354564A8362106043620122AD
:101E60000023544C8261C361534A544B0261436165
:101E7000200000F0B5FB002856D122686368504965
:101E80000868496812184B414E4908684968121899
:101E90004B414D494C680D68A34239DC36D04B4B61
:101EA0004B4E1D605C604B4B4B4A1D605C602800D4
:101EB000002321003560746003F0C6FC002300900D
:101EC0000191454A2800210003F0BEFC68460292B9
:101ED00007F05CFB029A0100404804F011FE404B01
:101EE0001A685B68002B0FDB3068716812184B4171
:101EF0003C4948680C68984211DC0ED0834203DCF0
:101F000016D0886800280AD104B070BDAA42C6D98C
:101F100015001C000A604B60C1E79442EED90A60CC
:101F20004B6000238B60EFE72F48FEF7F7FCA4E738
:101F3000A242E6D9E8E7200004F02AFB00240EE7DD
:101F4000200004F025FB002469E7200004F020FBBA
:101F5000002444E7200004F01BFB00241FE7C046D8
:101F6000B8140020BC140020C5040010FD040010AB
:101F70000905001011050010ED04001015050010F2
:101F8000B81B0020F5040010050500100D05001019
:101F9000E104001051050010C01B0020DD040010FA
:101FA000B01B0020B41B0020190500101C290110D3
:101FB000BC1B0020C80400200000FFFFFFFFFF7FC4
:101FC000201000202810002030100020E8040020FD
:101FD00038100020F804002000CA9A3B2029011084
:101FE000D80400200005002074210110F8B55746E0
:101FF000DE464E464546554BE0B518689A4603689E
:10200000012B00D19EE0524A38259046514A934612
:10201000514A914614E0002B00D17EE023686068AD
:1020200098475423E35C002B03D100212000FEF7E6
:10203000B9FC00236355534618680368012B46D04A
:10204000426A013B546803609B009B580121536026
:10205000FEF7C8F902236355636C002BDBDD58469D
:1020600000F0BEFA002861D15A464B46106851680C
:102070001A685B6880185941384B1A685B681218F7
:102080004B4137498C4603C98B4237DC01D1824230
:1020900034D8226C636C002B39DD4646776836688D
:1020A00092197B41994202DCB8D19042B6D9E36CD7
:1020B000002BBED0606898475423E35C002BB4D05B
:1020C00000236355534618680368012BB8D1434673
:1020D0001D6859689868234B5A681C689B688A4237
:1020E0002EDC2BD0914227DC24D098428041404204
:1020F0003CBC90469946A246AB46F8BD61461000EE
:102100000A604B601900226C636C002BC5DC002B4D
:1021100000D083E7002AC0D180E7236C002B00D1D8
:102120007CE7584600F05CFA00289DD00E48FEF788
:10213000F5FB99E7A542D8D90020D9E7AC42D1D91F
:102140000120D5E7024B9846C1E7C046B81B0020E6
:1021500038100020C8040020201000202810002083
:10216000301000200005002074210110F0B5DE467B
:1021700057464E464546E0B5904B83B01B68002B52
:1021800000D1D3E01A68012A00D1CFE05B6A5B6816
:10219000002B00D1CAE01C685D68894B1A68A24216
:1021A00000D177E00023874E72683068AA420EDCC7
:1021B00000D1D7E0A446290004001500B768A94261
:1021C00005DC00D1E4E09F4201D364460D007E4B64
:1021D0001B78002B00D17AE0794B5A681868954239
:1021E0005FDC01D184425CD8844200D0E2E09542B9
:1021F00000D0DFE004001500996801319960736830
:102200003268AB4239DC00D1BEE09D4204DC00D133
:10221000C2E0B368994230D36C4B98461B68002BE0
:102220002BDD6B4A0026914601229346694A3827E6
:10223000924602E00136B3421FDD49460968B2000A
:102240005558002DF6D0EA5D002AF3D15A46EA55DA
:1022500052461468002CEDD021686368994226D25A
:10226000606A4B1C23608B001D502000FEF776F83F
:1022700043461B680136B342DFDCFEF7F9FFFFF788
:1022800043F9FFF7B3FE03B03CBC90469946A24623
:10229000AB46F0BD5A68AA4200D083E79B68013381
:1022A00081E7002200211C605D609A60A7E7A268B8
:1022B0000B0094466344606A9900019307F078FD2F
:1022C0000028D5D0019B216860626360C9E7424F56
:1022D000380000F085F9002862D1386879683F4BF2
:1022E0003F4F1A685B68801859413E4B1A685B681B
:1022F00012184B41386879688B4237DD100019009D
:102300003A607B6022002B00121A8B411000191ECC
:1023100005DC002B00D05FE7092A00D85CE700F05D
:102320006DF903000120002BADD155E72E4B1B7832
:10233000002B20D1224A234E1168536892683468DA
:10234000756801329D4206DC31D0B768AB4216DCBD
:102350002AD0BA4213D217000C001D0031607360FE
:10236000B2600CE0A04200D824E730E78B42C9D12C
:102370008242C7D9C2E7134EB76834687568012333
:102380005B429C4619491AE7A24200D83DE774E730
:10239000A44500D817E71AE7944200D839E73BE78D
:1023A0001348FEF7BBFA98E7A142D2D9E7E78C427F
:1023B000CBD9D0E70F48FEF767FCC046C01B002012
:1023C0003810002000050020AA1B0020DC1400208B
:1023D000D8140020B81B0020C804002020100020C2
:1023E0003010002028100020AD1B0020FFFFFF7FD1
:1023F0007421011084240110F0B54546DE4657468D
:102400004E46E0B5654B0D001968654B040083B07E
:102410001868FFF759FA002800D1BCE02900200015
:10242000FFF752FA002800D1B5E05E4807F054F8F3
:10243000002800D09AE05C49022007F027FFFFF750
:1024400069FC0022594C5A49A26001320A7059496C
:10245000594B096809CB002520606360002908DD1D
:10246000564B1D68002D03D03823E95C002955D058
:1024700029CC53494A680C689A423ADC61D09342AD
:1024800005DC934200D175E08B68AB4231D84D4BEF
:102490001A689946002A2CDD38239846373B9B461C
:1024A000494B00249A46494F02E00134944220DA15
:1024B0003968A3005D58002DF7D04346EB5C002B34
:1024C000F3D143465946E95453461E68002EECD0DA
:1024D00031687368994239D2706A4B1C33608B0043
:1024E0001D503000FDF73AFF4B461A680134944204
:1024F000DEDBFFF77BFD002807D1002003B03CBCEA
:1025000090469946A246AB46F0BDFFF72FFE002845
:10251000F3D0FFF72BFE0028F7D1EEE7EA542A4B61
:102520001E68002EA4D031687368994226D2706A62
:102530004B1C33608B001D503000FDF70FFF29CC82
:1025400097E78442D5D893429BDDA0E7B2680B00A1
:1025500094466344706A9900019307F029FC0028AF
:10256000C2D0019B316870627360B6E71848FEF70D
:1025700047FB60E7A04200D886E788E7B368706A47
:10258000CF18B90007F014FC002800D170E73168BB
:1025900070627760CCE701204042AFE7141700205B
:1025A00010170020B11300106538001038100020FB
:1025B000A61B0020D4040020F8040020BC1B00202F
:1025C00000050020DC140020B81B0020D8140020D7
:1025D0005C29011010B5FFF70FFF10BD7047C04612
:1025E00010B5040000F06CFDFA220023920003F005
:1025F00047F920606160002010BDC046FA2210B586
:102600000023920003F020F900F054FC002010BDDC
:102610000123D0228340120693629361094A83000A
:102620009446402263441968C0004A40C0211140CA
:102630008022520113431960034B9C4605236044DA
:102640004360704704C0014000400140F8B5EFF31B
:10265000108772B60E4E3368002BFCD0BFF35F8F2D
:10266000CB08C4180725A446C45C01230D40AB4029
:1026700018002040234208D1624623431370BFF361
:102680005F8F306087F31088F8BD100001F006F905
:102690002C0100D0F8B5CE4647468C4680B5EFF306
:1026A000108872B6214D2C68002CFCD0BFF35F8FD0
:1026B0009A422CD8D4080721055D0619012411403F
:1026C0008C402C421FD007218946063909E0D408E6
:1026D000055D06194C460F001440A7403C002F42F0
:1026E00011D001329342F2D201204042BFF35F8FFA
:1026F00000220E4B1A6088F3108800280FDB0CBCF8
:1027000090469946F8BD2C4310003470EEE7BFF3B5
:102710005F8F00232B6088F31088012040426346BE
:10272000002BECD0089801F0B9F8C0462C0100D07D
:10273000024B18688007C00F7047C04600C00640B3
:102740000021044B044ABFF35F8F02C39342FAD1C6
:102750007047C046000100D0800100D0044A1078C4
:10276000431CDBB2172B00D9102313707047C046EF
:102770001005002000B5054B83B00100009318221E
:102780001F230348FFF786FF03B000BDA0290110F7
:10279000A416002083680B4810B584466144624447
:1027A000090112019A18591854684B6801209C427B
:1027B00001D802D00020C0B210BD12680B689A4246
:1027C000F9D8F7E7FFFFFF0F0A4B1968EFF3108006
:1027D00072B60A68002AFCD0BFF35F8F1B68BFF394
:1027E0005F8F00221A6080F3108840BF0020002114
:1027F0007047C046781B0020F8B557464E46454600
:10280000DE46E0B5434D81468A466A68EFF310889C
:1028100072B61368002BFCD0BFF35F8F2E68B47BB9
:10282000002C3ED0670033683F19033FDA19537814
:10283000B373002B00D1F3730023937053701370A4
:10284000A968354A8C464946A218120162441160B3
:10285000514651603149D36091603268D21993700A
:1028600053701370737B9B46002B35D022001900E8
:10287000B068736898473268002820D05B46584695
:102880005B005B44D719033BB870D118D35C002BB5
:1028900000D07B705B460C7073735C451DD00026C6
:1028A00026E06B68BFF35F8F1C6088F310880120FF
:1028B00040423CBC90469946A246AB46F8BD5B46BA
:1028C0005B005B44033BD3189C70D119D25D002A96
:1028D00000D05A705B460B7074734A465346287D8D
:1028E00000F078FC061EDAD02100286800F0EAFE2D
:1028F000EB686A681B19013B1B78BFF35F8F0021EF
:10290000116088F310880020002ED2D118022043D5
:10291000CFE7C04614050020FFFFFF0FC9270010B6
:10292000F8B5574645464E46DE46E0B599460CABEF
:1029300019780DAB1B78050090469A460768002968
:1029400012D1BE7B002E45D074003B68A419033C15
:102950001B195A783100BA73002A00D1FA73002289
:102960009A705A701A7003E00E004C006418033C11
:102970002C4B00229C46AB6861449C4643460901AF
:1029800061440B604B464B600A9B8B600B9BCB609A
:102990003B681B199A705A701A707B7B9B46002B00
:1029A0002CD032005946B8687B6898473A680028AE
:1029B00017D05B4658465B005B441419033BA0707C
:1029C000D118D35C002B00D063705B460E707B7314
:1029D000B34514D030003CBC90469946A246AB4665
:1029E000F8BD5B465B005B44033BD3189E70111936
:1029F000125D002A00D05A705B460B707E7342460F
:102A00004B46287D00F0E6FB041E06D05346002B03
:102A100003D13100286800F055FE0E9B002BD9D061
:102A20001C70D7E7FFFFFF0FF0B5DE464E46574656
:102A300045460023E0B58DB00A936B4B8200D35816
:102A40000B90994600239B464B46079300F038FBBA
:102A5000079C06000F006268EFF3108572B61368DA
:102A6000002BFCD022000794BFF35F8F2468637BA8
:102A70009946002B67D092685C4B90464B441B01F3
:102A8000984443461A685B6810001900801BB941DE
:102A900000295FDD0B9800F09DFB0023002698467F
:102AA00000279A46079C6368BFF35F8F5A461A60F7
:102AB00085F310885346002B08D10028C6D10DB0ED
:102AC0003CBC90469946A246AB46F0BD0A9B4146A7
:102AD00018024B461843D047089009916268EFF3FB
:102AE000108572B61368002BFCD00794BFF35F8F7C
:102AF0000899099A002A48DB114303D0079B1B69F8
:102B0000002B5DD1079B1B68DA7B002A07D05100A0
:102B10008A1819688C4649466244033A51704A46FD
:102B2000DA734B46079A013BD168CA5C0132CA543A
:102B30005B46079A13615368BFF35F8F5A461A606A
:102B400085F3108882E700230026984600279A46DE
:102B50000020A7E7002901D100289BD100212000F7
:102B600000F012FD43461E685F689B68079A9A460C
:102B70004346DB689846D3684B44013B1B780A9375
:102B80001B020343136100208CE72369002BB9D09B
:102B900033003C005B1A94411A002300A74219D865
:102BA0009F421BD05946049101210391494602914D
:102BB00041460191514607980091FFF7B1FEB7E7F2
:102BC00000F07EFA089A099B06000F0092197B41DB
:102BD0009942E5D901225242D317E3E79642E1D95F
:102BE00001225242D317DDE7581B0020FFFFFF0FE1
:102BF00010B5124C6368002B04D00A21104800F075
:102C00007BFB10BD23000F4A1021206800F0DAFB87
:102C1000032000F049FA032000F04EFB03200A498C
:102C200000F092FAFFF79AFD084B9C46032360449C
:102C30002375074B80006060DC60DEE71405002030
:102C4000781B002095270010292A0010400000342E
:102C5000581B00200048704714050020F0B5574667
:102C60004546DE464E46E0B585B0019310AB1B7875
:102C700000270393002380469A46009243465A68F1
:102C8000EFF3108972B61368002BFCD0BFF35F8F8F
:102C900043461D68AC7B002C4FD066002B6836196C
:102CA000033E9B195A78AA73002A00D1EA73424660
:102CB0009F705F701F709268524B94460099019A02
:102CC000E3181B01634419605A600E9A9A600F9AC8
:102CD000DA602B689B199F705F701F706B7B9B463F
:102CE000002B46D022001900A8686B6898472A6814
:102CF000002831D05B4658465B005B449619033B85
:102D0000B070D118D35C002B00D073705B460C7090
:102D10006B735C452ED04346DB681B19013B18786A
:102D200043465B68BFF35F8F1F6089F3108853468B
:102D3000002B2ED10002204307E05B68BFF35F8FBA
:102D40001C6089F310880120404205B03CBC9046CD
:102D50009946A246AB46F0BD5B465B005B44033B35
:102D6000D3189C709119925D002A00D05A705B466E
:102D70000B706C734346187D009A019B00F02AFA91
:102D800082460028C7D043462100186800F09AFC0C
:102D9000C1E7039B002B32D00E9B00200F99984770
:102DA000030004000D000B4329D000290DDA009820
:102DB000019902000B00121BAB41994215D81AD0A1
:102DC00000920193039B9A4658E700F079F90200BC
:102DD0000B00A4185D412000290000900191AB4236
:102DE00003D8EFD100998A42ECD901235B42DC176A
:102DF00000930194E6E700999142E1D9F5E70020BC
:102E0000A3E7C046FFFFFF0FF0B504000D00062644
:102E10007642F717C64636196F4100B58F4213D870
:102E200010D000F04DF932003B00121A8B41002BFC
:102E300014DC002B37D02900200000F075F904BC09
:102E40009046F0BD8642ECD90026002700F038F904
:102E500032003B00121A8B41002BEADD30003900B2
:102E6000FFF7CAFC0028E6DB00239846BC460F4A61
:102E70000F4F7B6A9C4504D8B96A8E42DBD99C45CA
:102E8000D9D11168EFF3108072B60B68002BFCD01B
:102E9000BFF35F8F1368BFF35F8F4146196080F304
:102EA000108820BFE5E7002AC5D0D7E7781B0020AF
:102EB0000040054070B504000D0000F001F902006B
:102EC0000B0020002900801859418B4205D802D000
:102ED000FFF79AFF70BD8242FAD901204042C11724
:102EE000F6E7C04670B5060000F0EAF8FA220400E2
:102EF0000D00002330000021920003F0C3FA0019F6
:102F000069418D4205D802D0FFF77EFF70BD844233
:102F1000FAD901204042C117F6E7C046F8B5CE46BF
:102F2000474680B506000C00FFF766FC00280CDC65
:102F30002D4B0020596A8C4203D89B6A0130B34262
:102F400045D30CBC90469946F8BD20BF274D6A6812
:102F5000EFF3108772B61368002BFCD0BFF35F8FBE
:102F60002B68C1B29C465B7B8B4235D0FF2303406C
:102F70005A00914662461268994490464A46424435
:102F8000033A9278002A1DD0EA68000A904643442A
:102F9000013B1B78C0B2834221D06B68BFF35F8FC7
:102FA00000221A6087F310880F4A0020536A9C425F
:102FB000C7D8926A0130B242C3D2E41A601E84417B
:102FC000E0B2BEE72B699842E7D12A61E5E7641ACF
:102FD000601E8441E0B2B4E7FF230340D4E76046BB
:102FE00000F070FBD9E7C046004005401405002002
:102FF000F0B5D6464F464646C0B5EFF305833F22AF
:10300000134018001038EFF3108C72B6204D2A6868
:10301000002AFCD0BFF35F8F0122110081401D4CBC
:10302000884661631C4917000E788A463100C1400A
:103030000F400A4215D019498200646A51588C42E7
:1030400019D3174BD25843469E4353461E70BFF3C5
:103050005F8F00232B608CF31088002A06D09047E6
:1030600004E0BFF35F8F2F608CF310881CBC904688
:103070009946A246F0BD0B4A9B00904643441A680D
:103080001A60BFF35F8F00232B608CF31088EDE78D
:10309000280100D000400540AE1B0020841B00200A
:1030A00094150020D03F054010B50100024A0348A6
:1030B000FFF7CCFA10BDC046C8290110A91B00209B
:1030C000034B596A0A00986A596A8A42FAD17047D2
:1030D0000040054070B504000D00124A536A190003
:1030E000966A536A8B42FAD13000190024184D4178
:1030F000AB4211D80ED02B000A494A6A9A42FCD33F
:1031000007D1084A02E0516A994202D1916AA1426C
:10311000F9D370BDA642EED9012301246442E5171C
:103120005B42E9E700400540064A536A9942FCD8F1
:1031300007D1044B02E05A6A914202D19A6A824254
:10314000F9D370470040054070B504000D00EFF35F
:10315000108672B61A4A1368002BFCD0BFF35F8F3B
:10316000002D1BD0200000F02FFD164981420AD00F
:10317000200000F031FD0121200000F00BFD0123B3
:10318000A340114A1360114BA400E550BFF35F8FB9
:1031900000220B4B1A6086F3108870BD0B4BA20007
:1031A000D5500122A2400A4920000B7893430B70AE
:1031B000044900F03BFD0021200000F0EBFCE5E7B6
:1031C000280100D0F12F0010386005409415002030
:1031D000AE1B0020F0B54F46D6464646C0B50700A8
:1031E000304C616A0D00A66A616AA942FAD18B422D
:1031F00008D805D001201CBC90469946A246F0BDD7
:10320000B242F7D9EFF3108972B627480168002956
:10321000FCD0BFF35F8F01252449BD408C4609785F
:10322000204C0E002E438846F1B28A466146504635
:103230000870391D1E48890065630A51B9000B509A
:10324000216A0020294219D0616A0800A66A616AD1
:103250008142FAD18B4219D801D1B24216D8C24567
:103260001DD0104B1F201D625D6301230740BB4032
:10327000104A1E381360634642461A70BFF35F8FD0
:103280000022094B1A6089F31088B4E70020BFF3CD
:103290005F8F0022044B1A6089F31088ABE701208E
:1032A000ECE7C04600400540280100D0AE1B0020DE
:1032B000841B002080E200E010B5EFF3108472B6AA
:1032C0000A490B68002BFCD0BFF35F8F01238340BA
:1032D000074A0848136202789A430270BFF35F8F6F
:1032E00000230B6084F3108810BDC046280100D075
:1032F00000400540AE1B0020024B9C466144890003
:10330000016070474000003410B50400FFF726FA52
:1033100001002000FFF7F0FFFF232371BFF35F8F51
:1033200010BDC04610B50400FFF718FA01002000D8
:10333000FFF7E2FFFF23A380BFF35F8F10BDC046FE
:1033400010B504000120FFF715FA034BC3189B00CA
:103350002360BFF35F8F10BD4000003470B50500DF
:103360000E001400002924D0002A24D080686B6845
:103370009847296800280ED063001B197200033B90
:103380009219CB18033A9E7088188A5C002A14D1CF
:10339000047030000EE073009B196200033B1219A9
:1033A000CB18033A9C7088188A5C002A00D05A70A7
:1033B0000670200070BD0800FCE75A7004703000F1
:1033C000F8E7C04630B583600023CCB243730133C5
:1033D000047342608373C4730D000068012C06D926
:1033E000421C0133DBB2137003329C42F9D1FF213E
:1033F00029404B005918002340180338437030BD52
:10340000F8B5CE46474606000C0080B5002907D027
:103410004D0003686D18033D5A195778002F04D1E9
:1034200020000CBC90469946F8BD7900C9190339B3
:103430008846434459788946002159705170736811
:103440003A002100806898473368002814D042462B
:103450009A18947059195B5D002B00D053700F704F
:10346000270049463000FFF7CBFF3900020030004B
:10347000FFF774FF0400D3E7424641465D19AF7081
:103480009A185B5C002B00D06B701470E9E7C046A3
:10349000F0B557464546DE464E46E0B50D006B009A
:1034A00001685B19DF1E0400C85D83B00192CA1970
:1034B00000284CD043001B18033BCB185E78B44661
:1034C000002E16D1019E002E3ED0E67B002E04D0A9
:1034D00073009B19CB18033B5D70E57300282FD157
:1034E0000023537003B03CBC90469946A246AB46BD
:1034F000F0BD72006244033A89184A78904600226F
:103500004A7091465A70010032002000FFF726FFF2
:1035100043468246002B07D05B0021684344033BAF
:10352000CB185A78002A16D1424651462000FFF7A0
:1035300015FF2168019BCA19002BC6D10028CFD0E6
:1035400043001B18033BCB1800219970C8E7019B6F
:10355000002BBAD1C4E75000801803380918487806
:10356000834648464870587041462000FFF7F6FEF3
:10357000594680462000FFF743FF414602002000E5
:10358000FFF7ECFE8046CFE7F0B54E464546DE46F7
:103590005746E0B5467B040075000068AD19033D51
:1035A00083B00191415D421900294ED04B005B1858
:1035B000033BC3185F78BC46002F18D1019D002D36
:1035C00040D0E57B002D04D06B005B19C318033B92
:1035D0005E70E673002931D10023300053706173AF
:1035E00003B03CBC90469946A246AB46F0BD7A007B
:1035F0006244033A80184278934600224270914612
:103600005A7020003A00FFF7A9FE5B468046002B67
:1036100007D05B0021685B44033BCB185A78002A33
:1036200017D15A4641462000FFF798FE019B010042
:1036300020684219002BC4D10029CDD04B005B1863
:10364000033BC31800209870C6E7019B002BB8D13C
:10365000C2E7500080180338091848788246484667
:103660004870587059462000FFF778FE534683464D
:10367000002B07D05B0021685344033BCB185A78DA
:10368000002A06D1594652462000FFF767FE8346BE
:10369000C7E7500080180338091848464F7848702B
:1036A000587051462000FFF759FE3900814620002E
:1036B000FFF7A6FE494602002000FFF74FFE8246B4
:1036C000E0E7C04670B5040000292CD0437B8B4254
:1036D0002ED0056848004018033828188278002A40
:1036E00021D053009B18033BEA5CEE188A4202D1BA
:1036F0001BE0002A08D053009B18033BEB185A78B4
:103700008A42F6D142785A700023012283704370B6
:103710002000FFF7BDFE617B02002000FFF71EFEC8
:103720006073012000E0002070BD43783370EBE748
:1037300001221900FFF7ACFE60730120F4E7C046D8
:103740002C4B2D4A70B51A602C4A2D4B2D491A600E
:1037500010008B689843FBD12B4C2C4B9C4209D218
:10376000013B1D1BAD080135AD002D1908CC984754
:10377000AC42FBD100F0B0F8254A214B1A60214A37
:103780009368DB018033FBD14022224B224C234D36
:103790009A675A671A67DA66AC4208D22368200033
:1037A000002B21D00834FFF7BDFDAC42F6D31C4CF2
:1037B0001C4DA168C022280002F0FCFEA560FEF7A7
:1037C000BFFF00F06BFBFFF713FA174C174B9C423F
:1037D00009D2013B1D1BAD080135AD002D1908CCE8
:1037E0009847A542FBD170BD0834FFF78DFDAC4270
:1037F000D4D3DCE700E00040BFCDFBFEFE7F3C0001
:1038000000F0004000C00040081000201810002008
:10381000FFFFFF0100F00140001000200810002011
:1038200000ED00E000000020181000202010002013
:10383000094A03001068002805D00849C3188B42C4
:1038400007D81360704706480449C31810608B42BC
:10385000F7D901204042F5E7481700200000042076
:10386000881E002000BEFDE710B50C0082B01900D4
:10387000002A09D0064B019200930200230005485C
:1038800001F026FF00BEFDE7034B1A00F3E7C04638
:10389000EC290110FC290110382501100FB400B5E6
:1038A000084883B002F0E2FF049B002B07D005A973
:1038B0001800019101F02CFF034802F0D7FF00BE71
:1038C000FDE7C0462C2A0110F426011010B501486E
:1038D000FFF7E4FF3C2A011030B50C2083B000F064
:1038E00041FBFEF725FF00280ED0944B944A1A6046
:1038F0005A609A60DA601A615A619A61DA611A62F2
:10390000904A5A6203B030BD8F4CA06700F07EFB36
:1039100001228E4B1A60636C012BFCD103228C4B6D
:103920001A60894A936B012BFCD102240121894A38
:1039300089480533009400F0C3FA0523874A012122
:103940008748009400F0BCFA864B5A68FF2A02D8D8
:10395000802252005A608022784C7D4B21691201EE
:10396000804D1A60002905D0606901F047FF0130E1
:103970000138FDD1E0217B4B02201A6811408022E2
:1039800052012A4311601968484003210140116027
:1039900004219A681142FCD08022802192012A439E
:1039A00009011160802252005A606F4B23616F4BF6
:1039B0005968FF2900D85A6003226C48634B0121E3
:1039C0001A60020093681942FCD0E02513681D407C
:1039D00080235B0103431D6012684A4003211140AC
:1039E00019600221614A93681942FCD0802380212A
:1039F0009B0103430901196080215D4B490051601F
:103A000063615C4B5A68FF2A00D8596080225A4B88
:103A1000E1691201574D1A60002905D0606901F073
:103A2000EDFE01300138FDD1E02252490B681A4009
:103A300080235B012B431A60802380229B012B4350
:103A400012011A6080223E4B52004A60E3614B4BE8
:103A50005968FF2900D85A608022494B216A120117
:103A6000464D1A60002905D0606901F0C7FE01309B
:103A70000138FDD1E02241490B681A4080235B01E7
:103A80002B431A60802380229B012B4312011A6072
:103A9000802380225B004B60294BD2022362394B8A
:103AA0005968914200D25A608022374B616A1201F4
:103AB000344D1A60002905D0606901F09FFE013085
:103AC0000138FDD1E0222F490B681A4080235B01A9
:103AD0002B431A60802380229B012B4312011A6022
:103AE0008023DB024B60174B6362284B5A68FF2A26
:103AF00002D8802252005A608022254BA16912010F
:103B0000224D1A60002905D0606901F077FE01306E
:103B10000138FDD1E0221D490B681A4080235B016A
:103B20002B431A60802380229B012B4312011A60D1
:103B300080235B004B600E4BA361E3E6A8160020D8
:103B4000006CDC021BB70000008000403CB000406D
:103B500030B00040002F68590080024000389C1CA3
:103B600000C0024030800040001BB7003C80004095
:103B7000405973075480004054B0004060800040BA
:103B800060B000406C8000406CB000404880004055
:103B900048B0004001238340002904D0034A136049
:103BA000034A13607047034A1360FBE780E200E0BA
:103BB00000E100E080E100E001238340014A13605E
:103BC0007047C04600E200E0024B10309B68800066
:103BD000C058704700ED00E070B50D00EFF310869F
:103BE00072B60F4A1368002BFCD0BFF35F8F0D4BEA
:103BF00010309B6884001B590B4A934203D09D42AE
:103C000001D0FFF763FE074B9B681D51BFF35F8F29
:103C1000BFF35F8F0022024B1A6086F3108870BDDD
:103C2000240100D000ED00E0CD010010F0B5DE462B
:103C300057464E464546E0B50C0083B0EFF3108A78
:103C400072B65B4A1368002BFCD0BFF35F8F102263
:103C5000914681444A46574B96009B689D59564B66
:103C600098469D4205D0A54216D0544FEB1B2F2BF2
:103C700014D9504B9B689D51BFF35F8FBFF35F8F8B
:103C800000224B4B1A608AF3108803B03CBC90466C
:103C90009946A246AB46F0BD1D00EAE701238340EA
:103CA0009B465A46464B1B681A4000925A46454B63
:103CB0001A60BFF35F8FFCF7D6FA0190002803D09B
:103CC000814501D0FFF702FE01232A009A43130029
:103CD0003D49DB1B5B415943090D93689C4208D168
:103CE0005BE043001B189B00FB189868A04211D0B2
:103CF0001A00062010560028F3DA009B002B05D08E
:103D00005A46324B1A602E4B1A60B2E75A462D4B78
:103D10001A60AEE706201856002822DB4200111870
:103D200089007C188846A1689960E179D9710621DB
:103D300061569971A1797F291FD8A488F91A640561
:103D4000241544440919E0240905490D240221439E
:103D5000998012181E4B9200BF181A781870BA7109
:103D6000CBE7019800280BD1FF3090711948908063
:103D7000174A107811709871BFE7BD210902E7E773
:103D8000154A1649D21A083A5002400D014399804B
:103D9000134952080A43DA80AFE706201056130091
:103DA0000028BBDA019A002AEAD14546E0E7C0467E
:103DB000240100D000ED00E0CD0100103C05002002
:103DC00000E100E080E100E0AAAA000080E200E05B
:103DD000AB1B002000BDFFFF7605002000F0FFFFB9
:103DE00000F8FFFFF8B5012504000543FCF73BFA96
:103DF0000300EFF3108672B621490A68002AFCD04E
:103E0000BFF35F8F1F4A20001F49801A4041414382
:103E1000090D1E489B00876849B2FF58AF421CD06D
:103E20000623D3568B421CD01223D3568B4222D06A
:103E30001E23D3568B4220D02A23D35603208B42F5
:103E400010D0134B1A781970A271BFF35F8F002244
:103E50000B4B1A6086F31088F8BD82680D48D0506D
:103E6000EFE7002043001B189B00D218FF2393713B
:103E7000094B9380E5E70120F4E70220F2E7C04612
:103E8000240100D03C050020AAAA000000ED00E0BB
:103E9000AB1B0020CD01001000BDFFFF054B064A03
:103EA0001360064A136053609360D36013615361DB
:103EB000936170478080808000E400E004E400E0CB
:103EC000F8B504000C2017001D000E0001F096FC50
:103ED0004101091A8B01591AC900091889013800D2
:103EE00001F08CFC069A2B04120313432268002A6B
:103EF00021DB184AA21851424A41802149018C46CF
:103F000052420A40144962440A6014490A60144942
:103F100017008D68AF43FBD1C021221D89011143D9
:103F200021222660A0600A602268002AFCDAE36091
:103F300008230B60F8BD3F2221680A40B242D8D165
:103F4000A2681205120D8242D3D1E268002BD0D1B3
:103F5000F0E7C0460040FDBF00E0004000F0004038
:103F600000C000408023024A9B000343D362704795
:103F70000080054010B5140080221B4BD2051A604A
:103F800000281AD00123194A1843194BDA61194A3B
:103F900042401A62596298628022134BD2051A601D
:103FA0001549164A1160E022D2041A60002C07D18C
:103FB0008022134B12061A6010BD0D4BD861EBE73F
:103FC00080236201121B9200121912015B049A42B3
:103FD00000D30C4A0C4B1A60054B5A608022084BE8
:103FE000D2051A60E8E7C04600B00540D3C007B06C
:103FF000008005402D3FF84FFCFF010008200140E4
:1040000000A00540FFFFFF00501B0020AA23064A26
:104010001B0113602F230549D360054B19605368BA
:10402000002BFCDA7047C0460040024000B0FA00A6
:10403000006002409A4200D2885470477047C046E0
:10404000F8B557464E46DE464546E0B51F000A9B8A
:1040500005009B460D9B0E00914692469B0718D18A
:104060000B9B0C9A934214D213000B9AB8469B1ADE
:104070004B444C460F0006001D002200434601340D
:1040800039002020B047AC42F7D1AA4635003E00A7
:1040900047460B9B002B38D09A441C00D046534611
:1040A0001A1B5B46013C185D31003B00A847002C01
:1040B000F5D10D9B9B0721D543464A469C1A0C9B84
:1040C000A3421BD93A009A464F469146E2194B4605
:1040D000310020200134A8475445F7D343460C99BA
:1040E000DB1B0133B9460022994203D343464A1EE3
:1040F0004A44D21A434690460133984440463CBC59
:1041000090469946A246AB46F8BDD046D1E7C04698
:10411000F0B54F464646D646C0B584B098460EAB7D
:104120001B78129F994694460D9C109B119EBA07CE
:1041300025D4002E69D19C4200D3C2E001223A402E
:1041400092461F2C00D9BBE00C9A551E302201E08C
:10415000202C03D001342A55A342F9D85246002A14
:104160000DD0B4420BD21F2C62D80C9A551E3022AF
:1041700001E0202C5CD001342A55B442F9D1FA0672
:1041800035D57A055DD4002C57D10F9B102B00D16B
:104190007CE00F9B022B00D18DE030230C9A012490
:1041A00013704B46002B27D02D230C9A1355013446
:1041B0000C9B624600930397434602960194FFF7D7
:1041C0003FFF04B01CBC90469946A246F0BDBB061A
:1041D00063D4202CECD00C9B1A1901347823137073
:1041E000202CE5D030220C9B1B191A700134202C96
:1041F000DED04B46002BD7D17B0735D43B07D7D534
:1042000020230C9A13550134D2E7012215003D40BA
:10421000AA463A4220D04A46002A2AD10C323A42D3
:1042200027D19C429DD21F2C00D88DE7202E19D972
:104230002024FA06BCD57A0503D4A3421BD0A6429B
:1042400019D00F9B102BC2D0022BC9D1202CAFD07C
:104250000C9B1B19013440E09C4200D38FE71F2CBC
:1042600000D871E720248AE72B230C9A13550134D8
:104270009EE7013ED5E7631E012C00D185E70F9A2A
:10428000102A20D0022A25D01C00ABE7BB060DD493
:1042900078230C9A01241370A4E7202C00D187E71F
:1042A00058220C9B1B191A70013499E758230C9A59
:1042B0000124137096E70C9A60330124137091E780
:1042C000202400265BE7023CBA06E9D40C9A1219B6
:1042D0001C0083E70C9A9246534462221A707FE7CF
:1042E00010B5002800D110BD02F06EFAFBE7C04601
:1042F0000B0010B5002802D049681B68984710BD14
:10430000F0B5DE46574645464E46E0B59BB09B4667
:10431000249B0A909846259B0B910C92404642465E
:1043200019009A4601F043FD002800D0E8E0012280
:10433000404651467F4B524201F034FD002800D0E8
:10434000DEE00122404651467B4B524201F014FD13
:10435000002800D0D4E0002200234046514601F05E
:104360000BFD002800D0CAE15346C14609938023C3
:10437000289ADB001A400E92289A1A4201D106238D
:1043800026934C46099B234300D0D9E0289B002666
:1043900000271B0500D4AEE100230D93269B1900D6
:1043A0000D9B994200DCB0E1C81A431E269380237E
:1043B000289ADB001A430023002528920D93279B9F
:1043C0000024AB4200D95C1B0223289A1A400E92AB
:1043D000289A134203D06B426B415B421C400D9BF9
:1043E000002B07D04846099932003B0001F05BFCE6
:1043F00081460991002200234046514601F0BCFC51
:10440000002805D08020000684460999614409915E
:10441000289A4A4B0A9E13404A460493269B0B99BE
:104420000293099B03940092019330005B460C9A1F
:10443000884600F0A1F90400002D72D0289B2200CC
:1044400098061F23C017984341465B466530B04726
:104450000D9B671CDA179C18DB0F98466B1E99465C
:104460000025544001E0202D13D00AAA94461F23B2
:10447000200063440A2101355E1901F0BFF9303193
:10448000317020000A2101F0B9F926000400092E3C
:10449000E9D8052306934B460593002304930A337A
:1044A000039343463A000A9E0B9F029312AB00937C
:1044B00039005B4630000195FFF72AFE0E9B040091
:1044C000002B2ED00C9B279AC51AAA4229D93C0052
:1044D000814698461700434621005A1920205B4622
:1044E0000135B047AF42F6D84C460C992798631A6D
:1044F00001330022984200D30AE10134141910E07C
:10450000289B42460493279B0B990393269B0A986A
:1045100002935346009201935B460C9A00F02CF9EB
:10452000040020001BB03CBC90469946A246AB4616
:10453000F0BDC046FFFFEF7FFFFFEFFFFFF7FFFF7C
:10454000764B099D9C466800400D604401F042FC9A
:10455000734A744B01F0C5FB734A744B01F09AFB2C
:104560002B03734A1B0B1A4306000F00714B1100FB
:1045700048460022099501F084FB6F4A6F4B01F019
:10458000B0FB02000B003000390001F083FB01F0AA
:1045900039FC0D9001F01EFC694A6A4B04000D00C5
:1045A00001F09FFB0022684B01F074FB01F02AFC34
:1045B000664A0600664B2000290001F092FB0400C9
:1045C00030000D000F9601F005FC624A624B01F0CD
:1045D00088FB02000B002000290001F052FB0200C2
:1045E0000B0006000F0001F07CFB320004000D0000
:1045F0003B003000390001F04DFB0022109011917A
:10460000564B2000290001F04EFB0022544B01F0D4
:1046100041FB02000B002000290001F044FB0022B6
:10462000504B01F037FB02000B002000290001F085
:104630003AFB0D00802132003B000400C905002038
:1046400001F01FFB02000B002000290001F022FBFB
:1046500002000B001098119901F025FB0022344B49
:1046600001F018FB404A0F9B9446634400221B054F
:1046700001F037FB06000F0002000B0048460999C5
:1046800001F07AFB00280AD00D9B3000013B390075
:104690000D930022324B01F006FB06000F00C625E9
:1046A0000D99330063318D42AD4128996D42043537
:1046B000090500D483E63B4300D16FE6099C4846D8
:1046C00021002A4A2A4B01F065FB002808D000226D
:1046D00048462100274B01F04FFB002800D05DE643
:1046E000269B002B00D16AE60E9B5A1E9341269A08
:1046F000D31A269363E6002304250D935FE68023F7
:104700001B065344C146099331E6002326934EE627
:104710000A008446013A6244121BEEE601FCFFFFE8
:10472000FB799F501344D33FB3C8608B288AC63FA0
:104730000000F03F0000F83F61436F63A787D23F5E
:1047400071A379094F930A400000E03F1655B5BBAD
:10475000B16B0240EF39FAFE422EE63F00002C40DA
:104760000000244000001840FF0300002D431CEB14
:10477000E2361A3F80842E41F0B54E46DE4657465B
:104780004546E0B597B09946209E219F229B8346DF
:10479000984607910C923B0032003000390001F03E
:1047A00006FB002800D0C1E1012230003900CA4BCD
:1047B000524201F0E1FA002800D0E0E0012230008E
:1047C0003900C64B524201F0EDFA002800D0B6E0A5
:1047D000002230003900C24B01F0E4FA002800D07A
:1047E00098E0002230003900BE4B01F0C5FA0028E5
:1047F00000D08FE0002200233000390001F0BCFA25
:10480000002800D0B0E000230D93249B5B0501D469
:104810000623984608AB9C461722002430234146C5
:10482000624404E0013413550139202C01D00929D8
:10483000F8D888463000390001F0E4FA4346DA003F
:10484000A94B05009B181A685B680892099301F050
:10485000C1FA02000B003000390001F012FA089A88
:10486000099B01F03EFA0A900B9101F0EFFA8246A3
:1048700001F0ACFA02000B000A980B9901F001FA62
:1048800000229A4B0A900B9101F08CFA002800D17B
:10489000C0E001239C46E244504601F097FA020032
:1048A0000B000898099901F06DFA002802D0002346
:1048B0009A4601354346002B69D008AB17269C4623
:1048C00008956644554614E001235B4243440A219F
:1048D00028009A4600F092FF0134303137193970C0
:1048E00028000A2100F08AFF092D00D8D5E0D04623
:1048F0000500202CE8D10323249A1340012B00D17A
:1049000000E10EAB9846249B01940393239B0293F2
:1049100043461EE0249B58460493239B0096019730
:10492000039343460C9A029307994B46FFF7E8FC22
:1049300017B03CBC90469946A246AB46F0BD249BBE
:104940005B070ED403226A4B2499019203912399A9
:104950000291009358464B460C9A0799FFF770FB5B
:10496000E6E70422634BEFE73B0032000020002122
:1049700001F087F9012306000F000D9345E7249B02
:104980000393239B0293042301935B4BE1E72800ED
:1049900001F020FA02000B003000390001F071F93B
:1049A000524B002206000F0001F0E6F90EAB9846CC
:1049B00000280AD10022300039004C4B01F0F2F9F6
:1049C000002802D1EB0700D50135202C32D008AAEF
:1049D00094461723280063440A2101341E1900F06D
:1049E000E5FE3031280031700A2100F0DFFE051E9F
:1049F000EBD10323249A1340012B00D191E01F2C0B
:104A000000D980E70D9B002B3BD02D234246135548
:104A1000013478E700220A980B99344B01F0ACF985
:104A2000002800D046E75346002B67D101239C465F
:104A3000E2443FE70323249A1340012B00D062E7AE
:104A4000239B002B00D15EE70D9B002B03D1249A02
:104A50000C33134202D0239B013B2393239B9C42A4
:104A6000CDD208AB9C461722302362441F2C06D8B7
:104A70002399013413558C42C1D0202CF8D1202425
:104A800041E7249B5B0721D4249B1B0700D43AE712
:104A9000202342461355013435E75746089D202C04
:104AA00037D0220030214046002F08D00132B154C7
:104AB000202A43D0D3431B191B18002BF6D10EAB71
:104AC00098462E234146541C8B547EE72B234246A6
:104AD0001355013417E7C046FFFFEFFFFFFFEF7FDD
:104AE00065CDCD4165CDCDC1402C01100000E03F2A
:104AF000482A01104C2A0110582A0110DB0700D463
:104B0000D8E693E7239B002B00D1FAE60EAB98463C
:104B10009AE70323249A1340012B00D0F1E60EAB51
:104B20009846239B002B00D169E78DE7249B0393D4
:104B3000239B029303230193064B0AE70323249A42
:104B400020241340012B00D0DBE6239B2024002BE4
:104B5000DCD1D6E6542A0110F0B5DE464E46574663
:104B60004546E0B59FB01C00289B93460993CF4A69
:104B7000CF4B894608901A60002900D116E2002325
:104B800020789A46002800D118E226001D004C46E5
:104B90000AE02A006F1C5B46089D2100A8473D00E3
:104BA0000136307800287AD02528F2D110239A4691
:104BB000083B9946043B9846023B00219C46721CE8
:104BC000107816000300203BDBB2102B03D8B94F3E
:104BD0009B00FB589F460300303B092B3CD9002328
:104BE0000A932A2800D171E0002398462E2847D046
:104BF0000300683BDBB2122B1FD8AF4A9B00D3588F
:104C00009F46012301321943DAE763460132194313
:104C1000D6E7434601321943D2E7534601321943DE
:104C2000CEE74B4601321943CAE770786C2800D1B1
:104C3000BFE280235B00194301360300253BDBB252
:104C4000532BA6D89D4A9B00D3589F4680235B00D8
:104C5000707819430136F0E700270300B800C01947
:104C600001364000C018337830381A00303A070057
:104C7000092AF3D90A901800002398462E28B7D1A4
:104C800080237078DB0019430300303B721C092B32
:104C900000D895E12A2800D1A6E11600A8E7A14690
:104CA000AA462C00D34503D801235B425B449A46B5
:104CB0005B46524649460020089DA84720001FB089
:104CC0003CBC90469946A246AB46F0BD099B40CB02
:104CD0000A96002E03DB50780993561C84E7283887
:104CE000014370420A9009935078561C7CE778285B
:104CF00000D1D4E1582800D168E26F2800D152E3F6
:104D0000622800D1D8E110230A009A430B92692847
:104D100001D000F0A2FC0A230C934B0500D4D5E18E
:104D200001230B9A9A430B92692800D1CEE16428A3
:104D300000D1CBE10B9A802311009B0019408A46D9
:104D40001A4200D032E3802311005B0019408946EB
:104D50001A4201D000F002FC13005B0600D510E3FC
:104D60000B9B1B0601D400F06EFC099B04CB1204C4
:104D7000120C924609935346002B00D064E30B9A21
:104D80001033110099430B91520500D45CE30023CA
:104D900099460B9B06930A9B0593434604930C9BF1
:104DA00003930023DEE27078682800D107E28023B5
:104DB0000136194341E780239B007078194301367F
:104DC0003BE7462800D174E10722099B0491073391
:104DD00093430A9A19000392424602920CC908981A
:104DE0000092019309912A005B462100FFF7C4FC61
:104DF00001360500D5E6099B1A0008CA9146002B2A
:104E000000D105E1212211438A460EA884461F21C4
:104E10006144099500220F27A4460D0002E0202AD4
:104E20000CD00B003C001C4020003730092C00D86F
:104E300007380132A85419090F2BF0D86446099D90
:104E4000F0E08B0700D4D1E1099B2A0099466B1C46
:104E500098464B4601CB21009946089F5B46C0B25D
:104E6000B8470A9B9C466544012B00D890E2B246A5
:104E70005E464746A846089D3A00330001372100A8
:104E80002020A8474745F7D1B3464B4656463D003C
:104E90000993013685E62A006F1C5B46089D2100B8
:104EA0002520A84701363D007BE6C046594B00103F
:104EB0004C1B0020602A0110A42A0110F02A0110C6
:104EC000099B04CB994643460992002B00D097E0FA
:104ED00013789C46002B00D1B3E302235B425A1C9B
:104EE000099B924618000A9F0B92504402E08342AD
:104EF00000D169E15A780133002AF8D1099A0A975A
:104F00009B1A0B9380230A00DB001A400C92194273
:104F100004D00B9B434501D943460B9302231A004F
:104F20000A400D920B4200D184E16046002823D054
:104F30000C9B002B00D124E1A844C246099B574694
:104F40005B1B9846089BB2462A0026005C469B469F
:104F500009E023003100551CD8474346585D00281E
:104F600000D13FE12A009742F3D1A3463D0034002F
:104F700056460D9B002B69D00B9B0A99A846994277
:104F800064D98C466544ED1A089B47469A46B0465C
:104F900026005C463A002300013731002020D0472C
:104FA000AF42F7D1A346340046464FE0D24B2078BB
:104FB000089300239A46002800D0E6E5002471E615
:104FC000434606000A9F9800C0180132400080192D
:104FD0001678030030003038303B0928F3D9300010
:104FE000984616000A9703E6099B023604CB9046C2
:104FF000D2434046D2171040804609933078F7E5F7
:1050000013789C46002B00D11AE34346013B66E728
:1050100010220800904311321043824600224905B5
:1050200000D4F2E6534606930823059343460493BF
:10503000102303930023029316AB019200932A00DE
:105040005B4621000898FFF763F805004B460136E0
:105050000993A6E5202302009A43472A04D180231E
:105060001B01194302239843452801D120231943EA
:105070000722099B0491073393430A9A190003926C
:10508000424602920CC908980092019309912A00A5
:105090005B462100FFF734F90136050081E5102356
:1050A0000C930C230A009A430B924B0500D43BE669
:1050B00036E62023194387E602230C930B910B99C4
:1050C0006428EED10B9B5B0500D529E60B9A802363
:1050D00011009B0019408A461A4200D0CEE080237E
:1050E00011005B00194089461A4200D0DBE1130031
:1050F0005B0600D51DE10B9B09991B0600D499E2C4
:1051000008C91BB2D8171A18424092B209919246A8
:10511000DA0F1292002B09D1802310220B99DB00A9
:105120000B4091430B91002B00D012E10B9A6123AD
:10513000920600D541230EA91F228C46DBB26244A1
:105140000A3B57461395A2464D460C9CB1460D931B
:1051500016000AE03033DBB201357355A74200D2A6
:105160001CE1202D00D119E107002100380000F0DA
:1051700045FBCBB20929EDD90D9A94466344DBB2C5
:10518000EAE7099B5F465B1B98460A9BB3469A4633
:105190002600089C2A003B003100A0474346013509
:1051A000585D0028F6D1534634000A935E46BB464C
:1051B000DFE6C0239B00B078194302363DE5C023EB
:1051C000B0781943023638E50A979BE60C230A00AB
:1051D0009A4314331A4310230B920C934B0500D4BB
:1051E000A8E59DE5A34634005646C2E60A9A012A80
:1051F00000D82EE26B1E9F18089BB04699462600E9
:105200005C462A002300013531002020C847BD42FA
:10521000F7D1A34634004646099B3A0001CB210052
:1052200098467D1C5B46089FC0B2B847434601368E
:105230000993B6E40B9A0A98531C904200D80AE2EC
:1052400043199B1A1F00089BB24626005C469B46EA
:105250002A002300013531002020D847BD42F7D174
:105260000A9BA34601330B93099B34001B785646D7
:105270009C466046002800D05AE6E7E60722099BD4
:1052800007339343013294469C4462465F68099217
:105290001A68FB171093119310981199030053404B
:1052A0000E930B007B400F9394460E9A0F9B121A9D
:1052B0008B410E920F93FB0F6246129300233A43E9
:1052C0009A463DD00B9A6123920600D541230022D5
:1052D000DBB20EA90A3B8C4691460D9343461F3222
:1052E0006244139515964D460E9E0F9FA14690461B
:1052F0000C9C14930FE0C0463D4000103032D2B2F7
:10530000434601355A55BA4500D17CE1202D00D1E4
:105310007CE106000F00220000233000390000F07D
:10532000AFFAD2B2092AE9D90D9B9C466244D2B2A7
:10533000E6E7FF23099904C913401A000991E6E63C
:105340000B9A1033110099430B915205BAD50023E3
:1053500099460B9B06930A9B0593434604930C9B2B
:105360000393129B02934B46019316AB2A000093C2
:1053700021005B460898FEF7CBFE01360500FFF7DB
:1053800010FCFF22099B02CB11408A460993F2E4EC
:105390004B46454609930136FFF703FC4E465446FB
:1053A000A946139DD5E708230C9387E60722099B9E
:1053B00007339343013294469C44624609921A682B
:1053C0005B6810009A4613005246134307D10B9AAC
:1053D0001033110099430B91520500D5D7E40B9A75
:1053E0006123920600D541230022DBB20EA90A3BBD
:1053F0008C4691460D9343461F32624457461295A0
:10540000A2464D460400B14690460C9E13930DE013
:105410003032D2B2434601355A550023BB4200D147
:10542000FDE0202D00D1FDE004000F00320000233C
:105430002000390000F024FAD2B2092AE8D90D9BE5
:105440009C466244D2B2E5E70B9A6123920600D5EE
:105450004123DBB20EA90A3B1F228C460D93230089
:1054600062445446129517004D469A46B1460C9E2A
:1054700008E03033DBB201357B55B4420ED3202D2A
:105480000CD004003100200000F0B8F9CBB209299B
:10549000EFD90D9A94466344DBB2ECE74E4654468E
:1054A000A946129D75E4099B1A0008CAD9171392E0
:1054B0005A184A409146DA0F1292002B08D18023E5
:1054C00010220B99DB000B4091430B91002B2BD149
:1054D0000B9A6123920600D541230EAA1F279446FA
:1054E000DBB20A3B0D95674455460993A2464C46EC
:1054F000B1460C9E08E03033DBB201357B55B44237
:105500000ED3202D0CD004003100200000F076F9DD
:10551000CBB20929EFD9099A94466344DBB2ECE790
:105520004E465446AA460D9D0B9B2A0006930A9BA5
:1055300021000593434604930C9B08980393129B08
:10554000013602935346019316AB00935B46FEF778
:10555000DFFD139B05000993FFF723FB099B04CB99
:1055600091461293002A08D1802310220B99DB0068
:105570000B4091430B91002B2BD10B9A6123920688
:1055800000D541230EAA1F279446DBB20A3B0D9596
:10559000674455460993A2464C46B1460C9E08E026
:1055A0003033DBB201357B55B4420ED3202D0CD005
:1055B00004003100200000F021F9CBB20929EFD915
:1055C000099A94466344DBB2ECE74E465446AA4639
:1055D0000D9D0B9B2A0006930A9B210005934346D1
:1055E00004930C9B08980393002302935346019362
:1055F00016AB00935B46FEF78BFD129B05000993EB
:105600000136FFF7CEFAB44200D87FE6149B4C4631
:105610000E960F97A9469846159E139D99E6A642A9
:1056200000D8FEE6139B4E469846A9465446129D66
:10563000FFF7AFFB08C9D8171A184240099166E571
:1056400000230B935EE4099B04CB92460993FFF77A
:1056500092FB2F00E0E50B930BE6063B0C932EE547
:105660000EB4012210B585B007AC08CC010000943F
:10567000524204480394FFF76FFA05B010BC08BC0F
:1056800003B01847354000100CB410B584B006AC18
:1056900008CC0A000094010004480394FFF75CFA68
:1056A00004B010BC08BC02B01847C046354000101A
:1056B00000B585B0039101210290009303481300C7
:1056C0004A4202A9FFF748FA05B000BDF1420010B6
:1056D0000FB410B50C4984B006AA08CA0C6803922E
:1056E000002C0BD0009201220848524202A9A04788
:1056F000012004B010BC08BC04B01847180001F029
:10570000B5F80020F5E7C0464C1B0020E142001030
:1057100010B5094A0300146884B0002C08D0012297
:1057200000910648524203A9A047012004B010BDD1
:1057300001F09CF80020F9E74C1B0020E14200102A
:1057400001480421014B18479005002071570010B3
:10575000142310B50100188804331B88984710BD26
:10576000162310B50100188802331B88984710BD16
:10577000F0B5C64600B5002916D014230400012553
:1057800098461827890046184346216818883B88A0
:10579000984701C4431E984140420540A642F3D1B8
:1057A000280004BC9046F0BD0125F9E7124A936F2A
:1057B0009B0815D29066D166002905D0FFE7FFE768
:1057C000FFE7516F106F704704B580210906C217BB
:1057D0005140002800D0C8430CF082FC002104BDD9
:1057E000F0B5146E556E576F166FFFF7E3FF146632
:1057F000556657671667F0BD000000D0114A936FD9
:105800009B0813D210665166002905D0FFE7FFE719
:10581000FFE7516F106F704704B5002801D00020DA
:10582000C0430CF05DFC002104BDC046F0B5146E11
:10583000556E576F166FFFF7E5FF1466556657678D
:105840001667F0BD000000D094464E4A926F920851
:10585000624601D230E0C046F0B54A4EB56F6D08E1
:10586000FCD3346E756E776F366F00F025F8944672
:10587000444A14665566576716676246F0BDC046CF
:105880009446404A926F9208624601D258E0C04660
:10589000F0B53C4EB56F6D08FCD3346E756E776F06
:1058A000366F00F04DF89446364A146655665767D1
:1058B00016676246F0BDC046002B24DB11D00029DC
:1058C0003EDA00B5C943404200D1013100F038F85A
:1058D000C943404200D10131DB43524200D1013380
:1058E00000BD002AEBD1002801D1002905D00020FD
:1058F000C90FC90701D1C043410800B50CF0E0FB56
:105900000022002300BD00B500290ADBDB43524220
:1059100000D1013300F014F8C943404200D10131F5
:1059200000BDC943404200D10131DB43524200D1A6
:10593000013300F005F8DB43524200D1013300BDD2
:10594000002923D1002B18D1002A0CD0BC460D4FC2
:1059500038667A6600210023FFE7FFE7FFE77A6FEA
:10596000386F67467047002801D00748010000B52E
:105970000CF0A6FB0022002300BD02000B0000205B
:1059800000217047000000D0FFFFFFFF002B00D078
:10599000BFE0130C28D1002AE7D080B4114F39663C
:1059A0007A66FFE7FFE730B4040C7B6F396F1B04A6
:1059B00023433B667A66FFE7FFE7FFE7C04684B212
:1059C0007B6F3D6F1B0423433B667A66FFE7FFE76F
:1059D000C04600232C042D0C7A6F386F00196941E2
:1059E000B0BC7047000000D0F0B594460025140EFE
:1059F00001D112020835140F01D112010435940FA0
:105A000001D192000235D40F01D152000135D40BDF
:105A10000134254F7C66254C3C660E0C93B2FFE7A3
:105A2000FFE7FFE73C6F6643360C7703BE467343E0
:105A3000DF0B5B04C01AB941130C7343DB18C91A9E
:105A4000CE086643360CB64493B273431F0F1B0156
:105A5000C01AB941130C73431F0B1B05C01AB9417F
:105A6000860D8F023E436643360C092D24DB520A15
:105A70007243801A7703460A6643360C16235B1B73
:105A8000DE40DF40BF1964466643821B7046043522
:105A900006330100D940A840C01900D30131A24209
:105AA00006D20023F0BD0000000000D0FFFFFFFF82
:105AB000121B0130F3D3F1E709277F1BFE40644638
:105AC000A2B27243801A00D20139220C7243130C25
:105AD0001204821A99410B007046043513370100F5
